:10000000E018002075310000FF7E00002D31000057
:100010002D3100002D3100002D31000000000000C6
:100020000000000000000000000000007128000037
:100030002D31000000000000192800002D310000C3
:100040005D2900005D2900005D2900005D29000098
:100050005D2900005D2900005D2900005D29000088
:100060005D2900005D2900005D2900005D29000078
:100070005D2900005D2900005D2900005D29000068
:100080005D2900005D2900005D2900005D29000058
:100090005D2900005D2900005D2900005D29000048
:1000A0005D2900005D2900005D2900005D29000038
:1000B0005D2900005D2900005D2900005D29000028
:1000C0005D2900005D2900005D2900005D29000018
:1000D0005D2900005D2900005D2900005D29000008
:1000E0005D2900005D2900005D2900005D290000F8
:1000F0005D2900005D2900005D2900005D290000E8
:1001000053B94AB9002908BF00281CBF4FF0FF317E
:100110004FF0FF3000F06CB9ADF1080C6DE904CE82
:1001200000F006F8DDF804E0DDE9022304B07047D2
:100130002DE9F047089E0D4604468E46002B40F000
:1001400082808A42174646D9B2FA82F24AB1C2F197
:10015000200105FA02F320FA01F1974041EA030E6B
:1001600094404FEA1748230CBEFBF8FCB9B208FBD9
:100170001CEE43EA0E430CFB01F098420AD9FB182F
:100180000CF1FF3580F01681984240F21381ACF1FA
:10019000020C3B441B1AA4B2B3FBF8F008FB10336B
:1001A00044EA034400FB01F1A14209D93C1900F1E2
:1001B000FF3380F00181A14240F2FE8002383C44CE
:1001C000641A40EA0C4000211EB1D4400023C6E965
:1001D0000043BDE8F08702B9FFDEB2FA82F2002ADE
:1001E0004FD1CB1B4FEA174E1FFA87F80121B3FB03
:1001F000FEFC250C0EFB1C3345EA034508FB0CF303
:10020000AB4207D97D190CF1FF3002D2AB4200F2AC
:10021000E7808446ED1AA3B2B5FBFEF00EFB105545
:1002200043EA054408FB00F8A04507D93C1900F152
:10023000FF3302D2A04500F2D7801846A4EB080491
:1002400040EA0C40C0E78B4208D9002E00F0AF8096
:100250000021C6E900050846BDE8F087B3FA83F13E
:1002600000294BD1AB4202D3824200F2B780841AFC
:1002700065EB030301209E46002EAAD0C6E9004E7E
:10028000A7E7C2F1200C01FA02F3974020FA0CF024
:100290004FEA174E21FA0CFC1843BCFBFEF1050C8B
:1002A0000EFB11CC1FFA87F845EA0C4501FB08F359
:1002B000AB4204FA02F409D97D1901F1FF3C80F048
:1002C0008B80AB4240F2888002393D44EB1A85B204
:1002D000B3FBFEF00EFB103345EA034500FB08F3C9
:1002E000AB4207D97D1900F1FF3C71D2AB426FD907
:1002F00002383D44EB1A40EA014178E7C1F1200C95
:100300008B4022FA0CF71F4320FA0CF405FA01F394
:100310004FEA174E25FA0CF51C43230CB5FBFEF9EA
:100320001FFA87F80EFB195543EA054509FB08FA41
:10033000AA4502FA01F200FA01F308D97D1909F180
:10034000FF3047D2AA4545D9A9F102093D44A5EBA2
:100350000A05A4B2B5FBFEF00EFB105544EA0544B5
:1003600000FB08F8A04507D93C1900F1FF352DD254
:10037000A0452BD902383C4440EA0940A4EB0804CC
:10038000A0FB02894C45C6464D4619D316D05EB136
:10039000B3EB0E0264EB050404FA0CFCCA404CEA11
:1003A0000202CC40C6E900240021BDE8F0873146B6
:1003B00030460EE7AC46EDE6184601E74345E6D287
:1003C000B8EB020E69EB07050138E0E72846D3E7F2
:1003D00060468FE78146BAE7614677E708464BE714
:1003E000ACF1020C3D4415E702383C4426E700BF5F
:1003F000704700BF0000000043681868884259D960
:10040000642A5AD82DE9F04F87B05B68080103EBE6
:1004100001118F6807FB02F42D4AA2FB0424640932
:100420001D58D1F804A00B7B0293AB685B6804AA4B
:10043000514628469847002833D1049EDDF814B071
:10044000A7FB068907FB0B991DA3D3E900234046B0
:100450004946FFF755FE03901BA3D3E900234B4504
:1004600008BF424520D3A4FB066704FB0B7714A307
:10047000D3E9002330463946FFF742FE034612A176
:10048000D1E90001B94208BFB04210D3AA6814688C
:1004900002990091039A51462846A04707B0BDE84B
:1004A000F08F6FF00400F9E76FF08500F6E76FF06A
:1004B0008500F3E76FF0150070476FF01500704787
:1004C00000CA9A3B00000000FFFFFFFFFFC99A3BF4
:1004D0001F85EB512DE9F04105460F46A64AA74B73
:1004E000D21AD2084FF00003032161F302036FF325
:1004F000C50362F38F133E46A14A52F82720002A13
:1005000049D039469F4801F06BFAAB681B68394601
:1005100028469847011E40DB974B984A9B1ADB08F8
:100520004FF00001032262F302016FF3C50163F390
:100530008F11954801F090FA4FF40040002106F029
:1005400003FBAB685B68394628469847011E35DBDC
:10055000894C8A4BE41AE4084FF003084FF000017D
:1005600068F302016FF3C50164F38F11874801F04E
:1005700073FA4FF40040002106F0E6FA4FF0000154
:1005800068F302016FF3C50164F38F11804801F035
:1005900063FA00242DE07F4AB3E7774B774A9B1A32
:1005A000DB084FF00002012060F302026FF3C50286
:1005B00063F38F12784801F0DDF938E06E4B6F4A33
:1005C0009B1ADB084FF00002012060F302026FF378
:1005D000C50263F38F12704801F0CCF927E06FF089
:1005E000570012E04FF4A470002106F0ADFA013478
:1005F000A4B2642C1DD8E2B2AB681B69002BEED00C
:100600003146284698470028ECDA5B4A5B4BD21A01
:10061000D2084FF00003012161F302036FF3C50319
:1006200062F38F13224601465C4801F0D9F9BDE818
:10063000F0814FF40040002106F086FAAB689C6818
:10064000002C60D064231A4639462846A047011E74
:100650005BDB494B494A9B1ADB084FF00001032240
:1006600062F302016FF3C50163F38F114C4801F08F
:10067000F3F94FF42030002106F066FAAB689C686D
:10068000002C53D04FF47A731A4639462846A047B7
:10069000011E4EDA384C394BE41AE4084FF00002E0
:1006A000012363F302026FF3C50264F38F123A4829
:1006B00001F060F94FF00001032363F302016FF3CF
:1006C000C50164F38F11374801F0C6F94FF42030AB
:1006D000002106F039FAAB685B683946284698472E
:1006E000011E37DB244B254A9B1ADB084FF0000123
:1006F000032262F302016FF3C50163F38F112A48ED
:1007000001F0AAF993E76FF057011B4B1B4A9B1AA4
:10071000DB084FF00002012060F302026FF3C50214
:1007200063F38F121C4801F025F980E76FF0570141
:10073000B0E7114B114A9B1ADB084FF0000103226E
:1007400062F302016FF3C50163F38F11174801F0E3
:1007500083F9BBE7084B094A9B1ADB084FF00002FC
:10076000012060F302026FF3C50263F38F120A489F
:1007700001F000F95BE700BFC49100009C9100000C
:1007800040040020B4920000D0920000DC920000EF
:10079000EC920000A8920000C892000010930000A4
:1007A0002893000050930000AC9300008893000051
:1007B00038B5194805F000FAD8B10546174B184A64
:1007C0009B1ADB084FF00002032161F302026FF372
:1007D000C50263F38F121049124801F0CBF80024D0
:1007E000002CFCD121462846FFF774FE0134E4B208
:1007F000F6E70A4B0A4A9B1ADB084FF00002012178
:1008000061F302026FF3C50263F38F1202490648D7
:1008100001F0B0F838BD00BFC4930000C4910000DF
:100820009C910000CC930000DC93000008B50B689D
:1008300001330B60014B1B68984708BD0000002086
:10084000014B1860704700BF0000002000B583B066
:1008500002460B460021019101A9034800F0C8F8A7
:1008600003B05DF804FB00BF2D08000010B584B094
:100870000446019002910021039101A9054800F06E
:10088000B7F8039B029A934201DA0022E2540398DC
:1008900004B010BDB57400002DE9F04383B00446E8
:1008A00008461546238B13F0080F05D103F0070601
:1008B00000230093019369E0012909D043F020034C
:1008C000238385F31188BFF36F8F03B0BDE8F083F6
:1008D00043F010032383F4E7204606F046FE57E07A
:1008E000D4F814904A466946204606F057FE002781
:1008F0005AE023691F680621204606F00FFE4FF0DC
:10090000000951E023695F680421204606F006FED5
:100910004FF0000948E023699F680521204606F052
:10092000FDFD4FF000093FE0002246E0002244E0D8
:1009300043F00803238385F31188BFF36F8F0029E9
:1009400044D1009B2BB14B4642466946204606F0F7
:100950009BFE17B125492046B8474FF02003EFF31F
:10096000118583F31288BFF36F8F238B23F0080365
:100970002383238B13F0100F2ED023F01003238337
:100980000120268B06F0070600289AD00228A3D063
:10099000002896D00128A3D00328AAD00428B1D0DB
:1009A0000528B8D00027B946238B03F00708B045C7
:1009B000BAD0A268002AB9D001221146002AB7D1C4
:1009C000009A002AB4D1002FB2D1D2E74A4641465C
:1009D000204606F0ABFDB4E713F0200F04D023F05F
:1009E000200323830220CCE70020CAE7B77600006B
:1009F0002DE9F04F93B006460D469246039300242E
:100A00009AF80000002800F0D684252808D00AF1C2
:100A1000010A2946B0470028C0F2CE840134EFE72E
:100A20000023069307930B93089309930A930AF103
:100A300001089AF80130252B01D001272CE00AF19A
:100A400002088DF82330A8E19DF8203043F004031C
:100A50008DF82030FFB108F101081CE09DF820302E
:100A600043F008038DF82030F4E79DF8203043F080
:100A700010038DF82030EDE79DF8203043F020037F
:100A80008DF82030E6E79DF8203043F040038DF8E4
:100A90002030DFE700274FB398F80030203B102BC1
:100AA000F8D801A252F823F06B0A0000950A000062
:100AB000950A0000790A0000950A0000950A0000D6
:100AC000950A0000950A0000950A0000950A0000AA
:100AD000950A00005D0A0000950A0000490A00001E
:100AE000950A0000950A0000870A00009DF8203052
:100AF00003F04403442B6DD0CDF814809DF82030D2
:100B000043F080038DF8203098F800302A2B68D00D
:100B100005A806F060FE059B984512D09DF8203090
:100B200043F080038DF820300990C3F34003002880
:100B300060DB002213439DF8202063F341028DF80F
:100B40002020059B05931B782E2B14BF0023012327
:100B50009DF8212063F341028DF82120002B4BD01A
:100B6000059B5A1C05925B782A2B48D005A806F0F5
:100B700032FE0A909DF82030C3F34003002847DB83
:100B8000002213439DF8202063F341028DF82020BA
:100B9000DDF8148098F800304C3B2E2B00F2DC80FE
:100BA000DFE803F0CADADADADADADADADADADADA63
:100BB000DADADADADADADADADADADADADADADADA95
:100BC00038DA6ADA51DADADADADADADAC0DADADA3A
:100BD000DADAB6009DF820306FF386138DF82030F6
:100BE0008AE79DF8213043F001038DF82130434618
:100BF0000133A7E701229DE7DDF81480CAE79DF8DD
:100C0000213043F004038DF8213002F10108C1E7DF
:100C10000122B6E708F1010298F80130682B08D0EC
:100C20009DF82130022161F3C6038DF821309046F2
:100C30002BE09DF82130012262F3C6038DF82130AC
:100C400008F1020821E008F1010298F801306C2B4C
:100C500008D09DF82130032161F3C6038DF82130BF
:100C6000904612E09DF82130042262F3C6038DF80D
:100C7000213008F1020808E09DF82130052262F3D6
:100C8000C6038DF8213008F1010818F8013B8DF8F2
:100C90002330A3F14102372A00F25081DFE812F03D
:100CA00026014E014E014E012601260126014E016C
:100CB0004E014E014E014E014E014E014E014E01BC
:100CC0004E014E014E014E014E014E014E011301E7
:100CD0004E014E014E014E014E014E014E014E019C
:100CE00026014E01130163002601260126014E0153
:100CF00063004E014E014E014E012F0113013F01D1
:100D00004E014E013F014E0113014E014E011301F0
:100D10009DF82130062262F3C6038DF8213008F1D8
:100D20000108B2E79DF82130072262F3C6038DF86F
:100D3000213008F10108A8E79DF82130082262F36C
:100D4000C6038DF8213008F101089DF8203043F0EA
:100D500002038DF8203098E79DF821306FF3C60329
:100D60008DF8213091E79DF82220012161F30202E4
:100D70008DF822209DF8212002F07802402A00F010
:100D8000AA80632B00F0AE809DF82030C3F34002B0
:100D9000174367F341038DF820309DF8213013F09D
:100DA000010F00F0DA80039B1A1D03921F68002FC9
:100DB000C0F2CB809DF8213013F0040F00F0DF80EB
:100DC000039B1A1D0392D3F800B0BBF1000FC0F2D1
:100DD000CD80002309930A939DF8223003F0070386
:100DE0009DF82110C1F3C301012B00F0D180022B2B
:100DF00000F01681042B00F06781032B00F07E8148
:100E00009DF8209019F00303029340F07D819DF836
:100E10002330253B532B00F23382DFE813F08101AE
:100E2000310231023102310231023102310231022A
:100E3000310231023102310231023102310231021A
:100E4000310231023102310231023102310231020A
:100E500031023102310231023102310231023102FA
:100E600031023102310231023102310231023102EA
:100E700031023102310231023102310231023102DA
:100E800031023102C7013102310231023102310235
:100E900031023102310231023102A101AB013102D2
:100EA000310231023102AB01310231023102310231
:100EB0000802C701EA01310231028F013102C70184
:100EC00031023102C7019DF82220022161F30202A2
:100ED0008DF822204EE79DF8201041F001018DF899
:100EE00020104EE7171E18BF01274DE79DF822304E
:100EF000042262F302038DF82230012744E79DF8B3
:100F00002230032262F302038DF822309DF8213053
:100F100003F07803402B7FF437AF012734E79DF8C7
:100F20002230032262F302038DF822309DF8213033
:100F300013F0780F3FF428AF012725E79DF8203004
:100F400043F001038DF820301EE79DF8203043F078
:100F500004038DF820307F422CE79DF92030002BD0
:100F600002DB4FF0FF3725E7099F23E79DF821308B
:100F70006FF341038DF821304FF0FF3B29E713F069
:100F8000020F02D0DDF828B023E74FF0FF3B20E747
:100F9000CB1E042B04D8DFE803F00B1D29353500E8
:100FA000039B1A1D03921A68D317CDE9062306E0A6
:100FB000039B1A1D03921A68D317CDE90623012952
:100FC00028D002297FF41CAFBDF91820D317CDE932
:100FD000062315E7039B073323F0070303F10802F9
:100FE0000392D3E90023CDE90623E8E7039B073307
:100FF00023F0070303F108020392D3E90023CDE9AC
:101000000623DCE7039B1A1D03921A68D317CDE968
:101010000623D4E79DF81830069300230793EFE6E4
:10102000CB1E042B04D8DFE803F00B1F3541410031
:10103000039B1A1D03921B680693002307931EE06F
:101040009DF82330632B07D0039B1A1D03921B6866
:1010500006930023079312E0039B1A1D03921B685B
:101060000693002307930AE0039B073323F007034B
:1010700003F108020392D3E90023CDE906230129F5
:101080001CD002297FF4BCAEBDF8183006930023B3
:101090000793B5E6039B073323F0070303F1080228
:1010A0000392D3E90023CDE90623E8E7039B1A1D49
:1010B00003921B68069300230793E0E79DF818301E
:1010C0000693002307939BE608290BD0039B073365
:1010D00023F0070303F108020392D3E90023CDE9CB
:1010E00006238DE6039B073323F0070303F1080271
:1010F0000392D3E90023CDE9062381E6039B1A1D61
:1011000003921B6806937BE64346524629463046C7
:1011100006F0DEFB0028C0F24F810444C2466FE4B3
:1011200029462520B0470028C0F246810134DDF869
:1011300008900DF1460B4FF0000AA7E0DDF818A06B
:10114000BBF1000F08DB5946504606F068FF0AEB7A
:10115000000BDDF8089099E0504606F058FFF6E7DE
:10116000069B8DF83030DDF808900DF1310B0DF154
:10117000300A8BE019F0080F05D119F0100904D0DE
:101180004FF0200901E04FF02B09DDE90623002A8A
:1011900073F1000102DBCDE9062309E0524263EB63
:1011A0004303CDE906234FF02D0901E0DDF8089057
:1011B0000DF1460300930CAB08AADDE9060106F029
:1011C0001DFB8246BBF1000FC0F290800DF146037B
:1011D000A3EB0A039DF820206FF386128DF82020E0
:1011E0009B4540F28680ABEB030309930DF1460B60
:1011F0004CE0069830B9DDF80890DFF8C4B1ABF1E7
:10120000050A43E00DF1460300930CAB08AA002148
:1012100006F0F4FA82469DF8223043F010038DF870
:10122000223078238DF82330DDF80890CAE7069A3B
:101230009DF82130C3F3C303072B06D8DFE803F082
:10124000040C0E1012171C1E1460DDF808900DF12E
:10125000460B4FF0000A19E01470F6E71480F4E72B
:101260001460F2E72046E117C2E90001EDE72046ED
:10127000E117C2E90001E8E71460E6E71460E4E77B
:10128000DDF808900DF1460B4FF0000ABAF1000F9F
:1012900000F08E80ABEB0A02B9F1000F00D00132F2
:1012A0009DF8221011F0100F26D00232099B134432
:1012B00011F0400F01D00A9A1344002F32DDFF1ABB
:1012C0009DF8203013F0040F2CD113F0400F18D0EC
:1012D000B9F1000F18D029464846B04700286BDB0B
:1012E0000134DDF80890302302930FE00DF1460B36
:1012F000CCE70DF1460BC9E711F0080FD6D001324B
:10130000D4E72023029301E0302302933B465F1E83
:10131000002B07DD29460298B04700284CDB01343A
:101320003B46F4E7B9F1000F05D029464846B047DF
:10133000002841DB01349DF82230C3F30012C3F3CF
:10134000C003134305D029463020B047002833DBC3
:1013500001349DF8223013F0100F06D029469DF875
:101360002300B047002827DB0134099B03F1FF3934
:10137000002B07DD29463020B04700281CDB013454
:101380004B46F3E75B4652462946304606F0A0FA44
:10139000002811DB0444002F07DD29462020B04738
:1013A000002809DB0134013FF5E7C246FFF728BBFF
:1013B000C246FFF725BB204613B0BDE8F08F00BF43
:1013C000FD93000008B54FF02002EFF3118382F384
:1013D0001288BFF36F8F02F06DF8034806F082F8B1
:1013E00001F044F9FCE700BF00940000054B98426F
:1013F00004D3054B984203D3002070470020704768
:1014000001207047FC8E0000AC9F000008B5064B21
:10141000186018B1054B1B68092B00DC08BD044897
:1014200004F0B4FFFAE700BF740400204404002075
:10143000C001002008B5024804F0A8FF08BD00BFA5
:10144000C001002008B5034806F06BFA003818BF49
:10145000012008BD5004002030B589B000220F499A
:101460000F4807F01CFD0F4D00220023CDE9062395
:10147000002404940E2303930294019400940A4BD5
:101480004FF440720949284607F002FB08492846F4
:1014900004F0C0FD204609B030BD00BF3514000087
:1014A000D001002008020020111B0000C011002004
:1014B0002C940000184BBFF35B8F53E8002F511C96
:1014C00043E800100028F8D1BFF35B8F1ABB70B55A
:1014D000002409E0114B03EB06135B680422196832
:1014E000284600F059FB01340D4B0C4A9B1AB4EB13
:1014F000231F0FDA2646094D05EB04152B7B002B25
:10150000F1D02301054AD3589B69002BE2D028462D
:101510009847DFE770BD70474C040020FC91000045
:101520001C92000038B108B5044A1060084600F06B
:10153000ABFD002008BD6FF01500704704000020CF
:1015400008B500230A4A13700A4A13604FF4004199
:101550000948FFF7E7FF00F041FB084806F0D3F920
:10156000042328220649074807F02FFA08BD00BFC8
:10157000E10F0020480400203B79000050040020C7
:10158000802200205804002010B54FF02003EFF314
:10159000118483F31288BFF36F8F044806F0C3F9F8
:1015A00084F31188BFF36F8F10BD00BF500400207B
:1015B00008B5054B1B781BB1034B01221A7008BDFF
:1015C000024804F0E3FEF7E7E00F0020C00100202E
:1015D0000C4BBFF35B8F53E8002F013243E800212F
:1015E0000029F8D1BFF35B8F074BBFF35B8F53E844
:1015F000002F013A43E800210029F8D1BFF35B8FA7
:10160000704700BF4804002044040020064B00201F
:101610000246BFF35B8F53E8000F43E80021002927
:10162000F9D1BFF35B8F70474804002038B5FFF74E
:10163000EDFF0546002400E001340B4B0B4A9B1ADA
:10164000B4EB231F0FDA094800EB041043685B7901
:10165000002BF1D02301054AD3581B69002BEBD096
:1016600029469847E8E738BD1C920000FC9100002D
:10167000034B18680028D4BF00200120704700BF2A
:101680004804002010B582B00446FFF7AFFE10BB3F
:101690000022002301A9114804F066FC08B1104C97
:1016A00019E0019B0122BFF35B8F53E8001F43E861
:1016B00000200028F9D1BFF35B8F1F22214601983B
:1016C000043006F08AFC019C7E2384F8233000233A
:1016D00084F824300434204602B010BD58040020A1
:1016E0003494000038B1074A904206D3A0329042A9
:1016F00005D300207047002070470020704701206C
:10170000704700BF80220020037A13F0010F00D041
:1017100070472DE9F04383B0064606F0CAF9074644
:10172000304606F0B1F90146384606F00AF905469A
:1017300004E0012303FA04F425EA04056DB3B5FAC5
:1017400085F4C4F11F042146304606F0A0F9814615
:10175000FFF74CFE0028ECD14846FFF7C3FF0028F6
:10176000E7D10F4B9945E4D07189C1F3891100F09D
:1017700003FA02460B4B0C495B1ADB08012161F3AB
:1017800002086FF3C50863F38F18ADF800803B467D
:101790002146064800F0B0F8CBE703B0BDE8F0837F
:1017A00034940000B49100009C910000509400001B
:1017B000F8B5064619BB144B1B780BB1002403E0A7
:1017C000FFF7A2FFFAE70134104B114A9B1AB4EB62
:1017D000231F14DA0E4D05EB04156B685B79002BA3
:1017E000F1D03146284606F0A6F80028EBD02701B4
:1017F000074BDB595B68314628469847E3E730469C
:1018000006F059F9F8BD00BFE10F00201C9200005E
:10181000FC91000010B50446114B1B7803B9D0B100
:10182000FFF7B2FE034680B15CB90E4ABFF35B8F8F
:1018300052E8001F013942E800100028F8D1BFF338
:101840005B8F21461846FFF7B3FF14B9FFF710FF6F
:1018500010B9FFF7F7FD10BDFFF7E8FEF9E700BF8D
:10186000E00F00204404002010B582B01D4BBFF3F0
:101870005B8F53E8002F511C43E800100028F8D17B
:10188000BFF35B8F184B1B783BB9184B1B6803B138
:101890009AB10A2A1CD002B010BD4FF02003EFF31A
:1018A000118483F31288BFF36F8F0020FFF7B2FF1C
:1018B00084F31188BFF36F8FEDE700220023CDE999
:1018C00000234FF400420023094805F06FFBE2E7D4
:1018D000002BE0D0064807F0EEFA064804F056FD6B
:1018E000D9E700BF44040020E10F00207404002069
:1018F000D0010020C00100202DE9F04180460F46B4
:1019000016461D4600F08EF9044640B1012343609F
:10191000002202814FF0000362F3000303724CB116
:10192000C4F81080637A032262F30713637267615D
:10193000A661E561C4B1BDF8183063810B4B1B682B
:101940009847E0604FF02003EFF3118583F312888E
:10195000BFF36F8F2146064805F0D9FF85F3118844
:10196000BFF36F8FFFF780FFBDE8F0810400002018
:1019700050040020F8B506460D46174600F052F90F
:10198000044640B101234360002101814FF0000370
:1019900061F30003037234B12661637A012262F3BA
:1019A000071363726561B4B167810B4B1B6898477D
:1019B000E0604FF02003EFF3118583F31288BFF34B
:1019C0006F8F2146054805F0A2FF85F31188BFF30C
:1019D0006F8FFFF749FFF8BD04000020500400207E
:1019E0002DE9F04107460E461546984600F01AF9D3
:1019F000044640B101234360002202814FF00003FE
:101A000062F3000303723CB12761637A022262F33E
:101A1000071363726661A561BCB1A4F80A800C4B20
:101A20001B689847E0604FF02003EFF3118583F3C4
:101A30001288BFF36F8F2146064805F068FF85F3D3
:101A40001188BFF36F8FFFF70FFFBDE8F08100BF74
:101A5000040000205004002070B505460E4600F03A
:101A6000E1F8044640B101234360002202814FF0B7
:101A7000000362F30003037204B12561B4B166810F
:101A80000B4B1B689847E0604FF02003EFF3118584
:101A900083F31288BFF36F8F2146064805F037FFA6
:101AA00085F31188BFF36F8FFFF7DEFE70BD00BFB7
:101AB0000400002050040020124B1B7803B1704733
:101AC00010B5FFF7F7FC002400E001340E4B0F4A7D
:101AD0009B1AB4EB231F0CDA0C4800EB041043688C
:101AE0005B79002BF1D02301084AD3585B699847F2
:101AF000EBE70020FFF78EFE0028FAD1014B012210
:101B00001A7010BDE10F00201C920000FC91000033
:101B100008B5FFF7CFFC05F043F8FFF777FC06E0C8
:101B20004FF0FF324FF0FF33044804F053FC002025
:101B3000FFF770FE0028FAD1F2E700BFC0010020D5
:101B400000B583B004380190BFF35B8F50E8003FCD
:101B50005A1E40E800210029F8D1BFF35B8F012B0A
:101B600002D003B05DF804FB01A9024806F03BFF78
:101B7000F7E700BF58040020054B064A9B1AB1EB5B
:101B8000D30F02D252F8310070470020704700BFD7
:101B9000FC9100009C91000008B5074BC31A1B1173
:101BA00001334268137143681960436801225A7116
:101BB000FFF7FEFC08BD00BFFC91000010B582B02D
:101BC0000190019B33B11C6801A9034806F00BFF8B
:101BD0000194F6E702B010BD7804002008B5202378
:101BE0001A460249024806F0F0FE08BD20230020F4
:101BF0007804002010B582B0002301930120FFF784
:101C000009FE0446FFF7E4FC0022002301A9044872
:101C100004F0AAF908B1002CF0D1019802B010BD6F
:101C20007804002000B583B00023019305F0ACFEDA
:101C300050B10022002301A9074804F095F930B9FA
:101C4000019803B05DF804FB00220023F3E7FFF7DF
:101C5000D1FF0190F4E700BF78040020F0B583B015
:101C60000190044605F010FF237A13F0010F01D113
:101C7000064650BB019B1A7A12F0020F28D101A927
:101C8000154806F0B0FE03B0F0BD019805F011FF55
:101C9000314605F056FE074688B9EBE72846FFF7C0
:101CA0004FFF0134B442E5D22146019805F0EFFE22
:101CB0000546FFF717FD0028F3D0002FE5D027FADF
:101CC00004F313F0010FECD0E8E700273C46E9E706
:101CD0005869FFF773FFD2E7780400200EB400B50F
:101CE00082B0014603AB53F8042B01930348FEF77F
:101CF0007FFE02B05DF804EB03B07047077E000082
:101D0000F0B585B011F0440F05D01A4B1C6834B9FA
:101D1000002005B0F0BD1849FFF7E0FFF9E7174BC9
:101D20001968B2FBF1F1B1FBF4F5154AA2FB0532DB
:101D3000D20A4FF4616606FB1256124BA3FB0673E0
:101D40005B0904FB15114FF47A7505FB01F1B1FB3A
:101D5000F4F707FB141105FB01F1B1FBF4F4029455
:101D60000197C3EB0311A6EB810100910649FFF730
:101D7000B5FFCEE79404002094940000980400205E
:101D8000C5B3A29189888888A094000061B108B584
:101D90002AB1064A52F8232012B9054A00E0044A43
:101DA0000449FFF79BFF08BD704700BF189500006E
:101DB000BC940000C494000011F0100F0BD108B5C2
:101DC00011F0200F03D00449FFF788FF08BD034935
:101DD000FFF784FFFAE7704724930000889F000014
:101DE0002DE9F04105460F46164698460699FFF73D
:101DF000E3FF0024444505DA23492846FFF76EFF38
:101E00000134F7E7002409E01F492846FFF766FF81
:101E10000BE01E492846FFF761FF01340F2C0CDC54
:101E2000002C02DD14F0070FEED0B442F1D23A5D7F
:101E300017492846FFF752FFEFE716492846FFF7F4
:101E40004DFF002409E010492846FFF747FF0BE04B
:101E500011492846FFF742FF01340F2C12DC002CF9
:101E600002DD14F0070FEED0B44206D23A5DA2F1C3
:101E700020035E2BECD92E22EAE703492846FFF720
:101E80002DFFE9E7BDE8F081EC940000D09400005C
:101E9000C8940000D4940000D89400002DE9F041CB
:101EA000804616461D46BDF9187059B90024002F0A
:101EB0001CDB86B10123079A934013F0100F18D151
:101EC0000D4E09E00D4B079A53F822200C49FFF7FD
:101ED00005FF0446EBE7084E39462846FFF74CFE5F
:101EE000024631464046FFF7F9FE04442046BDE86D
:101EF000F081044EF0E700BFDC9400005495000030
:101F0000E8940000E49400002DE9F04F85B0054608
:101F10000C46164603939DF8388001F0020B01F041
:101F2000010AC1F3C00905F02DFDE8B102461349CD
:101F30002846FFF7D3FE0746BBF1000F16D14246F5
:101F40005146284605F0DFFDCDF80480BDF940304C
:101F500000939DF83C30324649462846FFF79EFFE5
:101F6000384405B0BDE8F08F0027E5E7039A214625
:101F70002846FFF7C5FE0744E1E700BFF0940000E4
:101F80002DE9F04389B007460E469146984605F084
:101F900090FD02460E493046FFF7A0FE00241025B2
:101FA0000395234603AA0DEB0501384605F096FD7F
:101FB000039A52B1CDF800804B460DEB0501304637
:101FC000FFF70EFF039D2C44E9E709B0BDE8F0835D
:101FD000C4940000F0B583B006460C4600273D4689
:101FE0000DE0A268134413F8017C0A2F14BF0027E8
:101FF0000127204605F0FAFE019B1D4473B1E368FA
:1020000001932B4601AAA168304605F067FD63687D
:10201000019A1A60019B002BEBD0E2E70FB903B0E5
:10202000F0BD02492046FFF759FEF8E7F49400009E
:1020300070B582B00446056842F20F738B4228BF28
:102040000B460E4A0521684605F05AFA06466368B3
:102050005B680B220A49284605F048FD63685B6807
:1020600032466946284605F041FD63685B681B22DD
:102070000449284605F03AFD02B070BDCC9200003C
:10208000489500002C950000074B01221A60074B71
:10209000984205D94008044A13685B001360F6E7CC
:1020A000034B1860704700BF9804002040420F00A7
:1020B0009404002070B506460D460024AC4207D2B9
:1020C000044B1868315D83685B6898470134F5E715
:1020D000284670BDB0040020014B024A1A607047C8
:1020E000B0040020D48F000008B5034B01221A7001
:1020F000024805F07BFE08BDE20F0020A495000019
:1021000008B50248FFF794FF08BD00BFA495000082
:1021100010B50C46084605F0AAFC0F2221460348DC
:1021200005F08DFE204605F0C6FC10BDA49500000C
:10213000014B01221A707047E30F002008B518B94F
:10214000084B00221A7008BD074B1B7823B141F2DF
:10215000883006F09EFEF6E7A420002104F0F4FC8F
:10216000F1E700BFE30F0020E40F002038B504467C
:102170000A4B01221A700A4B1B7803B938BD0020A4
:1021800003F0D6FC0028F9D0044B1B78002BF5D0C7
:10219000651E2046FFF7D2FF2C46F0E7E30F002034
:1021A000E40F00202DE9F04106460D4604270DE01E
:1021B0002A463146002003F057FC04461CE038460E
:1021C000FFF7D4FF1CBB164B1B7803B3154B1B78D2
:1021D000002BEDD1DFF850804FF0FF324FF0FF338E
:1021E000404604F005F82A463146002003F03CFC46
:1021F0000446404604F086F8002CE0D1084B1B78DA
:10220000002BDFD0013F3846FFF798FFDAE714B91B
:10221000034B1B7803B92C462046BDE8F08100BF74
:10222000E30F0020E40F00209801002008B5034BC5
:1022300001221A70024805F0D9FD08BDE40F002004
:10224000E095000008B50248FFF7F2FE08BD00BFA8
:10225000E095000010B50C46084605F008FC0F227A
:102260002146034805F0EBFD204605F024FC10BD97
:10227000E095000070B584B02C4B1C7D04F01F036A
:1022800001229A4061092A4B03EB8103D043BFF33B
:102290005B8F53E8001F01EA000543E80056002E5B
:1022A000F7D1BFF35B8F0A423DD004EB44039A00A1
:1022B000204B134493E8070004AB03E907001E4BCF
:1022C00063B105F017FF4FF02003EFF3118683F39E
:1022D0001288BFF36F8F194B1D680AE0002383F348
:1022E0001188BFF36F8FEEE72B460DB12B686BB1F2
:1022F0001D465DB1AA68002AF6D00C4B1B7D03EB8E
:10230000430399000B4B585C9047EDE786F3118827
:10231000BFF36F8F074804EB4404A2008118002329
:1023200083504B608B6004B070BD00BF8C0F0020E9
:10233000E4040020E8040020F5800000DC04002014
:10234000F0B589B00546554B1C7D04F01F030122F2
:102350009A406109524B03EB8103BFF35B8F53E853
:10236000001F41EA020043E80006002EF7D1BFF348
:102370005B8F0A4217D004EB44034A4A12F8233019
:10238000002B00F08880B5F1FF3F1CD104F0CAF8A3
:102390004FF02003EFF3118683F31288BFF36F8FA2
:1023A000414B1D682AE004EB44063E4B03EB8606D6
:1023B0006F462A462146384605F080FD97E807001B
:1023C00086E80700D7E704EB440302EB83039B682E
:1023D000590CD803354E364A002380194FF00006B9
:1023E00046EB0101FDF78CFE0121281A06F022FDC3
:1023F000CCE72B460DB12B686BB11D465DB16A6809
:10240000002AF6D0254B1B7D03EB4303254911F829
:1024100023009047EDE786F31188BFF36F8F04F038
:102420001F03012199406309224A02EB8303BFF392
:102430005B8F53E8002F0A4343E800200028F8D1BF
:10244000BFF35B8F04EB4403164A02EB830393E86C
:10245000070008AB03E90700174B0BB105F037FE87
:10246000FFF708FF04F05CFA012004F01F020123CB
:10247000934064090A4A02EB8404DB43BFF35B8F99
:1024800054E8002F1A4044E800210029F8D1BFF396
:102490005B8F09B0F0BD0020E7E700BF8C0F002084
:1024A000F4040020E8040020DC0400203F420F0078
:1024B00040420F00E4040020CF80000008B502482D
:1024C00004F040FE08BD00BFF4950000D0B108B58F
:1024D0004268042A05D0D2B1006803F013FF00203F
:1024E00008BD03680022BFF35B8F53E8001F01297A
:1024F00003D143E800200028F7D1BFF35B8F04D15C
:102500001046EDE76FF4E04070470248E8E7024804
:10251000E6E700BFE98FFFFFEA8FFFFF20B308B5B2
:102520004268042A02D092B911480FE003680122E0
:10253000BFF35B8F53E8001F002903D143E800205D
:102540000028F7D1BFF35B8F0CD1002008BD0068D5
:102550004FF0FF324FF0FF3303F04AFE0028F5D072
:102560000448F3E70348F1E76FF4E040704700BF29
:10257000EA8FFFFFE98FFFFF10B5044688B163685B
:10258000042B0DD0082B0BD053B113F0020F0DD03C
:102590002146094806F027FA0023236000236360E0
:1025A00010BD064B5B6806489847E8E714220021F7
:1025B000206805F06CFDF1E7F8040020E000002041
:1025C000FC95000010B5044678B16368042B0BD06D
:1025D000082B09D00BB9236863B1206806F096FA7E
:1025E000636843F00103636010BD0F4B5B680F48E5
:1025F0009847EAE74FF0FF324FF0FF3321460C488F
:1026000003F0B2FC08B923681BB9074B5B680948A3
:10261000984714220021206805F039FD636843F0D3
:1026200002036360D9E700BFE0000020FC950000D2
:10263000F80400202496000008B540231422044921
:10264000044806F0C2F90449044804F0DDFD08BD61
:1026500014050020F8040020649600005496000041
:10266000014910220A60704710ED00E072B6404048
:1026700080F31188BFF36F8FBFF34F8F30BF62B607
:10268000BFF36F8F704700BF72B6494081F3118866
:1026900020BF80F3118862B6704700BF70B582B06A
:1026A00004461F4D1F4BED1AED0801264FF00003A5
:1026B00066F302036FF3C50365F38F13ADF80030C3
:1026C0008368426801681848FFF716F94FF0000365
:1026D00066F302036FF3C50365F38F13ADF80030A3
:1026E00063692269E1681148FFF706F94FF00002BB
:1026F00066F302026FF3C50265F38F12E1690C48BD
:10270000FFF738F94FF0000266F302026FF3C502DB
:1027100065F38F12A1690748FFF72CF902B070BD6D
:10272000D49100009C91000078960000A8960000CB
:10273000D8960000E896000043B2002B08DB00F0BA
:102740001F005B09012202FA00F0024A42F823004E
:10275000704700BF00E100E04209054B53F822201A
:1027600000F01F00012303FA00F01040704700BF83
:1027700000E100E0013143B2002B08DB4901C9B29E
:1027800003F1604303F5614383F80013704700F0E1
:102790000F004901C9B2014B1954704714ED00E014
:1027A00030BFFFF7FDBF00BF08B50B4B0B4A22F04F
:1027B0007F029A60BFF34F8FBFF36F8FD3F88820EB
:1027C00022F47002C3F8882003F06CFB04F016FAC0
:1027D00000F0B6FC03F072FB00ED00E0000000002A
:1027E0000A4A9368C3F8A80009490968C3F8AC10FD
:1027F00008494B6843F080534B60002383F31188F2
:10280000BFF36F8F9368D3F8AC0070478C0F002034
:102810000C9E000000ED00E013498A684FF0300084
:102820001044EFF3098C80E8F01F202080F3128819
:10283000BFF36F8F0D4F4FF00066CA698A603E602C
:10284000D2F8A8000023C2F8A83080F3118804B59C
:10285000104600F017FDBDE8044002F1300090E89A
:10286000F01F8CF3098870478C0F002004ED00E006
:102870001EF0040F0CBFEFF30880EFF309808169AD
:1028800011F8021C0229FFD001B505F02CFB01BD97
:1028900010B4A2F120040D4921F0010142F8081CF6
:1028A00042F8203C019B42F81C3C029B42F8183C39
:1028B000039B42F8143C4FF0807342F8043C0465DB
:1028C0000023C0F8A83010BC704700BFC3770000D9
:1028D000164B9A68DAB110F1160F1AD010B4D2F86C
:1028E0009830A3F12004844205D8834208D98B4252
:1028F00008D8002100E0002131B9002010BC704749
:102900000021F9E70121F7E7D2F89800F6E7002067
:102910007047D2F898308B4294BF0021012109B949
:1029200000207047D2F89800704700BF8C0F00203D
:1029300008B50D461446084B986000F0A3FC2046ED
:1029400085F30988002163B681F31188BFF36F8F87
:102950000022002304F035FF8C0F002001B572B671
:102960000B4A906900281EBF0021916106F0B2F861
:1029700062B6EFF30580A0F110004FEAC0000549F0
:10298000014409C99847BDE80140034908470000D0
:102990008C0F00201C9000009D290000044B9968BA
:1029A000D869884203D003494FF080520A607047CB
:1029B0008C0F002004ED00E008B54E4B4E4A9B1AE8
:1029C000DB084FF00001012262F302016FF3C50141
:1029D00063F38F114948FFF73FF8494B9B6A13F0A7
:1029E000007F21D1464B9B6A13F0807F2DD1444B51
:1029F0009B6A13F4002F39D1414B9B6A13F4802F4B
:102A000045D13F4B9B6A13F4003F51D13C4B9B6A2D
:102A100013F4803F5DD13A4A936A6FEA03436FEA49
:102A200013439362002008BD324B334A9B1ADB08E4
:102A30004FF00001012262F302016FF3C50163F35D
:102A40008F113048FFF708F8CCE72A4B2A4A9B1A27
:102A5000DB084FF00001012262F302016FF3C501B0
:102A600063F38F112848FEF7F7FFC0E7214B224A96
:102A70009B1ADB084FF00001012262F302016FF3A1
:102A8000C50163F38F112148FEF7E6FFB4E7194B48
:102A9000194A9B1ADB084FF00001012262F3020180
:102AA0006FF3C50163F38F111948FEF7D5FFA8E74F
:102AB000104B114A9B1ADB084FF00001012262F310
:102AC00002016FF3C50163F38F111248FEF7C4FFD3
:102AD0009CE7084B084A9B1ADB084FF000010122D3
:102AE00062F302016FF3C50163F38F110A48FEF729
:102AF000B3FF90E7D49100009C910000189700006C
:102B000000ED00E03097000044970000609700005F
:102B100080970000A8970000C497000008B5002225
:102B20000A70084B08495B1ADB084FF000010120CE
:102B300060F3020162F3C50163F38F110348FEF7EE
:102B40008BFF08BDD49100009C910000F09700001D
:102B500070B505460E4614465E4B5F4A9B1ADB086D
:102B60004FF00001012262F302016FF3C50163F32C
:102B70008F115A48FEF770FF594B9B6A13F4805F20
:102B800024D1574B9B6A13F4006F30D1544B9B6A8E
:102B900013F4007F3CD1524B9B6A13F4806F65D1D4
:102BA0004F4B9B6A13F4807F71D14D4B9B6A13F49A
:102BB000005F7DD14A4A936A43F47F4393620121C7
:102BC000284605F0A2F92070002070BD414B424A12
:102BD0009B1ADB084FF00001012262F302016FF340
:102BE000C50163F38F113F48FEF736FFC9E7394B44
:102BF000394A9B1ADB084FF00001012262F30201FF
:102C00006FF3C50163F38F113748FEF725FFBDE76A
:102C1000304B314A9B1ADB084FF00001012262F36E
:102C200002016FF3C50163F38F113048FEF714FF03
:102C30002B4B996B9B6A13F4004FACD0254B264A63
:102C40009B1ADB084FF00002012060F302026FF3D1
:102C5000C50263F38F122648FEF78CFE002E9AD031
:102C60001F4A936A23F40043936294E7194B1A4A6C
:102C70009B1ADB084FF00001012262F302016FF39F
:102C8000C50163F38F111B48FEF7E6FE88E7114B81
:102C9000114A9B1ADB084FF00001012262F3020186
:102CA0006FF3C50163F38F111348FEF7D5FE81E77B
:102CB000084B094A9B1ADB084FF00001012262F31E
:102CC00002016FF3C50163F38F110C48FEF7C4FED8
:102CD00070E700BFD49100009C91000014980000A0
:102CE00000ED00E02C98000040980000549800008F
:102CF0007098000088980000A4980000BC9800001C
:102D0000F8B505460C461646644B654A9B1ADB0827
:102D10004FF00001012262F302016FF3C50163F37A
:102D20008F116048FEF798FE5F4B9B6A13F0100FFF
:102D300032D15D4B9B6A13F0080F3ED15A4B9B6A10
:102D400013F0020F4AD16FF01507574B9B6A13F02F
:102D5000010F75D1544B9B6A13F0200F40F0818016
:102D6000514B9B6A13F0100F04D14F4B9C6A14F027
:102D7000020405D04C4B5C6814F4006440F082807F
:102D8000494A936A43F0FF0393620121284605F004
:102D9000BCF830702046F8BD404B414A9B1ADB0816
:102DA0004FF00001012262F302016FF3C50163F3EA
:102DB0008F113E48FEF750FEBBE7384B384A9B1A4E
:102DC000DB084FF00001012262F302016FF3C5013D
:102DD00063F38F113648FEF73FFEAFE72F4B304AC3
:102DE0009B1ADB084FF00001012262F302016FF32E
:102DF000C50163F38F112F48FEF72EFE2A4B5F6B40
:102E00009B6A13F0800F02D16FF015079DE7234BEB
:102E1000234A9B1ADB084FF00002012161F30202F2
:102E20006FF3C50263F38F1239462348FEF7A2FD04
:102E3000002C8AD01C4A936A23F08003936284E7B3
:102E4000164B174A9B1ADB084FF00001012262F370
:102E500002016FF3C50163F38F111848FEF7FCFD03
:102E600078E70E4B0E4A9B1ADB084FF00001012257
:102E700062F302016FF3C50163F38F111048FEF78F
:102E8000EBFD6DE729463846FFF722FD0446002892
:102E90003FF476AF80F30988022471E7D4910000F3
:102EA0009C910000EC98000000ED00E00499000007
:102EB000409800003899000050990000689900007F
:102EC000BC98000070B505460C46474B474A9B1A14
:102ED000DB084FF00001012262F302016FF3C5012C
:102EE00063F38F114248FEF7B7FD00232370414B77
:102EF000DE6A16F0020609D13E4BDB6A002B17DBB7
:102F00003C4BD86A10F0804024D170BD364B374A14
:102F10009B1ADB084FF00001012262F302016FF3FC
:102F2000C50163F38F113448FEF796FD0020ECE7EE
:102F30002D4B2E4A9B1ADB084FF00001012262F351
:102F400002016FF3C50163F38F112C48FEF784FD76
:102F50003046DAE7244B254A9B1ADB084FF0000184
:102F6000012262F302016FF3C50163F38F1124485C
:102F7000FEF772FDAB6933F8022C4DF602739A42EC
:102F80000ED003F1604303F626631B78DBB91D4BBB
:102F90001B78F3B91C4B1B889BB203BB3046B4E7CC
:102FA000114B124A9B1ADB084FF00002012161F31A
:102FB00002026FF3C50263F38F1229681348FEF70C
:102FC000D9FC2868A1E7224601212846FFF798FE90
:102FD0009BE7224601212846FFF7BAFD95E72846E0
:102FE000FFF7EAFC91E700BFD49100009C9100003C
:102FF0008899000000ED00E0A0990000C49900004D
:10300000D499000029ED00E02AED00E0F4990000D9
:1030100008B50A460B480C4BC01AC0084FF0000315
:10302000012161F302036FF3C50360F38F130F2ACD
:1030300005DC0649103A0648FEF7D2FC08BD0549F2
:10304000F8E700BFD49100009C910000109A0000A6
:10305000449A0000289A000070B58AB02B4B5D6836
:10306000C5F30805002383F31188BFF36F8F02F0C7
:103070007F43B3F17F4F2AD102F00C03082B10D00D
:1030800012F0080F20D00C4600260DF12702294629
:10309000204604F03CFF05469DF82730D3B10AB026
:1030A00070BD1B4B1B4A9B1ADB084FF0000101222D
:1030B00062F302016FF3C50163F38F111648FEF747
:1030C000CBFC00263446E0E704460126DDE7002677
:1030D0003446DAE72022214601A804F0B4FF4EB1BD
:1030E000089BC3F308025AB96FEA53236FEA4323DC
:1030F000089305E0089B23F4FF7323F00103089372
:1031000001A9284604F0E3FEC9E700BF00ED00E096
:10311000D49100009C910000589A0000024A536923
:1031200043F010035361704700ED00E0EFF30880B7
:10313000EFF3098101B57246FFF78EFF01BD00BFB5
:10314000002206E002F00F01094B0B442021197602
:1031500001322F2A0ADC53B2002BF3DB03F1604368
:1031600003F56143202183F80013F1E7704700BFA6
:10317000FCEC00E0002080F31488BFF36F8F05F0B3
:10318000B7FE00200D490860BFF34F8F0C4880F355
:10319000088800F029F8202080F3118809484FF4AE
:1031A0000261401880F30988EFF31480022108437C
:1031B00080F31488BFF36F8FFFF7F6FA94ED00E009
:1031C000E0180020601A0020064B1868C0F30720A2
:1031D0000023834205DA034A936000211161013321
:1031E000F7E7704790ED00E010B572B6002484F365
:1031F0001388FFF7E9FF234608E003F120010E4A98
:103200004FF0FF3042F821000133DBB2072BF4D935
:10321000002308E003F16001074A4FF0FF3042F855
:1032200021000133DBB2072BF4D962B6BFF34F8F15
:10323000BFF36F8F10BD00BF00E100E008B5084B81
:103240009B68834202D003F0B1FC08BDEFF3058315
:10325000002BF8D0034A536843F080535360F2E7E1
:103260008C0F002000ED00E008B5034B034A01215C
:10327000034804F0A1FE08BD000004200000002067
:10328000889A000008B5D0F89830203B04480360C5
:1032900020234360034B8360012104F091FE08BDAD
:1032A000140A002000000B15064A90600B6823F0FA
:1032B0001F03034343F01003D3608B6843F0010303
:1032C0001361704790ED00E010B50446072803D85D
:1032D000FFF7EAFF204610BD094B0A4A9B1ADB089C
:1032E0004FF00002012161F302026FF3C50263F3A4
:1032F0008F1201460448FEF73DFB6FF01500EAE728
:10330000CC9100009C910000949A00002DE9F047B8
:1033100080460F469A461646002409E02946F0B238
:1033200004F02BFE064610F1160F25D001360134AD
:10333000BC4221DA04EB440508EB85056A68002AE3
:10334000F5D0BAF1000FE9D0284604F005FE0028B8
:10335000E4D10B4B0B4A9B1ADB084FF00002012112
:1033600061F302026FF3C50263F38F122146064830
:10337000FEF700FB6FF015063046BDE8F08700BF92
:10338000CC9100009C910000BC9A000010B5034C49
:1033900001232278FFF7BAFF207010BDE50F00204F
:1033A00008B50023084A1278FFF7B0FF10F1160F96
:1033B00008D00346072B05DC044A93600021116105
:1033C0000133F7E708BD00BFE50F002090ED00E0F6
:1033D000034B05225A60BFF34F8FBFF36F8F7047C7
:1033E00090ED00E0BFF35F8F014B00225A60704701
:1033F00090ED00E038B50E4B1D68082D15D8FFF78D
:10340000F1FF0024A5420AD9094B596804EB440294
:10341000930019442046FFF747FF0134F2E7054BBC
:103420001D70FFF7D5FF002038BD4FF0FF30FBE7E0
:10343000F09A0000E50F0020014B1860704700BFB4
:1034400028000020064B1B68064A1268082B01D092
:1034500000207047022A01D00020704701207047E9
:10346000300100103401001010B54FF02003EFF3CD
:10347000118483F31288BFF36F8F01230B4AC2F8C4
:1034800040354FF08042C2F87835FFF7DBFF10B1CE
:10349000074B01221A604FF080430122C3F88025B8
:1034A00084F31188BFF36F8F002010BD00E001404E
:1034B00038060040C0B24FF08043C3F81C05BFF38C
:1034C0004F8F0549CA6802F4E062044B1343CB6096
:1034D000BFF34F8F00BFFDE700ED00E00400FA05E9
:1034E00030B108B58001034B43F00103984708BD94
:1034F000704700BFA092000000487047700A00208B
:10350000034BC01A8010034B03FB00F0704700BF51
:10351000300A0020B76DDBB638B505460C46FFF71C
:10352000EFFF01464022034804F068FE01462846AA
:10353000A04738BD748F000030B583B005460C46F7
:10354000FFF7DEFF0146402300932346054A064865
:1035500004F06EFE011E01DB03B030BD2846A0471B
:10356000FAE700BF79820000748F000008B510B13F
:1035700001280DD008BD0021084804F0C6FD83686D
:1035800013F0070FF6D10021044804F025FEF1E7FF
:103590000121024804F020FEECE700BF748F000018
:1035A00010B54FF02003EFF3118483F31288BFF3BB
:1035B0006F8F134A136843F00203136013F0010F77
:1035C00008D1002384F31188BFF36F8F9BB904F0F7
:1035D0005BFE10BD4FF08043D3F80C24D3F80C34BD
:1035E00012F0010F01D10023ECE7FFF785FF04F093
:1035F000E0FD0123E6E70021024804F0EDFDE8E7E5
:10360000800A0020748F000008B50A4BBFF35B8F5F
:1036100053E8002F22F0020143E800100028F7D100
:10362000BFF35B8F12F0010F00D008BD04F036FE2F
:10363000FBE700BF800A002000B585B0CDF800D0C0
:10364000CDF804D000230293012303936B46074A6D
:1036500004F00AFE002805DB4FF480420023684690
:1036600002F0B8FE05B05DF804FB00BFB1820000B7
:1036700070B50646002201211046FFF77BF80020B6
:10368000FFF75AF8114801F0ADFA114B98421AD1E0
:1036900005F005F9002403E00123AB601C44E4B20B
:1036A000012C0ED82146304604F02FFD0546214658
:1036B000304604F037FD074904F00BF80028EBDA38
:1036C00000E0002070BD6FF00400FBE76D350000E6
:1036D0000000AD0B6C9B000070B50546012807D1BA
:1036E0004FF08043D3F81C3403F00303012B58D070
:1036F00005F0B7F928B92E4B1B78002B41D00023D9
:1037000000E001231C46002B3DD04FF02003EFF3D7
:10371000118683F31288BFF36F8F24B94FF0804373
:103720000222C3F808234FF08042D2F8183403F085
:103730000303D2F8182412F4803F2BD100221AB1CF
:10374000012B29D0012D27D0FCB13046FEF79CFF7C
:103750004FF08043D3F81835002BE4D1154B1B688C
:10376000002BE0D0134B00221A601B6801234FF09E
:103770008042C2F81835104AC2F880310F4A1360EF
:10378000D1E70123BEE70026C7E72120002103F08F
:10379000DBF9DDE70122D2E724B186F31188BFF31C
:1037A0006F8F70BD4FF080430222C3F80423F8E707
:1037B000E60F00200401004000E100E008000040A6
:1037C00010B50446104B0121BFF35B8F53E8002F67
:1037D00043E800100028F9D1BFF35B8F1AB1631ED4
:1037E000012B0CD910BD094804F09CFC08490023AA
:1037F0004B60CB6001238B6003F087FFEFE720462F
:10380000FFF76AFFEEE700BF840A0020748F000014
:10381000200A002010B504460A2807D0074B186874
:10382000E1B283685B689847204610BD034B186877
:1038300083685B680D219847F0E700BF880A002085
:1038400010B5044C2046FFF7F7FD2046FCF7F8FFC3
:1038500010BD00BF1538000008B50648064B1860BB
:1038600005F08FF818B1FFF7EBFF002008BD6FF0EF
:103870001200FBE7D48F0000880A00201F4B034092
:103880001F4A934232D016D8062B2BD006D9B3F557
:10389000801F0DD101230B7000207047FBB1022B5C
:1038A00003D104230B70002070476FF015007047A0
:1038B0006FF015007047134A93421BD0B3F5A00F69
:1038C00003D103230B7000207047B3F5800F03D1A1
:1038D00002230B70002070476FF015007047002026
:1038E0000870704706230B700020704707230B7089
:1038F0000020704705230B70002070470600F00081
:10390000060010000200400028B1012801D1034840
:103910007047002070470248704700BF8C8F00003E
:10392000A48F0000F0B585B00E46194643681B7B96
:1039300006F01F0545EA4315B2F5005F22D00746A1
:103940001446002302930393104604F0E9FC8DF81B
:1039500008007B689968F14011F0010F02D1B4F5BD
:10396000A03F14D0002302AA1946284601F054FCB7
:103970001B4B984231D10121284601F025FE002041
:1039800005B0F0BD284601F083FE0020F8E705F001
:103990001F036A09012A14D04FF0A04203F5E07317
:1039A00052F8233013F0010FDCD10DF10701284646
:1039B00001F0AEFD0B4B984205D00DF107030393C8
:1039C000D0E7094AEAE70DF1070001F0F5FD044BE5
:1039D0009842F2D06FF00B00D2E76FF00400CFE70F
:1039E0000000AD0B0400AD0B0003005030B583B0F8
:1039F00004460DF1070101F08BFD0546204601F05C
:103A000077FE0B4B98420FD19D4205D0084B984250
:103A100007D1002003B030BD9DF8070001F0C4FDC0
:103A2000F4E76FF00400F5E76FF00400F2E700BF81
:103A30000000AD0B2DE9F04387B0D0F8048098F872
:103A40000C3001F01F0545EA4315002A44D00C460E
:103A500017460026039604960DF11701204601F043
:103A600057FD8146334603AA3146284601F0D4FB70
:103A7000304B98425BD1994536D017F4007F43D044
:103A80000DF103013846FFF7F9FE064640BB9DF8ED
:103A900003308DF8043017F4807F0CBF012300231E
:103AA0008DF80530384604F008FC8DF8060017F450
:103AB000006F1ED0D8F80430012101FA04F4C3F8D5
:103AC0000845002201A9284601F05CFC194B9842E8
:103AD00006D06FF0150603E02846FFF787FF06467D
:103AE000304607B0BDE8F0839DF8170001F05CFD9B
:103AF000C3E717F4806FE4D0D8F80420012303FA59
:103B000004F4C2F80C45DCE7384604F0D6FB8DF827
:103B1000080000231A4602A9284601F07DFB054B48
:103B2000984201D10026DBE76FF01506D8E76FF069
:103B30001506D5E70000AD0B08B501F02BFD08B167
:103B4000002008BD01F0FCFC084B98420AD100217E
:103B5000074801F0D7FC002205210620FEF70AFEE7
:103B60000020EEE76FF00400EBE700BF0000AD0BB4
:103B7000B18300002DE9F04F89B0406804688C42A1
:103B80006DD90024D3185BD2002C6BD100264FF4E2
:103B90007A74A3FB04349A46002C53D1002E64D1CE
:103BA00000234FF47A76A2FB0645CDE90245002DAD
:103BB0004AD1002B5CD143680A0103EB01119E58E6
:103BC000D1F8048091F80C90B3685B6806AA41466E
:103BD00030469847002839D1069D079F5146AAFBD9
:103BE00005AB07FB01BB244A002350465946FCF7AE
:103BF00087FA05904FF0FF32204B5B4508BF5245D6
:103C000027D3DDE90212A1FB054507FB01551A4A3E
:103C1000002320462946FCF773FA03464FF0FF3095
:103C20001649A94208BFA04216D3B2681468CDF85D
:103C30000090059A41463046A04709B0BDE8F08F94
:103C40000124A1E70126A9E70123B2E76FF00400F0
:103C5000F3E76FF08500F0E76FF08500EDE76FF0B8
:103C60001500EAE76FF01500E7E76FF01500E4E7ED
:103C70006FF01500E1E700BF40420F003F420F0028
:103C800070B5064645682B680BB1002414E01A4B4A
:103C90001A4A9B1ADB084FF00002012161F302026D
:103CA0006FF3C50263F38F1201681548FDF762FEDA
:103CB0006FF012001FE001342B689C421ADA6A6828
:103CC0002301D05804F05DFE0028F4D10A4B0B4AC2
:103CD0009B1ADB084FF00002012161F302026FF32F
:103CE000C50263F38F1231680648FDF743FE6FF09B
:103CF000120000E0002070BDAC9100009C9100001B
:103D0000CC9B0000F89B000002480021C2E90001A2
:103D1000002070470024F40070B50E4619460024B8
:103D200001E00134E4B2032C1BD89442F9D006EB35
:103D30004405AD88C5F30E05002DF2D01E4B1F4A79
:103D40009B1ADB084FF00001012262F302016FF3BE
:103D5000C50163F38F111A48FDF77EFE6FF0150061
:103D60001BE00C460022B4F5004F17D36408013263
:103D7000D2B2072AF7D9104B104A9B1ADB084FF032
:103D80000002012060F302026FF3C50263F38F1299
:103D90000C48FDF7EFFD6FF0150070BD3160B27398
:103DA000A4B2B4810368817BC3F80C25C3F8041561
:103DB000C3F808450020F0E7E49100009C91000062
:103DC000509C0000689C00002DE9F84F99469DF832
:103DD000283045680769002B40F0AD8088461646BC
:103DE00005F1080004F012FB044604280CD0394603
:103DF00004F01DFBE0B93946204604F027FB0028FB
:103E00003DD14FF0010A15E04D4B4E4A9B1ADB089D
:103E10004FF00002012161F302026FF3C50263F368
:103E20008F1241464848FDF7A5FD6FF0150055E09B
:103E30004FF0000AAB7B012B24D016B13B68B34294
:103E400024D1B3464E4528BFCB4607EB44018B88AF
:103E500003F40043BA7B2BFA02F213438B803946FA
:103E6000204604F0E4FA002854D12B1993F90820D5
:103E7000BBF1000F15D1002A11DB012312E04FF036
:103E8000000AD7E776084FEA5909D6E733462246B3
:103E900039462846FFF740FF0028D2D01EE0002315
:103EA00000E000234E4503D8002A19DB002200E081
:103EB000002203B9C2B108F01F024FEA5818B8F146
:103EC000010F0FD04FF0A04101239340C1F80C35F2
:103ED0003946204604F0BAFAB0B10020BDE8F88FA8
:103EE0000122E6E71949EFE708F01F024FEA5818E8
:103EF000B8F1010F06D04FF0A04101239340C1F863
:103F00000835E5E71149F8E70021284604F018FDD7
:103F10000020E3E7BAF1000F10D0284601F058FD69
:103F20000028FAD00223012205F11801284601F0E9
:103F30000DFD0020D2E76FF08500CFE70020CDE730
:103F4000E49100009C910000949C0000000300504C
:103F500038B5044640682569002304E0002105EBDC
:103F6000430291800133032B07D8C21892F908202D
:103F7000002AF3DB4FF40041F1E700231A4600F179
:103F8000080101F07FFC0C4B984201D1002038BDA4
:103F90000A4B0B4A9B1ADB084FF00002012161F328
:103FA00002026FF3C50263F38F1221680548FDF723
:103FB000E1FC6FF00F00EAE70000AD0BE4910000B8
:103FC0009C910000C89C000010B4436800297ED179
:103FD000DA68B2F1FF3F17D002F01F015209012A3F
:103FE00065D04FF0A04001228A40C0F80825DA6869
:103FF00002F01F015209012A5BD04FF0A04001F5E9
:10400000E072032140F822101A69B2F1FF3F0FD08D
:10401000197F00294FD0032002F01F015209012A05
:104020004BD04FF0A044800001F5E07244F822002C
:104030005A69B2F1FF3F17D002F01F015209012A5D
:104040003DD04FF0A04001228A40C0F808255A69AF
:1040500002F01F015209012A33D04FF0A04001F5B0
:10406000E072032140F822109A69B2F1FF3F0ED0AE
:10407000597F41B3032002F01F015209012A24D0C5
:104080004FF0A044800001F5E07244F822001A6865
:10409000D8681969C2F80C05C2F814151A6859696C
:1040A0009B69C2F80815C2F8103510BC70472C483F
:1040B00099E72B48A3E70020AEE7294CB3E728484F
:1040C000C1E72748CBE70020D5E7254CDAE7DA68D7
:1040D000B2F1FF3F0BD002F01F015209012A37D085
:1040E0004FF0A04001F5E072022140F822101A6959
:1040F000B2F1FF3F0BD002F01F015209012A29D073
:104100004FF0A04001F5E072022140F822105A69F8
:10411000B2F1FF3F0BD002F01F015209012A1BD060
:104120004FF0A04001F5E072022140F822109A6998
:10413000B2F1FF3FABD002F01F015209012A0DD0AE
:104140004FF0A04001F5E072022140F822109EE7F6
:104150000348C7E70248D5E70148E3E70048F1E72D
:104160000003005043681A68B1F5164F6FD03AD873
:10417000B1F5165F6ED00AD9B1F5E14F75D024D9EB
:1041800047F6122399422BD14FF4000313E0B1F507
:10419000966F61D007D9B1F5166F63D0B1F5965F10
:1041A00010D13C4B07E0B1F5967F58D0B1F5167FA2
:1041B00005D14FF41C33C2F82435002070476FF04E
:1041C000150070476FF015007047B1F5615F4ED074
:1041D000B1F5964F01D1304BEDE76FF01500704708
:1041E0006FF015007047B1F5613F42D009D9B1F5C4
:1041F000612F46D01FD9294B994248D14FF08053A7
:10420000D9E7B1F5963F37D005D9B1F5E13F0FD1E8
:104210004FF0EB73CFE74DF6C02399422ED0B1F5A6
:10422000614F02D14FF46B03C5E76FF01500704783
:104230006FF0150070471A4B994225D0B1F5E12F68
:1042400002D14FF0E863B6E76FF0150070474FF406
:104250001D03B0E7134BAEE74FF49E23ABE74FF4DB
:10426000A033A8E74FF41D23A5E70F4BA3E70F4B9F
:10427000A1E74FF06C739EE70D4B9CE74FF465038D
:1042800099E74FF0706396E74FF0806393E76FF024
:104290001500704700B0130000A04E0040420F0010
:1042A00090D003000050270000C0750000F03A00D5
:1042B00000903A012DE9F04105460F46D0F81080F4
:1042C00004F0CFFB20B9164B1B78ABB1002300E004
:1042D00001239BB14FF02003EFF3118483F3128885
:1042E000BFF36F8F2646284604F06CF950B984F36B
:1042F0001188BFF36F8FEDE70123EAE7284604F04A
:10430000B0F90646414601F8107F0122284604F024
:1043100073F986F31188BFF36F8FBDE8F08100BF9A
:10432000E60F002038B504460D4601F1120001F0F9
:1043300033FA144B984211D1AB7C04F590710C34D4
:10434000114AA23342F8331002EBC3035C60A97C2C
:1043500001238B40C2F80435002038BD0B4B0C4ABA
:104360009B1ADB084FF00001012262F302016FF398
:10437000C50163F38F110748FDF76EFB6FF0040072
:10438000EBE700BF0000AD0B00F00140F49100002E
:104390009C9100002C9D000021F07F4100F5A87049
:1043A000014B43F8201070470010014000F5A87041
:1043B000014B53F820007047001001404FF4803348
:1043C0008340024AC2F84433704700BF00100140E6
:1043D0004FF480338340024AC2F84833704700BF2D
:1043E00000100140014BD3F8040570470010014054
:1043F00010B501238340DC43104ABFF35B8F52E8C2
:10440000001F01EA040C42E800CEBEF1000FF6D115
:10441000BFF35B8F4FF4803202FA00F002F180426A
:1044200002F58052C2F80803BFF35F8FBFF36F8FAE
:104430000B4214BF0120002010BD00BFB80A0020AD
:1044400070B5044604F0B0F905464FF48033A3403C
:10445000174AD2F80423134205D10026284604F057
:10446000ACF9304670BD0123A340DB43114ABFF3D2
:104470005B8F52E8001F01EA030042E80006002EAD
:10448000F7D1BFF35B8F59B904F150039B009BB286
:1044900003F1804303F588331B6813B1012300E067
:1044A00001231E46002BD9D0204604F06EF9D5E733
:1044B00000100140B40A002001B970470123834075
:1044C000114ABFF35B8F52E8001F194342E8001CFA
:1044D000BCF1000FF7D1BFF35B8F4FF48033834003
:1044E0000A4AC2F80433BFF35B8F094B1B68BFF362
:1044F0005B8F23FA00F010F0010FDED0054B4FF474
:104500000032C3F80021D8E7B80A002000100140AB
:10451000B40A002000E100E0F8B5074614461E4644
:104520001046194604F03DF90546154B1A68A01AC5
:104530001C605E60A5F50013B3F5400F08D300249E
:1045400002F068FC3846FFF731FFA8420CD0F8BDF6
:104550000C4B19680B0A0A06521943F100030A4969
:10456000C1E900230124EBE71CB13846FFF726FF21
:10457000EDE74FF400013846FFF70EFFF5E700BF07
:10458000D0020020BC0A0020B802002038B50D4B34
:104590001B681D0A1C06BFF35F8FFFF723FF03464E
:1045A000201845F10001B3F5801F0AD2064BD3E96C
:1045B0000023994208BF904203D210F1807041F16C
:1045C000000138BDBC0A0020B80200202DE9F843E4
:1045D000064614461D461046194604F0E2F8074602
:1045E000FFF7D4FFA94208BFA0421ED2B4EB0008D7
:1045F00065EB01094FF0807200234B4508BF42452F
:104600002ED3194B03EB0613D3E90223AB4208BFA9
:10461000A24218D03946304604F0D4F8394604F0A6
:10462000B0F8241845F100050DE00123B3400F4A0E
:10463000BFF35B8F52E8001F194342E800100028C7
:10464000F8D1BFF35B8F084B320103EB0616C6E9C6
:10465000024508999950099B73600020BDE8F883D2
:104660006FF01500FAE700BFC0020020B40A002076
:1046700030B583B000231E4AC2F80835002B25DD73
:104680001B4C0225C4F804531A4B4FF40032C3F8F4
:104690008021002201211120FEF76CF81120FEF785
:1046A0004BF80123144A13602360144A136000245A
:1046B0000194134B0093134A0023204604F0BDF8E5
:1046C0002846FFF77DF8204603B030BD0E4A02EBC6
:1046D00003124FF0FF304FF0FF31C2E902014FF4F7
:1046E00080329A400249C1F804230133C6E700BF73
:1046F0000010014000E100E008100140B80A00206D
:1047000019450000FFFF7F00C00200202DE9F0479F
:1047100082B00446FFF794FE10B902B0BDE8F087FE
:10472000FFF734FF06460F4604F03EF88246134B6F
:1047300003EB0413D3E902894F4508BF46450BD26A
:104740000026504604F039F8002EE6D00095424687
:104750004B462046B047E0E7084A230102EB04112C
:10476000D6584D680020D0504FF0FF324FF0FF3345
:10477000C1E902232046FFF72BFEE2E7C00200203A
:1047800010B50D4BD3F8043313F0020F0AD00B4BC6
:104790001B683BB1094B00221A601B68084A13686A
:1047A000013313600024002C00DD10BD2046FFF70C
:1047B000ADFF0134F7E700BF0010014004110140D4
:1047C000BC0A002010B582B0B0F1FF3F07D0441EF4
:1047D000002C07DD114B9C4205DD114C03E000F578
:1047E0000000F4E70024FFF7D1FE0E4BD3E90023CD
:1047F000801AB0F5000F00D3002404440134B4F54E
:10480000000F00D3064C00200190074900911219B7
:1048100043F1000304F011F802B010BDFEFF7F0069
:10482000FFFF7F00D00200201945000008B5FFF708
:10483000ADFE024B1B68C01A08BD00BFD0020020AD
:1048400008B5FDF739F9094B094A9B1ADB084FF007
:104850000001012262F302016FF3C50163F38F11BE
:104860000448FDF7F9F80020FEF724FEA4910000AB
:104870009C910000C09D0000034B1B68082B01D0D9
:10488000002070470120704730010010034B1B6867
:10489000082B01D000207047012070473001001024
:1048A000084B1A6804331B68082A01D0002070479F
:1048B000002B04D8DFE803F001000120704700203E
:1048C000704700BF30010010084B1A6804331B68A2
:1048D000082A01D000207047002B04D8DFE803F03D
:1048E0000100012070470020704700BF3001001018
:1048F000084B1A6804331B68082A01D0002070474F
:10490000002B04D8DFE803F00100012070470020ED
:10491000704700BF30010010084B1A6804331B6851
:10492000082A01D000207047002B04D8DFE803F0EC
:104930000100012070470020704700BF30010010C7
:10494000034B1B68082B01D00020704701207047E3
:1049500030010010064B1B68064A1268082B01D074
:1049600000207047042A01D80020704701207047BA
:104970003001001034010010024BD3F80034002B3A
:10498000FAD0704700E0014008B5034BC3F80405B6
:10499000FFF7F2FF08BD00BF00E00140014B024AF3
:1049A0001A607047540000200090D00338B5FFF71C
:1049B00063FF40B14FF080430022C3F80C21C3F8DD
:1049C0001021C3F83825FFF761FF002846D04FF0CB
:1049D0008052D2F80414564BC3F82015D2F80814AC
:1049E000C3F82415D2F80C14C3F82815D2F8101403
:1049F000C3F82C15D2F81414C3F83015D2F81814D3
:104A0000C3F83415D2F81C14C3F84015D2F820149A
:104A1000C3F84415D2F82414C3F84815D2F8281462
:104A2000C3F84C15D2F82C14C3F85015D2F8301432
:104A3000C3F85415D2F83414C3F86015D2F83814FA
:104A4000C3F86415D2F83C14C3F86815D2F84014C2
:104A5000C3F86C15D2F84424C3F87025FFF720FF83
:104A600010B1344B344A1A60FFF72EFF18B1334BA4
:104A7000FB22C3F81825FFF73BFF48B130490B680C
:104A800023F00F032F4A126802F00F0213430B604A
:104A9000FFF742FF18B12C4B4FF400721A60FFF77A
:104AA0004FFF60B14FF08043D3F8003413F0010F93
:104AB00005D04FF080436FF00102C3F80024FFF7E8
:104AC00049FF38B14FF01023D3F808224FF080434C
:104AD000C3F858254FF01023D3F80032002B08DB21
:104AE0004FF01023D3F80432002B02DBFFF756FF00
:104AF00038BD0120FFF748FF4FF010241225C4F8FD
:104B00000052FFF739FFC4F80452FFF735FF0020C9
:104B1000FFF73AFFBFF34F8F0C49CA6802F4E06217
:104B20000B4B1343CB60BFF34F8F00BFFDE700BFBC
:104B300000C000408C5600404881030000F0004057
:104B4000E40E0040580200104096024000ED00E0E4
:104B50000400FA0530B40468B4FA84F3D3F11F03F7
:104B600015D401229A4024EA0202BFF35B8F50E879
:104B7000005FA54204D140E8002CBCF1000FF6D143
:104B8000BFF35B8FE7D10B70024830BC704702481F
:104B9000FBE700BF0000AD0B0200AD0B10B40368D3
:104BA0000C4623FA01F111F0010F14D10268012320
:104BB000A3401343BFF35B8F50E8001F914204D121
:104BC00040E8003CBCF1000FF6D1BFF35B8FEDD1A4
:104BD000024810BC70470248FBE700BF0000AD0B65
:104BE0000400AD0B064B1B793BB9054B1860012245
:104BF0001A7100225A71034870470348704700BF7A
:104C0000C00A00200000AD0B0C00AD0B10B1012854
:104C100025D070474FF08042D2F8183403F00303D8
:104C2000D2F8182412F4803F11D14FF080430022B3
:104C3000C3F818250F4B00221A601B684FF0804301
:104C40000222C3F80423083301221A607047012BA3
:104C5000EBD14FF080430122C3F81825EAE7064B59
:104C600000221A601B684FF080430122C3F804231E
:104C70001A607047040100400001004030B583B065
:104C8000044618B1012813D003B030BD4FF0804363
:104C90000222C3F8082303F5827300221A601B68FE
:104CA000394B01221A60012C0FD042F2107552E0EC
:104CB00001234FF08042C2F8083302F580720021D0
:104CC00011601268314A1360EDE701238DF8073057
:104CD00042F2107518E04FF08042D2F8183403F019
:104CE0000303CDF80730D2F8183413F4803F20D1F5
:104CF0000023002B42D09DF80730012B3ED101202C
:104D000003F0C9FD013D39D0002CE4D0012C01D0C5
:104D10000023EEE74FF08042D2F80C3403F0010399
:104D20008DF80730D2F80C3413F4803F03D1002300
:104D3000DFE70123DDE70123DBE74FF08043D3F812
:104D4000183413F4803F15D10023BBB1012003F0C8
:104D5000A2FD013D12D0002CEFD0012C01D0002388
:104D6000F3E74FF08043D3F80C3413F4803F03D1C2
:104D70000023EAE70123E8E70123E6E7012C83D1DA
:104D8000034B00225A717FE70C00004004000040F2
:104D9000C00A002008B51B4B1B6883B1194B0022C9
:104DA0001A601B684FF080430122C3F80823164B9A
:104DB0005B7923B9144B5A711B6800209847134B39
:104DC0001B689BB1114B00221A601B684FF0804397
:104DD000D3F81824D3F8183412F0030F07D10123A5
:104DE0004FF08042C2F818350832136008BD4FF00A
:104DF00080430222C3F80823034B1B680120984715
:104E0000F4E700BF00010040C00A00200401004098
:104E10000830034B33F8100000F00100704700BF6A
:104E2000580000200830034B33F81000C0F3401046
:104E3000704700BF580000200830044B33F81000C2
:104E400010F01C0018BF0120704700BF5800002060
:104E50000830034B33F81000C0F34000704700BF28
:104E6000580000200830024B33F81000400B704708
:104E700058000020002204E04FF0FF3383420FD09F
:104E800001322F2A0AD802F10803064931F81330FB
:104E900013F4807FF0D0C3F34323EFE70020704783
:104EA0000120704758000020002313B14FF0FF305D
:104EB0007047074A52F83320824201D00133F4E7A9
:104EC000034A02EBC30252688A42F7D11846704780
:104ED000580000200830064B33F8100010F4807F93
:104EE00004D0C0F3432003EBC0007047002070479C
:104EF0005800002070B504460D46FFF7EBFF20B1C7
:104F00000668426829462046B047044B9B6823B197
:104F1000024AD26829462046984770BD58000020B2
:104F200070B504460D461646084603F0D9FCD0B9C4
:104F3000022E3ED0022004F01F02610901293AD05E
:104F40004FF0A04102F5E07251F8223023F44033D3
:104F500043EA004341F82230032D30D0022E2CD0FA
:104F6000032E31D070BD29462046FFF7C3FF04F061
:104F70001F036409012C1AD04FF0A04103F5E07221
:104F800051F82220C2F301429642EBD103F5E073BF
:104F900051F8232022F4403241F8232051F82320F5
:104FA00022F4403242EA064641F82360DAE7084933
:104FB000E4E70320BFE70649C4E7012DD0D1294625
:104FC0002046FFF797FFCDE7022DCBD1F7E700BFD3
:104FD0000003005010B483B00446124B93E8030062
:104FE00002AB03E90300204600230BE002AA02EB18
:104FF000830252F8082CD2F8201540F8041BC2F89E
:1050000020150133012BF1D90023012B04D854F8CA
:1050100023202AB90133F8E7002003B010BC704701
:105020000120FAE79092000000F108020E4B33F8DD
:10503000123013F4807F16D010B5C3F3432410460A
:1050400023F4F853084A22F810302046FFF712FFE5
:1050500000B110BD0448002340F8343021467430BC
:10506000FFF79CFDF5E770475800002010B5044697
:10507000FFF7D8FE40B12046FFF7F4FE00F5A2701E
:10508000064B002243F820202046FFF7CDFF0834CE
:10509000034B002223F8142010BD00BF0060004025
:1050A0005800002070B582B006460C461546FFF742
:1050B000BBFF24B329462046FFF7F6FE031E13DB91
:1050C000104A42F8334002EBC3014D605B029BB2D1
:1050D00006F1080032F810100B4343F4807322F8F5
:1050E0001030094802B070BD0DF107010748FFF705
:1050F00031FD054B9842F5D19DF80730E0E70248B5
:10510000F0E700BF580000200000AD0BCC000020ED
:1051100070B584B02C4A6B4692E8030083E8030024
:10512000002302A80BE004AA02EB830252F8102C21
:10513000D2F8201540F8041BC2F820150133012BCA
:10514000F1D93DE0214E05F5E07356F82320C2F376
:105150000142FFF7E5FE0123AB40C6F8203504AB62
:1051600003EB840353F8080CF8B190FAA0F0B0FAFE
:1051700080F000EB441000F10802154B33F81210D8
:10518000C1F38201C50800F0070202AE012303FA51
:1051900002F2735D23EA0203735500F01F05430911
:1051A000012BCFD04FF0A046CDE70134012CD6D94A
:1051B000084B00221A601B6802A8FFF70BFF08B11A
:1051C0000024F3E704B070BD90920000000300508B
:1051D000580000207C61004038B50446CCB194FAF8
:1051E000A4F3B3FA83F301229A4024EA0204094AA1
:1051F00003F5A27352F82350C5F3052552F8230096
:10520000C0F3014003F06AFB01462846FFF772FE37
:10521000E4E738BD006000402DE9F8430446154638
:105220001E4661B30F4603F043FB002840F0978011
:1052300004F01F026309012B42D04FF0A04002F599
:10524000E07350F82330002F3CD00C2141F00301D3
:1052500023EA0103002F37D0397889000B4302F588
:10526000E07240F82230424A04F1080132F811306D
:1052700023F002039BB243F0010322F81130B5B1D1
:1052800095F80080D5F804902046FFF7E1FDE8B1DD
:10529000B9F1000F65D1364B04F1080233F8120062
:1052A00020F01C0080B240EA880023F81200002E93
:1052B0005BD0726831682046FFF7F4FEBDE8F883E2
:1052C0002C48BCE70021C1E70021C7E7284B04F1C7
:1052D000080233F8127027F02007FF04FF0C23F8B0
:1052E0001270B9F1000FD6D0B8F1030F3BD86B683C
:1052F0001D78B8F1000F06D105F5A2751E4B0022EE
:1053000043F82520C7E7404603F0E9FA1A4B05F5B4
:10531000A27253F8221021F0030143F8221053F82F
:10532000221021F44F3121F4407143F8221053F838
:1053300022C0210201F47C51000400F440300143FA
:105340004CEA010143F822106D03ADB204F10803E9
:105350002F4347F02007064A22F813709BE70748BF
:10536000ACE70648AAE70548A8E70548A6E700BF56
:105370005800002000030050006000400400AD0B06
:105380000000AD0BF8B504461546002952D00E4674
:1053900003F09DFA28B12046FFF744FD002840F0B5
:1053A0009D802046FFF748FD18B17378012B00F06F
:1053B000978006F1010CB71C04F01F026309012B52
:1053C0007CD04FF0A04102F5E07351F82300BCF10E
:1053D000000F75D0022343F00103002F72D04FF06D
:1053E0000C0E43EA0E03002E6FD04FF4E06E43EA3A
:1053F0000E0320EA0300BCF1000F69D073785B0054
:1054000043F00103002F65D0B778BF003B43002E67
:1054100062D0367836023343034302F5E07241F836
:105420002230334A04F1080132F8113043F003030B
:1054300022F81130002D55D0204603F048FA0028FC
:1054400052D12A7802F5A2712A4B43F8210028494B
:1054500004F1080031F8103023F02003DB04DB0CEA
:1054600021F810306978002940D095F802C0214D0C
:1054700002F5A27655F8260020F4991020F4F85091
:1054800045F8260055F82670200200F47C500904E7
:1054900001F4403101434FEA0C5000F48010014305
:1054A000394345F82610520392B208341A4342F0A9
:1054B00020020F4B23F814200F4814E00F4982E715
:1054C000002388E74FF0000E8BE74FF0000E8EE7C9
:1054D000002395E7002799E700269CE7084802E0AB
:1054E000074800E00448F8BD0548FCE70248FAE731
:1054F00058000020006000400000AD0B0003005089
:105500000400AD0B014B9860D96070475800002033
:1055100038B504460D46FFF785FC40B104F108009C
:10552000044B33F810305B0B2B70034838BD034835
:10553000FCE700BF580000200000AD0B0400AD0BDD
:105540000F4B93F878300BB10E48704710B50C4CE8
:105550006022002104F1100002F099FD0620FDF701
:10556000EBF8094B00221A601B68084B4FF0004211
:10557000C3F80423012384F878306367044810BD1E
:10558000580000200500AD0B7C6100400060004029
:105590000000AD0B034B93F87800003818BF0120D2
:1055A000704700BF5800002008B501460148FFF7CA
:1055B000F5FA08BDC800002008B501460148FFF70C
:1055C000C9FA08BDC800002038B504460D46FFF7EB
:1055D00029FC08B3204603F07AF9E8B12046FFF72A
:1055E00041FC830003F580739BB203F1804303F514
:1055F000C04300221A601B68224A00F5A27152F8CB
:10560000213043F0010342F821309DB3012303FA16
:1056100000F0C2F804032DE004F108031A4A32F83E
:105620001330C3F38203042B12D0052B23D004F0D4
:105630001F026309012B09D04FF0A043D3F81035A6
:10564000D34013F0010F18D0032002E00F4BF5E711
:10565000032004F01F026409012C10D04FF0A04178
:1056600002F5E07251F8223023F4403343EA00435C
:1056700041F8223038BD0220EBE70220E9E7034978
:10568000EEE700BF0060004058000020000300501B
:1056900010B50446FFF7C6FBA0B1204603F017F98A
:1056A00080B12046FFF7DEFB012282400E4BC3F89B
:1056B000082300F5A27053F8202022F0030243F8DB
:1056C00020200EE004F01F036409012C0AD04FF0E3
:1056D000A04103F5E07351F8232022F4403241F851
:1056E000232010BD0149F4E7006000400003005092
:1056F00010B50446FFF78CFB08B90C4810BD2046D6
:10570000FFF7C6FF2046FFF7B1FC04F01F03640952
:10571000012C08D04FF0A04203F5E073022142F8BB
:1057200023100348EAE7034AF6E700BF0400AD0B85
:105730000000AD0B0003005038B501204FF480731A
:1057400000210D4603E0400004339BB201310729DC
:1057500014D803F1804202F5C0421268002AF2D048
:105760000B4AD2F804231042EDD003F1804202F537
:10577000C0420024146012680543E4E7054B1B682F
:105780001BB92846FFF728FD38BDFFF7C1FCF8E735
:10579000006000407C61004008B501460148FFF709
:1057A000D9F908BDD40000200B7B002B4FD04B7BD8
:1057B0000BB900234CE07047314E32E002F01F0578
:1057C0005209012A06D04FF0A0460122AA40C6F88D
:1057D00008252AE02A4EF8E7294D32E04FF0FF3441
:1057E00004AA02EB830242F8104C0133DBB2032B14
:1057F00031D81C46CA5CFF2AF0D056B222F0800293
:1058000004AD05EB830545F8102C0D7B002DECD184
:10581000002ED3DB02F01F055209012ACCD04FF035
:10582000A0460122AA40C6F80C2504AA02EB840473
:1058300054F8102C02F01F045209012ACCD04FF06A
:10584000A04504F5E072032445F82240CDE700238B
:1058500070B485B0CBE74B7B73B900680AE004AA4B
:1058600002EB830252F8101C03F5AC7240F82210D0
:105870000133DBB2032BF2D905B070BC704700BF17
:10588000000300502DE9F04104460D46067906EB71
:1058900046002B4901EB8001097A11B12948BDE886
:1058A000F081274F4FEA800807EB800147F8082076
:1058B0004B602B7B8B7229462046FFF775FF2368D0
:1058C0000122C3F8002523686879A9792A89C3F8D9
:1058D0000C05C3F80415C3F808252268AB7AE97AE9
:1058E00043EA0123C2F8103522680023C2F80032CF
:1058F0002268C2F800332268C2F81C31D2F81C2199
:105900002268C2F81031D2F810212268C2F814318E
:10591000D2F814212268C2F80431D2F8043157F8C1
:10592000083023B1206840F30730FCF705FF06EB91
:105930004606034B03EB8606012333720248AEE7AB
:10594000C80A00200500AD0B0000AD0B70B50C4679
:10595000017901EB41011D4D05EB810105682668C8
:10596000C5F82065A688C5F82465A668C5F8286529
:10597000E668C5F82C6505682668C5F84065A68800
:10598000C5F84465A668C5F84865E468C5F84C459F
:1059900002F00105066805EB5202C6F8142513F063
:1059A000010F05D113F0020203D05DB1082200E01F
:1059B00010220468C4F80022DAB22DB10C2302F0E0
:1059C00094FF70BD0422F4E70823F8E7C80A00201A
:1059D0000246037903EB43000A4901EB8001097A8F
:1059E000C9B202290CD001201268D2F8042132B1C8
:1059F00003EB4303034A02EB830301201872704751
:105A00000020F1E7C80A002010B5114C03232361E0
:105A10006361104AA261104BE3614FF4806323621B
:105A20000023A3626362E36222660C4A626610226C
:105A3000A2662367E36663670949E01D02F0C4FAC2
:105A40000849204602F0C0FA2023A37110BD00BF10
:105A5000D40A0020E09D00008C0B00207C0B00206D
:105A6000EC9D0000F09D00002DE9F84304460E4631
:105A7000154600EB40032D4A02EBC302936A576AB6
:105A8000BB424BD800EB4002284901EBC202D2F8DE
:105A90002080A8EB070909F1FF32954204D913448D
:105AA0009D4216D900203EE0DFF88080631C03EBA6
:105AB000430308EBC30358682A463146384402F0D2
:105AC000C2FA3D4404EB440408EBC40465620120BF
:105AD00029E0431C03EB4303144A02EBC303586859
