:10000000E82F00202547000097D40000DD460000BF
:10001000DD460000DD460000DD460000DD46000054
:100020000000000000000000000000007D3E000015
:10003000DD46000000000000213E0000DD4600001B
:10004000093F0000093F0000093F0000093F000090
:10005000093F0000093F0000093F0000093F000080
:10006000093F0000093F0000093F0000093F000070
:10007000093F0000093F0000093F0000093F000060
:10008000093F0000093F0000093F0000093F000050
:10009000093F0000093F0000093F0000093F000040
:1000A000093F0000093F0000093F0000093F000030
:1000B000093F0000093F0000093F0000093F000020
:1000C000093F0000093F0000093F0000093F000010
:1000D000093F0000093F0000093F0000093F000000
:1000E000093F0000093F0000093F0000093F0000F0
:1000F000093F0000093F0000093F0000093F0000E0
:10010000093F0000093F0000093F0000093F0000CF
:10011000093F0000093F0000093F0000093F0000BF
:10012000093F0000093F0000093F0000093F0000AF
:10013000093F0000093F0000093F0000093F00009F
:10014000093F0000093F0000093F0000093F00008F
:04015000093F000063
:1001540053B94AB9002908BF00281CBF4FF0FF312A
:100164004FF0FF3000F070B9ADF1080C6DE904CE2A
:1001740000F006F8DDF804E0DDE9022304B070477E
:100184002DE9F047089E0D4604468A46002B7FD190
:100194008A42174641D9B2FA82F24AB1C2F1200129
:1001A40005FA02F39740944020FA01F141EA030A68
:1001B4004FEA17484FEA144C1FFA87F9BAFBF8FEC6
:1001C40008FB1EA30EFB09F14CEA0343994206D92E
:1001D400FB1802D2994200F224810EF1FF3E591A13
:1001E400A3B2B1FBF8F008FB101100FB09F943EAD4
:1001F4000144A14505D93C1902D2A14500F20E8162
:100204000138A4EB090440EA0E4000211EB1D44099
:100214000023C6E90043BDE8F08702B9FFDEB2FA65
:1002240082F2002A4FD1CB1B4FEA174E1FFA87F8F0
:100234000121250CB3FBFEFC0EFB1C302B4608FBF6
:100244000CF945EA0045A9450AD97D192CBF0123BB
:100254000023A94502D9002B00F0D9800CF1FF3C02
:10026400A5EB0905A3B2B5FBFEF00EFB105508FB88
:1002740000F843EA0544A04505D93C1902D2A0453B
:1002840000F2C9800138A4EB080440EA0C40BDE741
:100294008B4208D9002E00F0B1800021C6E9000588
:1002A4000846BDE8F087B3FA83F1002946D1AB4292
:1002B400C0F0A780824240F2A4800846002EAAD053
:1002C400C6E9004AA7E7C2F12000974001FA02F309
:1002D4004FEA174EC14024FA00F51FFA87F89440FC
:1002E4001D43B1FBFEF02B0C0EFB101100FB08FCB0
:1002F40043EA01439C4509D9FB182CBF0121002185
:100304009C4502D9002900F095800138A3EB0C0329
:10031400ADB2B3FBFEF10EFB113301FB08FC45EA61
:100324000345AC4505D97D1902D2AC4500F289805C
:100334000139A5EB0C0341EA00417AE7C1F120043D
:100344008B4002FA01F705FA01FCE24020FA04F8B6
:10035400E54000FA01FE134348EA0C024FEA134851
:100364004FEA124C1FFA83F9B5FBF8FA08FB1A5549
:100374000AFB09F04CEA054C60450AD913EB0C0C56
:100384002CBF01250025604501D9002D55D00AF167
:10039400FF3AACEB000C92B2BCFBF8F008FB10CCBB
:1003A40000FB09F942EA0C4CE14505D913EB0C0CAE
:1003B40001D2E1453BD8013840EA0A40ACEB090CD4
:1003C400A0FB0789CC4545464A4602D306D1C6451B
:1003D40004D20138B8EB070569EB03022EB3BEEB78
:1003E40005036CEB020C23FA01F20CFA04F42CFA68
:1003F40001F300211443C6E900430CE731463046BB
:1004040009E7841A65EB030301209A4656E7ACF129
:10041400020C3D4424E702383C4434E702383C44AF
:10042400EFE6AEF1020E3B44D9E63146F3E602387C
:100434009C44C1E702383B4468E7AAF1020A9C44A1
:10044400A7E702393D4474E7704700BF2DE9F04146
:1004540090B004460E461AE06FF0570836E02F4B72
:100464002F4A9B1ADB08012262F302076FF3C507C8
:1004740063F38F173A46A8EB00012A4801F030FADB
:100484002CE0A3685B6913B1694620469847A368CA
:100494005B6C1BB12046984700283CD0A3681B6CBA
:1004A4001BB120469847002835D0A3685B6B13B175
:1004B40020469847C0B175680835A3689B69002B2E
:1004C400CAD040226946204698478046424669463B
:1004D40028460CF0B9F905464045C0D325B130682B
:1004E4008368DB6903B19847A3685B6A1BB1204644
:1004F40098470028CBD04022694606F108000CF04A
:100504000DFA02460028BCD1A3681B6A002BBED09A
:1005140020469847BBE710B0BDE8F081FCEE000030
:10052400FCEE000008F0000010B582B004468368B9
:10053400DB6C13B1012208219847A368DB6C1BB163
:10054400012210212046984705480EF03AFAA36884
:100554001B6D1BB101AA01212046984702B010BDB2
:1005640040420F0070B582B00024019400E00134D1
:10057400012C1FDC04EBC403594A52F823000DF08C
:1005840075FE0028F3D1574B574A9B1ADB084FF0EE
:100594000002012161F302026FF3C50263F38F12BB
:1005A400242303FB04F44E4B1B5919684F4801F0F4
:1005B40097F992E0002002F025FAF8B9494B4A4A2B
:1005C4009B1ADB084FF00001032262F302016FF370
:1005D400C50163F38F11464801F0F4F9404B1868E4
:1005E40083681B6D13B101AA04219847019BB3B919
:1005F40040F6CD4000210AF029FEEFE7394B3A4A94
:100604009B1ADB084FF00001012262F302016FF331
:10061400C50163F38F11374801F0D4F95DE0304B25
:10062400586A83681B6D13B101AA04219847019B82
:100634002BB940F6CD4000210AF008FEEFE7294B24
:10064400294A9B1ADB084FF00001032262F30201DE
:100654006FF3C50163F38F11274801F0B3F9204C00
:100664002068FFF761FF254655F8240FFFF75CFF6C
:100674006560A4621C22002104F108000CF0CAFF8A
:100684008026A6611D4BE3617F2525621C22002183
:1006940004F12C000CF0BEFFE663194B236465647F
:1006A400606A836823B19B6C13B12246154998474D
:1006B4000B4B1868836823B19B6C13B1124A114920
:1006C4009847074B186883689B6A03B19847044BA3
:1006D400586A83689B6A03B1984702B070BD00BF33
:1006E40000000020FCEE0000FCEE000018F000000A
:1006F40050F0000038F0000060F00000380A0020DC
:10070400B80A0020510400002400002008B50B683A
:1007140001330B60014B1B68984708BD480000205B
:10072400014B1860704700BF4800002000B583B03B
:1007340002460B460021019101A9034800F0C8F8C4
:1007440003B05DF804FB00BF1107000010B584B0CE
:100754000446019002910021039101A9054800F08B
:10076400B7F8039B029A934201DA0022E2540398F9
:1007740004B010BDA1BB00002DE9F04383B00446D2
:1007840008461546238B13F0080F05D103F007061E
:1007940000230093019369E0012909D043F0200369
:1007A400238385F31188BFF36F8F03B0BDE8F08313
:1007B40043F010032383F4E720460BF04AFA57E092
:1007C400D4F814904A46694620460BF05BFA002799
:1007D4005AE023691F68062120460BF013FA4FF0F4
:1007E400000951E023695F68042120460BF00AFAEE
:1007F4004FF0000948E023699F68052120460BF06B
:1008040001FA4FF000093FE0002246E0002244E0F4
:1008140043F00803238385F31188BFF36F8F002906
:1008240044D1009B2BB14B464246694620460BF00F
:100834009FFA17B125492046B8474FF02003EFF33C
:10084400118583F31288BFF36F8F238B23F0080382
:100854002383238B13F0100F2ED023F01003238354
:100864000120268B06F0070600289AD00228A3D080
:10087400002896D00128A3D00328AAD00428B1D0F8
:100884000528B8D00027B946238B03F00708B045E4
:10089400BAD0A268002AB9D001221146002AB7D1E1
:1008A400009A002AB4D1002FB2D1D2E74A46414679
:1008B40020460BF0AFF9B4E713F0200F04D023F077
:1008C400200323830220CCE70020CAE7A3BD000055
:1008D4002DE9F04F93B006460D469246039300244B
:1008E4009AF80000002800F0D684252808D00AF1E0
:1008F400010A2946B0470028C0F2CE840134EFE74C
:100904000023069307930B93089309930A930AF120
:1009140001089AF80130252B01D001272CE00AF1B7
:1009240002088DF82330A8E19DF8203043F0040339
:100934008DF82030FFB108F101081CE09DF820304B
:1009440043F008038DF82030F4E79DF8203043F09D
:1009540010038DF82030EDE79DF8203043F020039C
:100964008DF82030E6E79DF8203043F040038DF801
:100974002030DFE700274FB398F80030203B102BDE
:10098400F8D801A252F823F04F09000079090000B9
:10099400790900005D090000790900007909000067
:1009A400790900007909000079090000790900003B
:1009B4007909000041090000790900002D090000AF
:1009C40079090000790900006B0900009DF82030C6
:1009D40003F04403442B6DD0CDF814809DF82030EF
:1009E40043F080038DF8203098F800302A2B68D02B
:1009F40005A80BF031FE059B984512D09DF82030D8
:100A040043F080038DF820300990C3F3400300289D
:100A140060DB002213439DF8202063F341028DF82C
:100A24002020059B05931B782E2B14BF0023012344
:100A34009DF8212063F341028DF82120002B4BD037
:100A4400059B5A1C05925B782A2B48D005A80BF00D
:100A540003FE0A909DF82030C3F34003002847DBCF
:100A6400002213439DF8202063F341028DF82020D7
:100A7400DDF8148098F800304C3B2E2B00F2DC801B
:100A8400DFE803F0CADADADADADADADADADADADA80
:100A9400DADADADADADADADADADADADADADADADAB2
:100AA40038DA6ADA51DADADADADADADAC0DADADA57
:100AB400DADAB6009DF820306FF386138DF8203013
:100AC4008AE79DF8213043F001038DF82130434635
:100AD4000133A7E701229DE7DDF81480CAE79DF8FA
:100AE400213043F004038DF8213002F10108C1E7FD
:100AF4000122B6E708F1010298F80130682B08D00A
:100B04009DF82130022161F3C6038DF8213090460F
:100B14002BE09DF82130012262F3C6038DF82130C9
:100B240008F1020821E008F1010298F801306C2B69
:100B340008D09DF82130032161F3C6038DF82130DC
:100B4400904612E09DF82130042262F3C6038DF82A
:100B5400213008F1020808E09DF82130052262F3F3
:100B6400C6038DF8213008F1010818F8013B8DF80F
:100B74002330A3F14102372A00F25081DFE812F05A
:100B840026014E014E014E012601260126014E0189
:100B94004E014E014E014E014E014E014E014E01D9
:100BA4004E014E014E014E014E014E014E01130104
:100BB4004E014E014E014E014E014E014E014E01B9
:100BC40026014E01130163002601260126014E0170
:100BD40063004E014E014E014E012F0113013F01EE
:100BE4004E014E013F014E0113014E014E0113010E
:100BF4009DF82130062262F3C6038DF8213008F1F6
:100C04000108B2E79DF82130072262F3C6038DF88C
:100C1400213008F10108A8E79DF82130082262F389
:100C2400C6038DF8213008F101089DF8203043F007
:100C340002038DF8203098E79DF821306FF3C60346
:100C44008DF8213091E79DF82220012161F3020201
:100C54008DF822209DF8212002F07802402A00F02D
:100C6400AA80632B00F0AE809DF82030C3F34002CD
:100C7400174367F341038DF820309DF8213013F0BA
:100C8400010F00F0DA80039B1A1D03921F68002FE6
:100C9400C0F2CB809DF8213013F0040F00F0DF8008
:100CA400039B1A1D0392D3F800B0BBF1000FC0F2EE
:100CB400CD80002309930A939DF8223003F00703A3
:100CC4009DF82110C1F3C301012B00F0D180022B48
:100CD40000F01681042B00F06781032B00F07E8165
:100CE4009DF8209019F00303029340F07D819DF854
:100CF4002330253B532B00F23382DFE813F08101CC
:100D04003102310231023102310231023102310247
:100D14003102310231023102310231023102310237
:100D24003102310231023102310231023102310227
:100D34003102310231023102310231023102310217
:100D44003102310231023102310231023102310207
:100D540031023102310231023102310231023102F7
:100D640031023102C7013102310231023102310252
:100D740031023102310231023102A101AB013102EF
:100D8400310231023102AB0131023102310231024E
:100D94000802C701EA01310231028F013102C701A1
:100DA40031023102C7019DF82220022161F30202BF
:100DB4008DF822204EE79DF8201041F001018DF8B6
:100DC40020104EE7171E18BF01274DE79DF822306B
:100DD400042262F302038DF82230012744E79DF8D0
:100DE4002230032262F302038DF822309DF8213071
:100DF40003F07803402B7FF437AF012734E79DF8E5
:100E04002230032262F302038DF822309DF8213050
:100E140013F0780F3FF428AF012725E79DF8203021
:100E240043F001038DF820301EE79DF8203043F095
:100E340004038DF820307F422CE79DF92030002BED
:100E440002DB4FF0FF3725E7099F23E79DF82130A8
:100E54006FF341038DF821304FF0FF3B29E713F086
:100E6400020F02D0DDF828B023E74FF0FF3B20E764
:100E7400CB1E042B04D8DFE803F00B1D2935350005
:100E8400039B1A1D03921A68D317CDE9062306E0C3
:100E9400039B1A1D03921A68D317CDE9062301296F
:100EA40028D002297FF41CAFBDF91820D317CDE94F
:100EB400062315E7039B073323F0070303F1080216
:100EC4000392D3E90023CDE90623E8E7039B073324
:100ED40023F0070303F108020392D3E90023CDE9C9
:100EE4000623DCE7039B1A1D03921A68D317CDE986
:100EF4000623D4E79DF81830069300230793EFE602
:100F0400CB1E042B04D8DFE803F00B1F354141004E
:100F1400039B1A1D03921B680693002307931EE08C
:100F24009DF82330632B07D0039B1A1D03921B6883
:100F340006930023079312E0039B1A1D03921B6878
:100F44000693002307930AE0039B073323F0070368
:100F540003F108020392D3E90023CDE90623012912
:100F64001CD002297FF4BCAEBDF8183006930023D0
:100F74000793B5E6039B073323F0070303F1080245
:100F84000392D3E90023CDE90623E8E7039B1A1D66
:100F940003921B68069300230793E0E79DF818303B
:100FA4000693002307939BE608290BD0039B073382
:100FB40023F0070303F108020392D3E90023CDE9E8
:100FC40006238DE6039B073323F0070303F108028E
:100FD4000392D3E90023CDE9062381E6039B1A1D7E
:100FE40003921B6806937BE64346524629463046E5
:100FF4000BF0AFFB0028C0F24F810444C2466FE4FB
:1010040029462520B0470028C0F246810134DDF886
:1010140008900DF1460B4FF0000AA7E0DDF818A088
:10102400BBF1000F08DB594650460CF0C5FA0AEB39
:10103400000BDDF8089099E050460CF0B5FAF6E79D
:10104400069B8DF83030DDF808900DF1310B0DF171
:10105400300A8BE019F0080F05D119F0100904D0FB
:101064004FF0200901E04FF02B09DDE90623002AA7
:1010740073F1000102DBCDE9062309E0524263EB80
:101084004303CDE906234FF02D0901E0DDF8089074
:101094000DF1460300930CAB08AADDE906010BF041
:1010A400EEFA8246BBF1000FC0F290800DF14603C8
:1010B400A3EB0A039DF820206FF386128DF82020FD
:1010C4009B4540F28680ABEB030309930DF1460B7D
:1010D4004CE0069830B9DDF80890DFF8C4B1ABF104
:1010E400050A43E00DF1460300930CAB08AA002166
:1010F4000BF0C5FA82469DF8223043F010038DF8B8
:10110400223078238DF82330DDF80890CAE7069A58
:101114009DF82130C3F3C303072B06D8DFE803F09F
:10112400040C0E1012171C1E1460DDF808900DF14B
:10113400460B4FF0000A19E01470F6E71480F4E748
:101144001460F2E72046E117C2E90001EDE720460A
:10115400E117C2E90001E8E71460E6E71460E4E798
:10116400DDF808900DF1460B4FF0000ABAF1000FBC
:1011740000F08E80ABEB0A02B9F1000F00D001320F
:101184009DF8221011F0100F26D00232099B13444F
:1011940011F0400F01D00A9A1344002F32DDFF1AD8
:1011A4009DF8203013F0040F2CD113F0400F18D009
:1011B400B9F1000F18D029464846B04700286BDB28
:1011C4000134DDF80890302302930FE00DF1460B53
:1011D400CCE70DF1460BC9E711F0080FD6D0013268
:1011E400D4E72023029301E0302302933B465F1EA1
:1011F400002B07DD29460298B04700284CDB013458
:101204003B46F4E7B9F1000F05D029464846B047FC
:10121400002841DB01349DF82230C3F30012C3F3EC
:10122400C003134305D029463020B047002833DBE0
:1012340001349DF8223013F0100F06D029469DF892
:101244002300B047002827DB0134099B03F1FF3951
:10125400002B07DD29463020B04700281CDB013471
:101264004B46F3E75B465246294630460BF071FA8B
:10127400002811DB0444002F07DD29462020B04755
:10128400002809DB0134013FF5E7C246FFF728BB1C
:10129400C246FFF725BB204613B0BDE8F08F00BF60
:1012A4008DF0000008B54FF02002EFF3118382F3B4
:1012B4001288BFF36F8F03F063FA03480AF086FCC9
:1012C40002F0C2FCFCE700BF90F0000010B44FF045
:1012D4002003EFF3118483F31288BFF36F8F01218E
:1012E400124BC3F80015124A0223C2F8D036114833
:1012F400D0F8003223F0E04343F04053C0F800320A
:10130400D0F8043223F0E04343F04053C0F80432F1
:10131400C2F80417C2F80419C2F8001B84F3118838
:10132400BFF36F8F002010BC704700BF0010005047
:10133400004000500025845070B108B50246074BA8
:101344001B680748A0FB03139B0C03FB02F0054B2F
:1013540043F00103984708BD704700BF50020020C6
:1013640083DE1B4300F0000084B004AB03E90700F4
:101374009DF80430062B01D004B07047034B0122C2
:10138400C3F80025BFF34F8F20BFFDE70040005096
:10139400054B984204D3054B984203D30020704771
:1013A4000020704701207047B4EB00009802010050
:1013B40008B5064B186018B1054B1B68092B00DCF7
:1013C40008BD044809F006FAFAE700BF680B0020DC
:1013D400380B0020D803002008B5024809F0FAF9B8
:1013E40008BD00BFD803002008B503480BF0D3FAAA
:1013F400003818BF012008BD440B002030B589B067
:1014040000220F490F480DF012FB0F4D002200235C
:10141400CDE90623002404940E230393029401943B
:1014240000940A4B4FF44072094928460CF09FFF80
:101434000849284608F0D6FF204609B030BD00BF51
:10144400DD1300005805002090050020811A0000DB
:10145400E8200020C0F00000164BD3E8EF2F511C09
:10146400C3E8E01F0028F8D11ABB70B5002409E0D6
:10147400114B03EB06135B6804221968284600F03D
:101484003DFB01340D4B0C4A9B1AB4EB231F0FDABE
:101494002646094D05EB04152B7B002BF1D02301C7
:1014A400054AD3589B69002BE2D028469847DFE7CA
:1014B40070BD7047400B002074EF000084EF000003
:1014C40038B108B5044A1060084600F08FFD0020CA
:1014D40008BD6FF0150070474C00002008B50023CC
:1014E4000A4A13700A4A13604FF400410948FFF78F
:1014F400E7FF00F025FB08480BF03FFA04232822FD
:10150400064907480CF0D6FE08BD00BF1D1F002089
:101514003C0B0020B3C90000440B0020283D0020F0
:101524004C0B002010B54FF02003EFF3118483F32C
:101534001288BFF36F8F04480BF02FFA84F31188DD
:10154400BFF36F8F10BD00BF440B002008B5054BDF
:101554001B781BB1034B01221A7008BD024809F025
:1015640039F9F7E71C1F0020D8030020084BD3E803
:10157400EF2F0132C3E8E12F0029F8D1054BD3E85E
:10158400EF2F013AC3E8E12F0029F8D1704700BFDB
:101594003C0B0020380B0020044B00200246D3E80B
:1015A400EF0FC3E8E12F0029F9D170473C0B00206D
:1015B40038B5FFF7F1FF0546002400E001340B4B7A
:1015C4000B4A9B1AB4EB231F0FDA094800EB0410F3
:1015D40043685B79002BF1D02301054AD3581B697A
:1015E400002BEBD029469847E8E738BD84EF00008C
:1015F40074EF0000034B18680028D4BF00200120BA
:10160400704700BF3C0B002010B582B00446FFF7C2
:10161400BFFEF0B90022002301A90F4808F08CFE98
:1016240008B10E4C15E0019B0122D3E8EF1FC3E87B
:10163400E02F0028F9D11F222146019804300BF035
:1016440099FF019C7E2384F82330002384F82430FE
:101654000434204602B010BD4C0B0020C8F000003A
:1016640038B1074A904206D3A032904205D30020F5
:10167400704700207047002070470120704700BF6A
:10168400283D0020037A13F0010F00D070472DE9A4
:10169400F04383B006460BF042FA074630460BF09F
:1016A40029FA014638460BF086F9054604E0012381
:1016B40003FA04F425EA04056DB3B5FA85F4C4F11C
:1016C4001F04214630460BF018FA8146FFF760FEEE
:1016D4000028ECD14846FFF7C3FF0028E7D10F4BA1
:1016E4009945E4D07189C1F3891100F0F7F90246F4
:1016F4000B4B0C495B1ADB08012161F302086FF301
:10170400C50863F38F18ADF800803B4621460648B0
:1017140000F0A8F8CBE703B0BDE8F083C8F0000000
:1017240014EF0000FCEE0000E4F00000F8B50646FB
:1017340019BB144B1B780BB1002403E0FFF7A2FF85
:10174400FAE70134104B114A9B1AB4EB231F14DA45
:101754000E4D05EB04156B685B79002BF1D0314617
:1017640028460BF022F90028EBD02701074BDB5960
:101774005B68314628469847E3E730460BF0D1F9D9
:10178400F8BD00BF1D1F002084EF000074EF0000AF
:1017940010B504460F4B1B7803B9B0B1FFF7C2FE76
:1017A400034660B13CB90C4AD2E8EF1F0139C2E8E4
:1017B400E01F0028F8D121461846FFF7B7FF14B9F7
:1017C400FFF718FF10B9FFF70FFE10BDFFF7F0FE8B
:1017D400F9E700BF1C1F0020380B002010B582B0B1
:1017E4001B4BD3E8EF2F511CC3E8E01F0028F8D1AE
:1017F400184B1B783BB9184B1B6803B19AB10A2AE2
:101804001CD002B010BD4FF02003EFF3118483F31A
:101814001288BFF36F8F0020FFF7BAFF84F311889B
:10182400BFF36F8FEDE700220023CDE900234FF4CF
:1018340000420023094809F05DFFE2E7002BE0D0F5
:1018440006480DF000F9064808F0C4FFD9E700BFC8
:10185400380B00201D1F0020680B002058050020B5
:10186400D80300202DE9F04180460F4616461D4658
:1018740000F08AF9044640B101234360002202814A
:101884004FF0000362F3000303724CB1C4F81080FC
:10189400637A032262F3071363726761A661E561E9
:1018A400C4B1BDF8183063810B4B1B689847E060E6
:1018B4004FF02003EFF3118583F31288BFF36F8F8A
:1018C400214606480BF05DF885F31188BFF36F8F4E
:1018D400FFF784FFBDE8F0814C000020440B00209A
:1018E400F8B506460D46174600F04EF9044640B1D9
:1018F40001234360002101814FF0000361F30003E1
:10190400037234B12661637A012262F307136372AE
:101914006561B4B167810B4B1B689847E0604FF079
:101924002003EFF3118583F31288BFF36F8F2146F1
:1019340005480BF026F885F31188BFF36F8FFFF786
:101944004DFFF8BD4C000020440B00202DE9F04170
:1019540007460E461546984600F016F9044640B16F
:1019640001234360002202814FF0000362F300036D
:1019740003723CB12761637A022262F30713637234
:101984006661A561BCB1A4F80A800C4B1B6898473A
:10199400E0604FF02003EFF3118583F31288BFF367
:1019A4006F8F214606480AF0ECFF85F31188BFF3D8
:1019B4006F8FFFF713FFBDE8F08100BF4C000020DC
:1019C400440B002070B505460E4600F0DDF80446D1
:1019D40040B101234360002202814FF0000362F30F
:1019E4000003037204B12561B4B166810B4B1B681B
:1019F4009847E0604FF02003EFF3118583F31288DA
:101A0400BFF36F8F214606480AF0BBFF85F31188A8
:101A1400BFF36F8FFFF7E2FE70BD00BF4C000020E4
:101A2400440B0020124B1B7803B1704710B5FFF72D
:101A340013FD002400E001340E4B0F4A9B1AB4EB53
:101A4400231F0CDA0C4800EB041043685B79002B6D
:101A5400F1D02301084AD3585B699847EBE700208B
:101A6400FFF796FE0028FAD1014B01221A7010BD2F
:101A74001D1F002084EF000074EF000008B5FFF77D
:101A8400EBFC09F00FFCFFF793FC06E04FF0FF328C
:101A94004FF0FF33044808F0C1FE0020FFF778FE42
:101AA4000028FAD1F2E700BFD803002000B583B0C4
:101AB40004380190D0E8EF3F5A1EC0E8E12F002916
:101AC400F8D1012B02D003B05DF804FB01A9024850
:101AD4000CF0FEFBF7E700BF4C0B0020054B064A59
:101AE4009B1AB1EBD30F02D252F831007047002099
:101AF400704700BF74EF0000FCEE000008B5074B10
:101B0400C31A1B1101334268137143681960436897
:101B140001225A71FFF71AFD08BD00BF74EF0000DF
:101B240010B582B00190019B33B11C6801A9034830
:101B34000CF0CEFB0194F6E702B010BD6C0B002054
:101B440008B520231A46024902480CF0B3FB08BD2D
:101B5400C83D00206C0B002010B582B00023019317
:101B64000120FFF715FE0446FFF700FD00220023C5
:101B740001A9044808F0E0FB08B1002CF0D1019859
:101B840002B010BD6C0B002000B583B0002301939C
:101B94000AF034FF50B10022002301A9074808F0DD
:101BA400CBFB30B9019803B05DF804FB002200239D
:101BB400F3E7FFF7D1FF0190F4E700BF6C0B0020BF
:101BC400F0B583B0019004460AF094FF237A13F031
:101BD400010F01D1064650BB019B1A7A12F0020F85
:101BE40028D101A915480CF073FB03B0F0BD01988E
:101BF4000AF095FF31460AF0DEFE074688B9EBE7A6
:101C04002846FFF753FF0134B442E5D22146019838
:101C14000AF073FF0546FFF723FD0028F3D0002FD9
:101C2400E5D027FA04F313F0010FECD0E8E700271E
:101C34003C46E9E75869FFF773FFD2E76C0B0020D5
:101C44000EB400B582B0014603AB53F8042B0193E4
:101C54000348FEF73DFE02B05DF804EB03B07047A5
:101C64006FCE0000F0B585B011F0440F05D01A4BCB
:101C74001C6834B9002005B0F0BD1849FFF7E0FF37
:101C8400F9E7174B1968B2FBF1F1B1FBF4F5154A0A
:101C9400A2FB0532D20A4FF4616606FB1256124BC0
:101CA400A3FB06735B0904FB15114FF47A7505FB5E
:101CB40001F1B1FBF4F707FB141105FB01F1B1FBD2
:101CC400F4F402940197C3EB0311A6EB8101009194
:101CD4000649FFF7B5FFCEE7880B002028F1000086
:101CE4008C0B0020C5B3A2918988888834F1000048
:101CF40061B108B52AB1064A52F8232012B9054A3F
:101D040000E0044A0449FFF79BFF08BD704700BF89
:101D1400ACF1000050F1000058F1000011F0100F78
:101D24000BD108B511F0200F03D00449FFF788FF49
:101D340008BD0349FFF784FFFAE77047C4FB0000BE
:101D4400740201002DE9F04105460F4616469846F7
:101D54000699FFF7E3FF0024444505DA23492846A2
:101D6400FFF76EFF0134F7E7002409E01F49284616
:101D7400FFF766FF0BE01E492846FFF761FF0134B9
:101D84000F2C0CDC002C02DD14F0070FEED0B44253
:101D9400F1D23A5D17492846FFF752FFEFE716499B
:101DA4002846FFF74DFF002409E010492846FFF7B5
:101DB40047FF0BE011492846FFF742FF01340F2C7F
:101DC40012DC002C02DD14F0070FEED0B44206D270
:101DD4003A5DA2F120035E2BECD92E22EAE70349F7
:101DE4002846FFF72DFFE9E7BDE8F08180F1000008
:101DF40064F100005CF1000068F100006CF1000087
:101E04002DE9F041804616461D46BDF9187059B9B2
:101E14000024002F1CDB86B10123079A934013F0A2
:101E2400100F18D10D4E09E00D4B079A53F82220DC
:101E34000C49FFF705FF0446EBE7084E39462846F0
:101E4400FFF74CFE024631464046FFF7F9FE0444D4
:101E54002046BDE8F081044EF0E700BF70F10000B9
:101E6400E8F100007CF1000078F100002DE9F04F6A
:101E740085B005460C46164603939DF8388001F05C
:101E8400020B01F0010AC1F3C0090AF0B5FDE8B183
:101E9400024613492846FFF7D3FE0746BBF1000F5D
:101EA40016D14246514628460AF05FFECDF804801A
:101EB400BDF9403000939DF83C30324649462846EF
:101EC400FFF79EFF384405B0BDE8F08F0027E5E733
:101ED400039A21462846FFF7C5FE0744E1E700BF01
:101EE40084F100002DE9F04389B007460E4691467F
:101EF40098460AF014FE02460E493046FFF7A0FE4B
:101F0400002410250395234603AA0DEB050138464A
:101F14000AF016FE039A52B1CDF800804B460DEB41
:101F240005013046FFF70EFF039D2C44E9E709B095
:101F3400BDE8F08358F10000F0B583B006460C46C6
:101F440000273D460DE0A268134413F8017C0A2FD4
:101F540014BF0027012720460AF07AFF019B1D4485
:101F640073B1E36801932B4601AAA16830460AF0D5
:101F7400E7FD6368019A1A60019B002BEBD0E2E74E
:101F84000FB903B0F0BD02492046FFF759FEF8E748
:101F940088F1000070B582B00446056842F20F7300
:101FA4008B4228BF0B460E4A0521684609F01CFEE9
:101FB400064663685B680B220A4928460AF0C8FD96
:101FC40063685B683246694628460AF0C1FD636867
:101FD4005B681B22044928460AF0BAFD02B070BDB2
:101FE40044FD0000DCF10000C0F10000074B0122B9
:101FF4001A60074B984205D94008044A13685B00ED
:102004001360F6E7034B1860704700BF8C0B002089
:1020140040420F00880B002070B506460D46002490
:10202400AC4207D2044B1868315D83685B689847FB
:102034000134F5E7284670BDA40B0020014B024A89
:102044001A607047A40B0020BCEC000008B5034BD9
:1020540001221A7002480AF0FBFE08BD1E1F002070
:1020640038F2000008B50248FFF794FF08BD00BF2E
:1020740038F2000010B50C4608460AF032FD0F2273
:10208400214603480AF009FF20460AF04AFD10BD24
:1020940038F20000072801D900207047024B184489
:1020A40080F8BB1001207047AC0B0020072801D931
:1020B40000207047024B184490F8BB00704700BFE3
:1020C400AC0B002010B50378C3F341130A33064C5C
:1020D40054F8233023B19847002803DB012010BDB6
:1020E4000020FCE70020FAE7AC0B00200A30024B8A
:1020F40043F82010704700BFAC0B0020014B58621E
:10210400704700BFAC0B0020136800225A700122F4
:102114001A70074A92F8C3203AB1022242F001022F
:102124001A7002230B60012070470022F6E700BFFB
:10213400AC0B0020F0B447883D0A2B1FDBB2012B07
:102144001ED9FFB2072D1ED8104B5B6A002600E093
:102154000344187838B15C78AC42F9D1B74201D065
:102164000136F5E7012060B11360022D02D01B781F
:102174000B6006E09A78DB7842EA03230B6000E008
:102184000020F0BC70470020FBE700BFAC0B002030
:10219400F8B584460E460C4B5B6A176800E013449E
:1021A4001A7872B15C78042CF9D1987885B2BCF8AD
:1021B4000440A542F3D1FFF779FF38700120306065
:1021C40000E00020F8BD00BFAC0B0020034B93F8E7
:1021D400BA00003818BF0120704700BFAC0B0020C4
:1021E400074B5B6A00E013441A783AB15978022924
:1021F400F9D119798142F6D901207047002070473E
:10220400AC0B002030F0800318D01049104B9942D9
:1022140019D210B403E024310D4B99420CD20C6A4C
:1022240000230A7F9A42F6D904EBC3021279824250
:1022340006D00133DBB2F4E7002002E0012070474E
:10224400012010BC70470020704700BF100500201B
:1022540058050020014B9861704700BFAC0B00206B
:10226400014BD861704700BFAC0B0020F8B506469F
:102274000A4D0B4B9D420ED22F6A00242B7FA342A2
:1022840007D907EBC400B047002805DB0134E4B2EA
:10229400F4E72435EDE70020F8BD00BF1005002069
:1022A4005805002070B50B4B00E024330A4CA342C0
:1022B4000DD25C68094D6D6AAC42F6D31D69002DE0
:1022C400F3D0A6780479A642EFD1A84701E06FF0D5
:1022D400850070BD1005002058050020AC0B0020BF
:1022E4002DE9F04106460F469046114C05E0424662
:1022F40039463046A84719E024340E4B9C4213D289
:1023040063680D4D6D6AAB42F6D3A569002DF3D019
:10231400997832799142EAD05B79012BECD142462B
:1023240039463046A847E7E76FF08500BDE8F081FD
:102334001005002058050020AC0B0020F8B5074616
:102344000E4615460A4C00E024340A4B9C420AD23D
:102354006369002BF8D02A4631463846984703462D
:102364000028F1D101E06FF085031846F8BD00BFE5
:10237400100500205805002070B582B00D46047980
:102384008DF807402046FFF73DFF064630B134F094
:10239400800306D0FFF71AFF18B90646304602B08C
:1023A40070BD5DB1204603F0ADFC0A4BDB69002B28
:1023B400F4D00DF1070108209847EFE7204603F019
:1023C400E7FC044BDB69002BE8D00DF10701092081
:1023D4009847E3E7AC0B002000B583B083788DF811
:1023E40000308388ADF80230C37803F003038DF81E
:1023F4000430684603F048FC10F1780F00D070B93F
:102404009DF8000003F00EFD10F1780F00D0D0B954
:102414000120174B83F8B90003B05DF804FB154B9A
:10242400154A9B1ADB084FF00002012161F30202F6
:102434006FF3C50263F38F129DF800100F48FFF786
:102444004FFA0020E8E70B4B0B4A9B1ADB084FF0CE
:102454000002012161F302026FF3C50263F38F12DC
:102464009DF800100648FFF73BFA0020D4E700BFB0
:10247400AC0B00205CEF0000FCEE000048F2000012
:102484006CF2000008B50822002102480BF0C2F8E3
:1024940008BD00BF670C00202DE9F0410546234B21
:1024A4005C6A43881BB10027FF26B04610E0FFF7A3
:1024B400E9FF6A881D4B83F8BA20DB6913B11C4914
:1024C40003209847012720E094F8038023781C44D4
:1024D4002378CBB16378042BF6D0052B08D0022BDC
:1024E400F4D16679B2B26B889A42EFD10127EDE755
:1024F400B3B26A889342E9D1B8F1000FE6D120461D
:10250400FFF76AFF0746E1E717B93846BDE8F081EF
:10251400FFF7B8FF6A88054B83F8BA20DB69002B04
:10252400F3D0034903209847EFE700BFAC0B00202A
:10253400660C002010B5146890F90030002B0ADBFB
:102544004378013B082B3AD8DFE803F024392F39CC
:102554001A39393921004378062B07D0082B08D0C3
:102564000BB1002010BDFFF7CFFDFBE7FFF7E2FD45
:10257400F8E7144B93F8BA30237001200860F1E7B0
:10258400807803F02BFBB0FA80F04009EAE7FFF70C
:1025940083FFE7E74388012B01D00020E2E7094BE2
:1025A400002283F8C3200120DCE74388012B01D0FB
:1025B4000020D7E70120034B83F8C300D2E70020B3
:1025C400D0E700BFAC0B002010B58478204600F0A3
:1025D40099FD204603F054FC10F1780F15D008B98A
:1025E400012010BD0A4B0B4A9B1ADB084FF0000276
:1025F400012161F302026FF3C50263F38F122146D6
:102604000548FFF76DF90020EBE70120E9E700BF7B
:102614005CEF0000FCEE000090F200002DE9F843AE
:1026240006461B4B5C6A0027FF25A846B94608E00E
:1026340094F80380A578ABB2B088834213D0237892
:102644001C442378DBB16378042BF1D0052BF6D13D
:10265400ABB2B2889342F2D1B278414620460AF036
:102664005DFC0746EBE71FFA88F371888B42E6D1DD
:10267400C9B2C0B2FFF70EFD0746A146DFE7044B1F
:10268400DB6913B14946072098473846BDE8F8830B
:10269400AC0B002070B504460D461646184B9B69DA
:1026A4000BB1984748B1237803F01F03012B0DD0D9
:1026B400022B13D013B16FF0150070BD32462946BA
:1026C4002046FFF737FF88B10020F6E73246294657
:1026D40020460AF02CFC60B10020EEE73246294681
:1026E40020460AF071FC38B10020E6E76FF01500CF
:1026F400E3E76FF01500E0E76FF01500DDE700BFDA
:10270400AC0B002070B50D4E0D4B9E4211D2356AB4
:102714000024337F9C420AD205EBC40355F83410DD
:10272400187903F0C9FD30B90134E4B2F1E7243675
:10273400EAE7002001E04FF0FF3070BD10050020F3
:102744005805002070B505460E46042805D02B1FF9
:10275400DBB2012B04D9144C14E0FFF793FEF6E727
:10276400124B93F8B930002BF5D000F0EBFC042D9C
:10277400F1D10F48FFF77AFD0C4B002283F8B92002
:10278400E9E724340B4B9C4207D2E368002BF8D0D2
:102794003246294620469847F3E7044B1B6A13B197
:1027A40031462846984770BD10050020AC0B002028
:1027B4008DCF00005805002010B582B0134B1B7D4F
:1027C400CBB9124CE268019201ABA16880200AF0F7
:1027D4001EFC0199A2680A44A260E3685B1AE360E4
:1027E4008BB9E28823699A420DDD13F03F0F0AD1B9
:1027F4000122227507E00021044B19750B460A4695
:10280400802003F067FB02B010BD00BFAC0B0020BA
:1028140010B584B000230393044600B931B3002CEF
:1028240040F09480504BDA68002A77DD03AB4E49C0
:10283400896800200AF096FF00287CDB03984A4A46
:10284400916801449160D3681B1AD360002B7FD137
:10285400104602F1380342F8083F00F11001FFF777
:1028640031FC00286ED0FFF7A7FF71E0082201A910
:102874000AF078FF00282EDB9DF804003A4B18700C
:102884009DF805205A70BDF806205A80BDF808202E
:102894009A80BDF80A10D98003F138029A600022A8
:1028A4001A751A61DA6010F0800F02D1802916D8E7
:1028B40061BB2D4800F1080200F11001FFF702FC92
:1028C40040B3294BDA8819698A42A8BF0A46DA60FC
:1028D400FFF772FF3CE0802003F014FA38E0234B4A
:1028E400234A9B1ADB084FF00001012262F3020124
:1028F4006FF3C50163F38F111E48FFF763F880205F
:1029040003F000FA002003F0FDF921E0164B1961F1
:10291400D9601DE0802003F0F5F919E003AB002233
:102924001149896810460AF01DFF002810DA80203A
:1029340003F0E8F90CE0802003F0E4F9002003F050
:10294400E1F905E0802003F0DDF901E0802C01D0FD
:1029540004B010BD044BDB681BB9034B1B7D002B7B
:10296400F6D0FFF729FFF3E7AC0B00205CEF000083
:10297400FCEE0000B4F2000008B5FFF7BFFB084905
:102984000020FFF7B3FB07490120FFF7AFFB06491F
:102994000220FFF7ABFB0548FFF75CFC002008BDF5
:1029A40099260000A922000041230000E52200002E
:1029B40008B5104B93F8B8300BB1002008BD00F0F7
:1029C400C3F918B1FFF7D8FF0020F7E70A4B0B4A09
:1029D4009B1ADB084FF00001012262F302016FF33E
:1029E400C50163F38F110648FEF7ECFF4FF0FF308B
:1029F400E4E700BFAC0B00205CEF0000FCEE00003D
:102A0400D0F2000030B583B005464FF0FF324FF0EE
:102A1400FF332D4807F0D4FD2C4B93F8B830002B2E
:102A24004AD101200AF078FA041E46DB274B1D62C6
:102A3400274C2046FFF714FC204603F051FC03F01A
:102A440085F8041E39DB00F0A9FB041E35DB4023A6
:102A5400ADF8023000238DF804308DF8003068465C
:102A640003F012F9041E28DB80238DF80030684639
:102A740003F00AF9041E20DB1649002003F01CFCB5
:102A8400041E1ADB1349802003F016FC041E14DB19
:102A9400FFF738FE041E10DB002003F0C3F9041E08
:102AA4000BDB802003F0BEF9041E06DB074B01227A
:102AB40083F8B820002400E00024034807F00AFE4D
:102AC400204603B030BD00BFC4030020AC0B00207F
:102AD400492700001528000002460548054B984286
:102AE40004D24368934202D02430F7E700207047B1
:102AF400100500205805002030B58BB001AC1B4DEB
:102B04000FCD0FC42B6823701022002106A80AF0F1
:102B140081FD1222002116480AF07CFD102106A82E
:102B24000AF0B3FF00281DDD083820EAE074002213
:102B340016E0A3180AA90B4413F8103C51000AA884
:102B440000EB131010F8245C094800F8125003F04D
:102B54000F0301310AAD2B4413F8243C43540132D2
:102B6400072AE6DD02480BB030BD00BF04F30000C5
:102B7400700C002070B50446FFF7BEFF20B1054677
:102B84000AF012FD064600B970BD0E480AF00CFDAD
:102B9400864210D00C4B0D4A9B1ADB084FF0000103
:102BA400012262F302016FF3C50163F38F11084838
:102BB400FEF708FFE8E732462946A01C0AF006FDA6
:102BC400E2E700BF04F3000054EF0000FCEE000055
:102BD40018F300002DE9F04182B004464FF00113D0
:102BE400019300252F46A8462E4662E0E378002B89
:102BF4005DD1A3784BB92046FFF76EFF804638B10C
:102C0400836813B13946204698470137FFB24EE036
:102C1400464B474A9B1ADB084FF00002012161F33F
:102C240002026FF3C50263F38F1221464148FEF797
:102C340057FE4FF0FF3073E0B8F1000F18D001AA2F
:102C4400414620460AF016FA88B3384B384A9B1A94
:102C5400DB084FF00001012262F302016FF3C501AA
:102C640063F38F113448FEF7ADFE4FF0FF3057E0A9
:102C74002E4B2F4A9B1ADB084FF00001012262F30E
:102C840002016FF3C50163F38F112C48FEF79AFE1E
:102C94004FF0FF3044E0032D20D01DBB36B3A31BFF
:102CA400B370C3F30723F37037710135EDB22378A2
:102CB4001C4423787BB36378052BF8D801A252F81F
:102CC40023F000BF9B2C0000B32C0000172D000044
:102CD4009B2C0000F12B00003D2C00002046FFF748
:102CE40049FFDAE720460AF0B1F9DEE70F4B104A54
:102CF4009B1ADB084FF00001012262F302016FF31B
:102D0400C50163F38F110E48FEF75CFE4FF0FF30F0
:102D140006E02646CBE7A01C0A4B984203D10020CC
:102D240002B0BDE8F081FFF755FFF9E754EF00006A
:102D3400FCEE000064F30000C8F3000084F300001C
:102D4400E8F300000D05002008B50C48FFF742FF2A
:102D540008B90A4808BD0A4B0A4A9B1ADB084FF017
:102D64000001012262F302016FF3C50163F38F11C5
:102D74000548FEF727FE0020ECE700BFF80300201B
:102D840054EF0000FCEE000008F40000002300E013
:102D94000133032B0CDC9A0106498A5C8242F7D189
:102DA40001EB83125268002AF2D001EB83107047C2
:102DB40000207047840C00202DE9F04182B00446C5
:102DC40010F82C5C50F8283C13F1100F0CD1036957
:102DD40013F0020F62D050F8202C82BB13F0040FC2
:102DE40026D0002344F8283C54F8283C13F1100F53
:102DF4001BD054F8186CC6B154F81C7C54F8148CCD
:102E04000BF09EFA002840F08F80002344F8183C11
:102E1400A4F1100007F0DEFC54F8283C13F18C0FE9
:102E240003D0424639462846B04702B0BDE8F08197
:102E340000231A46194628460AF0E9F8D1E701ABFF
:102E440050F8241C28460AF0E2F8014680B954F8E8
:102E5400243C019A134444F8243C54F8203C9B1A23
:102E640044F8203C54F81C3C134444F81C3CBBE795
:102E7400304A314BD21AD2084FF00003012060F3DC
:102E840002036FF3C50362F38F132A462B48FEF740
:102E94005DFD6FF0150344F8283CA5E701AB50F83D
:102EA400202C50F8241C284603F0C4F80146A0B98D
:102EB40054F8243C019E334444F8243C54F8203C08
:102EC4009B1B44F8203C54F81C3C334444F81C3C01
:102ED400CEB9002344F8283C86E7164A164BD21A8A
:102EE400D2084FF00003012060F302036FF3C5031F
:102EF40062F38F132A461148FEF728FD6FF015037D
:102F040044F8283C70E7284603F0F0F9B6FBF0F3E8
:102F140000FB13600028DCD154F8203C002BD8D0EF
:102F2400284603F001F95FE7214605480BF002FB50
:102F34007BE700BF6CEF0000FCEE000038F40000FB
:102F44004006002070B582B006460C46FFF71EFF0F
:102F5400631EDBB2012B0AD8054650B10BF0F0F921
:102F640008B1012C22D105F12C00FFF725FF02B096
:102F740070BD012CFBD101AB01220DF103013046E0
:102F840003F058F8019B002BF5D10B4B0B4A9B1A0D
:102F9400DB084FF00001012262F302016FF3C50167
:102FA40063F38F110648FEF70DFDE0E705F12C01F0
:102FB40004480BF0BFFADAE76CEF0000FCEE000007
:102FC40058F40000400600202DE9F04705468846E5
:102FD40017461E460AF0F8F8002840F083804FF0A8
:102FE4002003EFF3118983F31288BFF36F8F00245A
:102FF400032C10DCA00100F118033C4818440430F1
:103004000022002307F00AFC08B10134F0E7374836
:1030140000EB841400E0002444B3D4F804A01AF1B3
:10302400100F36D02570C4F80880E76000232361B0
:10303400089B6361E663099BA3616FF00F03636000
:10304400284603F053F9002839D116F0020F44D072
:1030540004F12C0126480BF06DFA4FF0000A89F3B5
:103064001188BFF36F8F5046BDE8F087214B224A89
:103074009B1ADB084FF00001012262F302016FF397
:10308400C50163F38F111D48FEF79CFC6FF00B0A1A
:10309400E5E7184B184A9B1ADB084FF000020121A0
:1030A40061F302026FF3C50263F38F1229461448D9
:1030B400FEF716FC04F11C0007F08CFBCFE7284652
:1030C40003F014F9B7FBF0F300FB13700028BCD035
:1030D400E36B43F00403E363B7E7284603F024F803
:1030E4008246BCE76FF00F0ABDE700BF840C0020E6
:1030F400400600206CEF0000FCEE000074F40000B9
:1031040090F4000010B54FF02003EFF3118483F323
:103114001288BFF36F8FFFF739FE20B10146436871
:1031240013F1100F04D084F31188BFF36F8F10BD17
:103134006FF08B0343602C3101480BF0FBF9F2E78D
:103144004006002038B5002411E0124BA10103EB26
:1031540084126FF08B0050602831194404310E48FA
:103164000BF0E8F985F31188BFF36F8F0134032C5A
:103174000FDC4FF02003EFF3118583F31288BFF3C4
:103184006F8F044B03EB84135B6813F1100FE9D1C9
:10319400DBE738BD840C00204006002070B5002613
:1031A40011E00B4CB50105F1280020440949043015
:1031B4000BF0BAF905F1180020440430012211463D
:1031C4000BF0A3F90136032EEBDD002070BD00BF28
:1031D400840C0020BD2D000070B504460E46154633
:1031E40001791E4809F0BCFF58B194F90020002A67
:1031F40027DB6278202A18D0222A1DD06FF08500A0
:1032040028E0174B174A9B1ADB084FF000020221F3
:1032140061F302026FF3C50263F38F12A1881248AF
:10322400FEF75EFB6FF0120014E0072229680C38E9
:103234000AF0CCF900200DE0A27800F8052C00205B
:1032440008E06278212A06D1A0F10C032B60072341
:103254003360002070BD6FF08500FBE7840D002013
:103264004CEF0000FCEE0000CCF4000010B5044666
:1032740001460D4809F088FF18B1012200F8032C1B
:1032840010BD0A4B0A4A9B1ADB084FF000020221C8
:1032940061F302026FF3C50263F38F1221460548FE
:1032A400FEF71EFBECE700BF840D00204CEF00008E
:1032B400FCEE0000F4F4000008B50169012381F874
:1032C4002B300B6813B191F8293003B908BD0831CC
:1032D40001480BF02FF9F9E74006002008B5016911
:1032E400012381F82A300B6813B191F8283003B90F
:1032F40008BD083101480BF01DF9F9E7400600202C
:1033040010B50346002480F87E4080F87F4080F8A2
:10331400294080F828400A4A92E803005867A3F835
:103324007810090C83F87A1083F87C4083F87B408A
:103334004022214603F12C000AF06CF910BD00BFB5
:10334400F0EF000070B51446066996F87E3013B1AC
:1033540096F87F3093B11A4B1A4A9B1ADB084FF048
:103364000002022161F302026FF3C50263F38F12BC
:1033740021461548FEF7B4FA002070BD002386F8F4
:103384002830306F09F060FA0546844206D806F109
:1033940018010E480BF0CEF82846EEE7084B094A10
:1033A4009B1ADB084FF00002022161F302026FF363
:1033B400C50263F38F12211A0548FEF791FAE6E776
:1033C4004CEF0000FCEE00001CF50000400600205D
:1033D40050F5000070B582B0064614460D1E0FDD90
:1033E4002A4604F12C01E06E09F02EFA854213D826
:1033F400012384F82930236813B194F82B30EBB9F6
:103404000194114B00930123402204F12C01304616
:10341400FFF7DAFD02B070BD0C4B0D4A9B1ADB08B6
:103424004FF00002012161F302026FF3C50263F35E
:103434008F12291A0748FEF753FAD9E704F1080155
:1034440005480BF077F8DBE7D93300004CEF0000B8
:10345400FCEE000050F500004006002038B504469C
:10346400D0F880305D680139052906D8DFE801F01D
:10347400030506374B5FFFF743FF38BD454B464A0C
:103484009B1ADB084FF00001032262F302016FF381
:10349400C50163F38F114148FEF794FA94F87E3026
:1034A4009BB194F82830002BE7D1012384F828300D
:1034B4002368002BE1D094F82A30002BDDD004F1EE
:1034C400080137480BF036F8D7E72B6A224600216B
:1034D400187BFFF77FFF012384F87E30E1E72D4B53
:1034E4002D4A9B1ADB084FF00001032262F302010C
:1034F4006FF3C50163F38F112A48FEF763FA204680
:10350400FFF7FEFEB9E7234B234A9B1ADB084FF073
:103514000001032262F302016FF3C50163F38F110B
:103524002148FEF74FFA012384F87F30A5E7194BB1
:10353400194A9B1ADB084FF00001032262F30201CF
:103544006FF3C50163F38F111848FEF73BFA94F843
:103554007F30002B91D00F4B0F4A9B1ADB084FF0A2
:103564000001032262F302016FF3C50163F38F11BB
:103574000F48FEF727FA002384F87F3094F87E3052
:10358400002B3FF47AAF2B6A22460021187BFFF709
:1035940021FF72E74CEF0000FCEE000074F5000020
:1035A4004006002088F500009CF50000B0F50000FE
:1035B400C0F5000070B504460D46164601460E4897
:1035C40009F0BCFD28B1324629468038FFF746FF92
:1035D40070BD0A4B0A4A9B1ADB084FF00002022115
:1035E40061F302026FF3C50263F38F1221460548AB
:1035F400FEF776F9ECE700BF840D00204CEF0000E5
:10360400FCEE0000D0F5000030B585B005694368D4
:10361400A1228DF8042020228DF805200024ADF885
:103624000640ADF808400222ADF80A20ADF80C10AF
:1036340085F87D40186A23460A2201A9007909F019
:10364400E6FC95F87D304BB901200BF0BAF9013452
:10365400044B9C42F5D96FF0040000E0002005B053
:1036640030BD00BFA086010010B582B08DF80710F0
:10367400046994F87E3013B194F87F308BB1284BF1
:10368400284A9B1ADB084FF00001032262F302016F
:103694006FF3C50163F38F112348FEF793F902B06A
:1036A40010BD002384F8283001220DF10701206F9A
:1036B40009F0CAF8E0B91A4B1A4A9B1ADB084FF012
:1036C4000001032262F302016FF3C50163F38F115A
:1036D4001648FEF777F901220021206F09F01EF940
:1036E40060B101220DF10701206F09F0ADF828B196
:1036F40004F118010E480AF01DFFD0E7084B094AEF
:103704009B1ADB084FF00001012262F302016FF300
:10371400C50163F38F110748FEF754F9BFE700BFF3
:103724004CEF0000FCEE0000F4F5000014F600007D
:103734004006002034F6000010B51446012382F838
:103744002830136813B192F82A3023B9206F09F096
:103754002DF830B110BD02F1080105480AF0EAFE67
:10376400F4E704F1180102480AF0E4FEF2E700BFAE
:103774004006002010B50469C4F8800004F18403F5
:103784000022C4F884200B4A526872B11360094ABB
:103794005360094904F108000AF0C6FE074904F120
:1037A40018000AF0C1FE002010BD024A53601360E5
:1037B400EFE700BF840D0020FDD10000C5370000F5
:1037C400F0B585B00446A0F11807836E5B681B6AE8
:1037D4001D7D284609F0F8FC08B105B0F0BD4FF492
:1037E400007203A9A06D09F04FF806460028F4D032
:1037F40010F03F0F00D1461E0197064B00930223A1
:10380400324603992846FFF7DFFB3146A06D09F0E5
:1038140067F8E2E73D37000030B583B0084D002477
:1038240000944FF0FF334FF480620649284607F0B6
:103834003FF90549284606F0D5FD204603B030BDC2
:1038440040060020E8230020C4F6000070B584B0D0
:103854002A4B1C7D04F01F0301229A406109284B66
:1038640003EB8103D043D3E8EF1F01EA0005C3E86B
:10387400E65F002EF7D10A423DD004EB44039A00E0
:10388400204B134493E8070004AB03E907001E4BE5
:1038940063B109F067F84FF02003EFF3118683F367
:1038A4001288BFF36F8F194B1D680AE0002383F35E
:1038B4001188BFF36F8FEEE72B460DB12B686BB108
:1038C4001D465DB1AA68002AF6D00C4B1B7D03EBA4
:1038D400430399000B4B585C9047EDE786F311883E
:1038E400BFF36F8F074804EB4404A2008118002340
:1038F40083504B608B6004B070BD00BFC01E0020BD
:10390400940D0020980D002069C900008C0D002042
:10391400F0B589B005464E4B1C7D04F01F0301220F
:103924009A4061094B4B03EB8103D3E8EF1F41EA53
:103934000200C3E8E60F002EF7D10A4216D004EBCA
:103944004403454A12F82330002B7FD0B5F1FF3FE2
:103954001CD107F069F94FF02003EFF3118683F3CC
:103964001288BFF36F8F3D4B1D682AE004EB4406B9
:10397400394B03EB86066F462A462146384609F042
:1039840067FD97E8070086E80700D8E704EB4403DF
:1039940002EB83039B68590CD803314E314A002350
:1039A40080194FF0000646EB0101FCF7D1FB012121
:1039B400281A0AF0D7FFCCE72B460DB12B686BB160
:1039C4001D465DB16A68002AF6D0214B1B7D03EBCE
:1039D4004303214911F823009047EDE786F311884A
:1039E400BFF36F8F04F01F030121994063091E4A3E
:1039F40002EB8303D3E8EF2F0A43C3E8E02F002848
:103A0400F8D104EB4403144A02EB830393E8070060
:103A140008AB03E90700154B0BB1FDF7A5FCFFF755
:103A240015FF07F0FFFA012004F01F020123934061
:103A34006409084A02EB8404DB43D4E8EF2F1A40FC
:103A4400C4E8E12F0029F8D109B0F0BD0020EBE76C
:103A5400C01E0020A40D0020980D00208C0D002015
:103A64003F420F0040420F00940D00206D130000F0
:103A740008B5024807F04AFF08BD00BFD4F60000AD
:103A840008B308B54368042B07D0082B12D0FBB148
:103A9400006806F01FFE002014E003680022D3E84B
:103AA400EF1F012903D1C3E8E02F0028F7D10DD17E
:103AB400104607E003681B7803F580730020054A6D
:103AC40042F8230008BD6FF4E04070470248F9E76C
:103AD4000248F7E700000350E98FFFFFEA8FFFFF7A
:103AE40070B308B54368042B04D0082B0FD0C3B9B6
:103AF40015480BE003680122D3E8EF1F002903D126
:103B0400C3E8E02F0028F7D116D1002008BD0368D0
:103B14001B7803F580730D4A52F8233073B90020E3
:103B2400F4E700684FF0FF324FF0FF3306F048FD32
:103B34000028EBD00648E9E70548E7E70448E5E74D
:103B44006FF4E040704700BFEA8FFFFF00000350AE
:103B5400E98FFFFF10B5044688B16368042B0DD0CC
:103B6400082B0BD053B113F0020F0DD02146094896
:103B74000AF0AEFB002323600023636010BD064BF4
:103B84005B6806489847E8E714220021206809F09A
:103B940041FDF1E7A80D0020DC020020DCF6000066
:103BA40010B5044678B16368042B0BD0082B09D0F8
:103BB4000BB9236863B120680AF017FC636843F00B
:103BC4000103636010BD0F4B5B680F489847EAE739
:103BD4004FF0FF324FF0FF3321460C4806F0ACFBA8
:103BE40008B923681BB9074B5B6809489847142236
:103BF4000021206809F00EFD636843F0020363604E
:103C0400D9E700BFDC020020DCF60000A80D00208C
:103C140004F7000008B540231422044904480AF0BC
:103C240049FB0449044807F0CFFE08BDC40D002039
:103C3400A80D002044F7000034F7000001491022C9
:103C44000A60704710ED00E072B6404080F31188BE
:103C5400BFF36F8FBFF34F8F30BF62B6BFF36F8F69
:103C6400704700BF72B6494081F3118820BF80F3CA
:103C7400118862B6704700BF70B582B004461F4D0C
:103C84001F4BED1AED0801264FF0000366F3020303
:103C94006FF3C50365F38F13ADF800308368426892
:103CA40001681848FDF7DEFD4FF0000366F30203D8
:103CB4006FF3C50365F38F13ADF8003063692269B0
:103CC400E1681148FDF7CEFD4FF0000266F30202F1
:103CD4006FF3C50265F38F12E1690C48FDF700FE2E
:103CE4004FF0000266F302026FF3C50265F38F1210
:103CF400A1690748FDF7F4FD02B070BD2CEF000088
:103D0400FCEE000058F7000088F70000B8F7000048
:103D1400C8F7000043B2002B08DB00F01F005B096A
:103D2400012202FA00F0024A42F82300704700BF61
:103D340000E100E043B2002B0DDB00F01F005B0943
:103D4400012202FA00F02033034A42F82300BFF3B1
:103D54004F8FBFF36F8F704700E100E04209054BBE
:103D640053F8222000F01F00012303FA00F0104052
:103D7400704700BF00E100E0013143B2002B08DBD3
:103D84004901C9B203F1604303F5614383F80013A9
:103D9400704700F00F004901C9B2014B1954704734
:103DA40014ED00E030BFFFF7FDBF00BF08B50B4BBB
:103DB4000B4A22F07F029A60BFF34F8FBFF36F8FDD
:103DC400D3F8882022F47002C3F8882006F052FA4F
:103DD40007F0B8FA00F08AFC06F058FA00ED00E0AB
:103DE400000000000A4A9368C3F8A800094909685A
:103DF400C3F8AC1008494B6843F080534B60002370
:103E040083F31188BFF36F8F9368D3F8AC007047C6
:103E1400C01E0020E000010000ED00E014498A68A3
:103E24004FF030001044EFF3098C80E8F01F20209D
:103E340080F31288BFF36F8F0E4F4FF00066CA698C
:103E44008A603E60D2F8A8000023C2F8A83080F34C
:103E5400118802F1300090E8F01F8CF3098802F118
:103E6400000004B509F01BFBBDE8044070470000E6
:103E7400C01E002004ED00E01EF0040F0CBFEFF3A1
:103E84000880EFF30980816911F8021C0229FFD030
:103E940001B509F0F2FA01BD10B4A2F120040D49F4
:103EA40021F0010142F8081C42F8203C019B42F831
:103EB4001C3C029B42F8183C039B42F8143C4FF014
:103EC400807342F8043C04650023C0F8A83010BC99
:103ED400704700BF6FBF0000094B9860D0F898305E
:103EE40083F30B88104681F30988002163B681F3BC
:103EF4001188BFF36F8F0022002308F036F800BF4B
:103F0400C01E002001B572B60B4A906900281EBF7E
:103F1400002191610AF04DFA62B6EFF30580A0F139
:103F240010004FEAC0000549014409C99847BDE89B
:103F34000140034908470000C01E0020D4EC0000E3
:103F4400493F0000044B9968D869884203D003496B
:103F54004FF080520A607047C01E002004ED00E05C
:103F640010B55A4B5A4A9B1ADB084FF00001012244
:103F740062F302016FF3C50163F38F115548FDF736
:103F840021FD554B9B6A13F0007F26D1524B9B6A4F
:103F940013F0807F32D1504B9C6A14F480143ED1CC
:103FA4004D4B9B6A13F4002F4BD14B4B9B6A13F47C
:103FB400802F57D1484B9B6A13F4003F63D1464B83
:103FC4009B6A13F4803F6FD1434A936A6FEA0343B9
:103FD4006FEA13439362204610BD3C4B3C4A9B1A44
:103FE400DB084FF00001012262F302016FF3C50107
:103FF40063F38F113948FDF7E5FCC7E7334B344AC7
:104004009B1ADB084FF00001012262F302016FF3F7
:10401400C50163F38F113248FDF7D4FCBBE72B4B8A
:104024002B4A9B1ADB084FF00001012262F30201C4
:104034006FF3C50163F38F112A48FDF7C3FC022413
:10404400AEE7224B224A9B1ADB084FF00001012203
:1040540062F302016FF3C50163F38F112248FDF788
:10406400B1FCA2E7194B1A4A9B1ADB084FF0000176
:10407400012262F302016FF3C50163F38F111B4840
:10408400FDF7A0FC96E7114B114A9B1ADB084FF091
:104094000001012262F302016FF3C50163F38F1182
:1040A4001348FDF78FFC8AE7084B094A9B1ADB0883
:1040B4004FF00001012262F302016FF3C50163F3C3
:1040C4008F110C48FDF77EFC7EE700BF2CEF00004B
:1040D400FCEE0000F8F7000000ED00E010F800002E
:1040E40024F8000040F800006CF800008CF8000090
:1040F400B4F80000D0F8000008B500220A70084B9C
:1041040008495B1ADB084FF00001012060F302014B
:1041140062F3C50163F38F110348FDF753FC08BD37
:104124002CEF0000FCEE0000FCF8000070B5054622
:104134000E461446564B574A9B1ADB084FF00001B3
:10414400012262F302016FF3C50163F38F11524838
:10415400FDF738FC514B9B6A13F0100F26D14F4BDF
:104164009B6A13F0080F32D14C4B9B6A13F0020F79
:104174003ED14A4B9B6A13F0010F67D1474B9B6AB0
:1041840013F0200F73D1454B9B6A13F0100F01D12C
:10419400424B9B6A414A936A43F0FF0393620121B5
:1041A400284609F081F92070002070BD384B394A47
:1041B4009B1ADB084FF00001012262F302016FF346
:1041C400C50163F38F113648FDF7FCFBC7E7304B9D
:1041D400304A9B1ADB084FF00001012262F302010E
:1041E4006FF3C50163F38F112E48FDF7EBFBBBE7BB
:1041F400274B284A9B1ADB084FF00001012262F387
:1042040002016FF3C50163F38F112748FDF7DAFB51
:10421400224B596B9B6A13F0800FAAD01C4B1D4A8A
:104224009B1ADB084FF00002012060F302026FF3D7
:10423400C50263F38F121D48FDF752FB002E98D080
:10424400164A936A23F08003936292E7104B114A53
:104254009B1ADB084FF00001012262F302016FF3A5
:10426400C50163F38F111248FDF7ACFB86E7084BD9
:10427400084A9B1ADB084FF00001012262F3020195
:104284006FF3C50163F38F110A48FDF79BFB7AE7CF
:104294002CEF0000FCEE000020F9000000ED00E02F
:1042A40038F900006CF9000080F9000098F900006A
:1042B400B0F90000D0F9000070B505460E4614466A
:1042C4005E4B5F4A9B1ADB084FF00001012262F348
:1042D40002016FF3C50163F38F115A48FDF772FBB6
:1042E400594B9B6A13F4805F24D1574B9B6A13F498
:1042F400006F30D1544B9B6A13F4007F3CD1524B76
:104304009B6A13F4806F65D14F4B9B6A13F4807FD3
:1043140071D14D4B9B6A13F4005F7DD14A4A936A75
:1043240043F47F4393620121284609F0BDF82070CD
:10433400002070BD414B424A9B1ADB084FF000013C
:10434400012262F302016FF3C50163F38F113F4849
:10435400FDF738FBC9E7394B394A9B1ADB084FF0A4
:104364000001012262F302016FF3C50163F38F11AF
:104374003748FDF727FBBDE7304B314A9B1ADB0872
:104384004FF00001012262F302016FF3C50163F3F0
:104394008F113048FDF716FB2B4B996B9B6A13F476
:1043A400004FACD0254B264A9B1ADB084FF0000285
:1043B400012060F302026FF3C50263F38F122648F3
:1043C400FDF78EFA002E9AD01F4A936A23F4004315
:1043D400936294E7194B1A4A9B1ADB084FF00001C9
:1043E400012262F302016FF3C50163F38F111B48CD
:1043F400FDF7E8FA88E7114B114A9B1ADB084FF0E6
:104404000001012262F302016FF3C50163F38F110E
:104414001348FDF7D7FA81E7084B094A9B1ADB08D2
:104424004FF00001012262F302016FF3C50163F34F
:104434008F110C48FDF7C6FA70E700BF2CEF00009F
:10444400FCEE000000FA000000ED00E018FA0000A5
:104454006CF900002CFA000048FA000060FA000031
:104464007CFA0000D0F9000070B505460C46474BB5
:10447400474A9B1ADB084FF00001012262F3020154
:104484006FF3C50163F38F114248FDF79BFA0023D4
:104494002370414BDE6A16F0020609D13E4BDB6AFB
:1044A400002B17DB3C4BD86A10F0804024D170BD40
:1044B400364B374A9B1ADB084FF00001012262F3A6
:1044C40002016FF3C50163F38F113448FDF77AFAE3
:1044D4000020ECE72D4B2E4A9B1ADB084FF000011D
:1044E400012262F302016FF3C50163F38F112C48BB
:1044F400FDF768FA3046DAE7244B254A9B1ADB08B5
:104504004FF00001012262F302016FF3C50163F36E
:104514008F112448FDF756FAAB6933F8022C4DF697
:1045240002739A420ED003F1604303F626631B78AC
:10453400DBB91D4B1B78F3B91C4B1B889BB203BB27
:104544003046B4E7114B124A9B1ADB084FF00002C5
:10455400012161F302026FF3C50263F38F1229682C
:104564001348FDF7BDF92868A1E722460121284632
:10457400FFF7DCFD9BE7224601212846FFF79CFE5E
:1045840095E72846FFF7ECFC91E700BF2CEF00000D
:10459400FCEE000094FA000000ED00E0ACFA00002C
:1045A400D0FA0000E0FA000029ED00E02AED00E076
:1045B40000FB000008B50A460B480C4BC01AC008A3
:1045C4004FF00003012161F302036FF3C50360F3AD
:1045D4008F130F2A05DC0649103A0648FDF7B6F991
:1045E40008BD0549F8E700BF2CEF0000FCEE000011
:1045F4001CFB000050FB000034FB000070B58AB0C7
:104604002B4B5D68C5F30805002383F31188BFF3C2
:104614006F8F02F07F43B3F17F4F2AD102F00C0376
:10462400082B10D012F0080F20D00C4600260DF1F4
:1046340027022946204608F039FF05469DF8273011
:10464400D3B10AB070BD1B4B1B4A9B1ADB084FF059
:104654000001012262F302016FF3C50163F38F11BC
:104664001648FDF7AFF900263446E0E70446012674
:10467400DDE700263446DAE72022214601A808F0C7
:10468400A5FF4EB1089BC3F308025AB96FEA53233E
:104694006FEA4323089305E0089B23F4FF7323F098
:1046A4000103089301A9284608F0DBFEC9E700BF0F
:1046B40000ED00E02CEF0000FCEE000064FB0000C5
:1046C400044B5A6942F010025A615A6942F48062FA
:1046D4005A61704700ED00E0EFF30880EFF30981C1
:1046E40001B57246FFF78AFF01BD00BF002206E054
:1046F40002F00F01094B0B44202119760132442AA0
:104704000ADC53B2002BF3DB03F1604303F561438E
:10471400202183F80013F1E7704700BFFCEC00E0B0
:10472400002080F31488BFF36F8F002080F30A8881
:1047340080F30B880AF036FA00200E490860BFF3B4
:104744004F8F0D4880F3088800F03CF8202080F358
:1047540011880A484FF40061401880F30988EFF388
:1047640014800221084380F31488BFF36F8FFFF78E
:104774001DFB000094ED00E0E82F0020283100200C
:10478400BFF34F8F0549CA6802F4E062044B134338
:10479400CB60BFF34F8F00BFFDE700BF00ED00E02B
:1047A4000400FA05064B1868C0F30720002383426F
:1047B40005DA034A9360002111610133F7E770477A
:1047C40090ED00E010B572B6002484F31388FFF76F
:1047D400E9FF23460F2B09D803F120010D4A4FF0BE
:1047E400FF3042F821000133DBB2F3E700230F2B43
:1047F40009D803F16001074A4FF0FF3042F8210065
:104804000133DBB2F3E762B6BFF34F8FBFF36F8FB1
:1048140010BD00BF00E100E008B5084B9B6883426F
:1048240002D006F055FD08BDEFF30583002BF8D048
:10483400034A536843F080535360F2E7C01E0020DC
:1048440000ED00E010B584B0094C2346094A01216B
:10485400094808F087FE00230393084B0193E41AE8
:104864000294012101A808F081FE04B010BD00BF2C
:10487400000007200000002094FB000058050020E1
:10488400014B024A1A63704790ED00E0AAFF44000E
:1048940010B40B6823F01F020C7A04F01F031A43B0
:1048A400CB6823F01F03640943EA440343F0010384
:1048B40002498860CA600B6110BC704790ED00E04B
:1048C40010B50446072803D8FFF7E2FF204610BDC1
:1048D400094B0A4A9B1ADB084FF00002012161F3DD
:1048E40002026FF3C50263F38F1201460448FCF71A
:1048F400F7FF6FF01500EAE724EF0000FCEE00007C
:10490400A0FB00002DE9F04F87B081460091019390
:10491400144600265DE06C4B6C4A9B1ADB084FF092
:104924000002012161F302026FF3C50263F38F12E7
:1049340031466748FCF7D4FF6FF0150415E06FF0BB
:10494400150768E0604B614A9B1ADB084FF00002D0
:10495400012161F302026FF3C50263F38F1239463A
:104964005C48FCF7BDFF6FF01504204607B0BDE8B6
:10497400F08FD84567D12946F8B208F0D8FD27E072
:10498400554B9860D96801F01F0122F01F020A43B9
:10499400DA602946E0B208F0CAFD044610F1160FA9
:1049A400E3D0013414E0013B4B4A9060116901F0FB
:1049B4001F0123F01F030B4313612946E0B208F0E3
:1049C400B6FD044610F1160FCFD0013400E00134D7
:1049D4000136009B9E42C8DA06EB46054FEA850A7B
:1049E40009EB8505D5F80480B8F1000FF0D0019BE0
:1049F40023B1284608F089FD00288CD059F80AB064
:104A0400584608F078FD074608EB0B00013808F01B
:104A140072FD874293D117F1160F93D0631EBB42E8
:104A240090DB38462C4B9F60D96821F01F019F60B2
:104A34001B6943F01F0859F80A306A681A4402F1E6
:104A4400FF3B994295D099429AD0D845ABD0013BCF
:104A54002149074688600A6902F01F0223F01F03F8
:104A640013430B612946E0B208F061FD044610F1DE
:104A7400160F3FF47AAF0130174B9F60D9689DF849
:104A8400102061F304028DF810201B69C3F3420364
:104A9400D2B263F347128DF8102059F80A306A68CD
:104AA4001344029323F01F03A8EB0B084344013B78
:104AB40023F01F03059302A9C0B2FFF701FF0446C8
:104AC40010F1160F83D150E724EF0000FCEE000034
:104AD400C8FB0000ECFB000090ED00E010B5034CB7
:104AE40001232278FFF70EFF207010BD1F1F002046
:104AF4002DE9F84307468846002403E06FF01505C6
:104B040017E00134A0453CDD04EB44039A0007EBB5
:104B140083035E68002EF4D057F80290484608F0EC
:104B2400EAFC054606EB0900013808F0E4FC85427E
:104B3400E4D104EB8403164A42F8235015F1160F0E
:104B440020D0144B1B78AB421FDD04EB840302EB33
:104B54008303114A95609560D568187B65F304005A
:104B640018731069C0F342001D7B60F347151D7371
:104B7400D16821F01F015960126922F01F021A61E5
:104B8400BFE700252846BDE8F8836FF01505F9E76F
:104B9400C41200201F1F002090ED00E0034B0522EB
:104BA4005A60BFF34F8FBFF36F8F704790ED00E0F3
:104BB400BFF35F8F014B00225A60704790ED00E015
:104BC40038B50E4B1D68082D15D8FFF7F1FFFFF718
:104BD40057FE0024A54208D9084B596801EB04117B
:104BE4002046FFF755FE0134F4E7054B1D70FFF72F
:104BF400D5FF002038BD4FF0FF30FBE720FC00005C
:104C04001F1F0020014B1860704700BF20020020C6
:104C140000F07F0342B2002A12DB082B02D010F00E
:104C2400780F1DD100F00F03002A10DB10F0080FDD
:104C34001AD109335B0148330C480344181D7047EB
:104C4400082BEFD010F0780FECD00020704710F054
:104C5400080F07D15B01483304480344181D70470B
:104C6400002070470248704702487047D818002057
:104C7400241A0020441B002010B5002405E0E0B2F3
:104C840008F0E8FC08F0F0FC0134072CF7D9002404
:104C940006E0104B03EB8413036108F0E5FC0134D8
:104CA400072C06D8E0B208F0DBFC0369002BF4D132
:104CB400EFE7882008F0CEFC08F0D6FC082008F0C6
:104CC400CFFC03691BB108F0CFFC002010BD024BE0
:104CD4000361F8E7D8160020D812002010B582B07E
:104CE400002201213720FFF747F83720FFF712F899
:104CF4000B4803F0B7FA0B4805F008F900240094B8
:104D04004FF0FF334FF480620749084805F0D0FEA6
:104D14000749084809F008FC204602B010BD00BF4E
:104D240068FE00006CFE0000E82700201007002049
:104D3400B14F00000019002030B583B005460022B1
:104D4400002301A92E4805F0F7FA80B9019C64609C
:104D54005CB100232374257221462A4809F0C9FB5B
:104D6400294B93F82430002B44D103B030BD274B9A
:104D7400274A9B1ADB084FF00001012262F302016B
:104D84006FF3C50163F38F112248FCF71BFE04E0A7
:104D9400011D1B4809F09CFA44B100220023194864
:104DA40005F0DCFC04460028F2D1F5E700220023DC
:104DB40001A9134805F0C0FA80B1144B144A9B1A98
:104DC400DB084FF00001012262F302016FF3C50119
:104DD40063F38F111048FCF7F5FDB9E701994960B9
:104DE40004230B74074809F084FB0C490C4809F0B0
:104DF400A1FBADE709490A4809F09CFBB5E700BFF0
:104E040058030020E8030020D818002064EF0000B5
:104E1400FCEE000048FC000068FC000000190020C3
:104E24001007002008B5012814D0022815D098B125
:104E34000B4B0C4A9B1ADB084FF00002012161F373
:104E440002026FF3C50263F38F1201460648FCF7B2
:104E540047FD04E0002000E00120FFF76DFF08BDDE
:104E640064EF0000FCEE000084FC000030B583B069
:104E74000820FFF7CDFE20B10546037A93B903B0AD
:104E840030BD404B404A9B1ADB084FF00001012221
:104E940062F302016FF3C50163F38F113B48FCF722
:104EA40091FDECE70123437703770022002301A956
:104EB400374805F041FA80B9019C6460002C4FD05A
:104EC400012323742373A5602146324809F011FBA2
:104ED4003149324809F02EFBD1E72A4B2A4A9B1A62
:104EE400DB084FF00001012262F302016FF3C501F8
:104EF40063F38F112A48FCF765FD00E064B10022DA
:104F04000023244805F02AFC04460028F6D0011D9D
:104F14001F4809F0DDF9F1E70022002301A91C482C
:104F240005F00AFA80B1174B174A9B1ADB084FF0B9
:104F34000001012262F302016FF3C50163F38F11D3
:104F44001848FCF73FFDB9E70199496004230B7445
:104F5400104809F0CEFA1049104809F0EBFAADE711
:104F6400084B094A9B1ADB084FF00001012262F347
:104F740002016FF3C50163F38F110B48FCF722FDA7
:104F84007DE700BF64EF0000FCEE0000A0FC000021
:104F940058030020E8030020001900201007002017
:104FA40048FC000068FC0000B4FC00002DE9F04F50
:104FB40085B005468FE1211DB54809F089F98AE1DC
:104FC40015F8043C4BB1D4F808A0237B032B00F262
:104FD4007E81DFE803F014619DA4AE4BAE4A9B1AB8
:104FE400DB08012262F302076FF3C50763F38F172F
:104FF400A3683A46597AA948FCF772FCE3E7DAF861
:1050040014B008220021584608F004FBA44BD3F83E
:1050140080248BF80020D3F884248BF80120D3F863
:10502400882492B2D3F88C14090289B20A43ABF8EB
:105034000220D3F8902492B2D3F89414090289B2CE
:105044000A43ABF80420D3F8982492B2D3F89C34E2
:105054001B029BB21343ABF806300822CAF80C209B
:105064005946904808F0B2FADAF8003000219AF86C
:10507400090098479BF90030002B02DBBBF806308F
:1050840023B9894B0022A3F88C2220E1864AA2F896
:105094008C3204F0A1FA1AE19AF81D30002B00F0CA
:1050A40016819AF81C30002B00F011814FF0000B90
:1050B4008AF81DB08AF81CB04FF0FF324FF0FF336E
:1050C4007A4805F07DFADAF814300193DAF80430FE
:1050D4000293CDF80CB001A99AF8090003F06CFE14
:1050E4000146734B984203D1704805F0F3FAEEE0A1
:1050F400684B694A9B1ADB08012262F302086FF3CA
:10510400C50863F38F1842466A48FCF7E9FBEBE7EE
:10511400DAF8003001219AF809009847D7E09AF8A4
:105124000A3013B99AF81F3033B1DAF8003002218B
:105134009AF809009847CAE0DFF870B14FF0FF32DF
:105144004FF0FF33584605F03BFA04F08FFA584607
:1051540005F0C0FAE9E7237A042B00F2B880DFE80F
:1051640003F022030E35440003F0B4FD002840F0A0
:10517400AE8003F0F9FC4C4808F0D9FAA7E0DFF858
:1051840028A1504608F0A1FA012003F087FD01236D
:105194008AF82530DAF80030002B00F098800021DE
:1051A4000220984793E0DFF800A100238AF8253015
:1051B40004F0F8FC504608F06BFADAF80030002BE3
:1051C40000F0858000210420984780E0364B93F856
:1051D4002530002B7BD004F007FD334B1B68002BDC
:1051E40075D000210520984771E02F4B1B68002BD8
:1051F4006DD02D4A92F82520002A68D0002106207F
:10520400984764E005F1100A4FF0FF324FF0FF3386
:10521400504605F0D5F9FFF72FFD504605F05AFA30
:1052240055F8283C002B52D00021012098474EE02D
:10523400FFF71CFE55F8283C002B48D000210A201B
:10524400984744E0134B144A9B1ADB08012262F38B
:1052540002066FF3C50663F38F1631461648FCF752
:10526400B1FB04F03FFE04F09DFC03F073FC06E088
:10527400011D074809F02CF8BAF1000F20D00022D4
:1052840000230E4805F06AFA82460028F0D1F3E7BD
:105294005803002064EF0000FCEE0000C8FC00008E
:1052A40000600350DC180020D818002010190020DA
:1052B4000000AD0BF0FC000018FD0000E803002026
:1052C400FFF7DAFC04F006FE1C4803F01DFD211D67
:1052D4001B4808F0FDFF002200231A4805F03EFA9F
:1052E400044638B3184B93F825301BB9237C002BA4
:1052F4007FF461AE217C04290CD801A353F821F07A
:105304005B510000C54F00000952000035520000F7
:10531400495200000D4B0E4A9B1ADB08012262F32E
:1053240002096FF3C50963F38F194A460948FCF76C
:10533400D7FACCE705B0BDE8F08F00BFB95900003B
:1053440058030020E8030020D818002064EF000070
:10535400FCEE000030FD000070B582B00446867893
:105364003046FFF755FC054616F0800F22D1E17850
:10537400002900F0D880012940F05C81002200233C
:1053840001A9B64804F0D8FF002840F08980019CA8
:105394006460002C00F05F8101236B772374237316
:1053A400A5602146AE4809F0A4F8AE49AE4809F01C
:1053B400C1F850E1E178A1B1032900F04C81AB4A76
:1053C400AB4BD21AD2084FF00003012060F3020362
:1053D4006FF3C50362F38F133246A648FCF7B6FA9F
:1053E40039E10022002301A99C4804F0A5FFA0B9DB
:1053F400019C6460002C00F02E810023AB77012314
:10540400237403232373A5602146954809F071F89A
:105414009449954809F08EF81DE1944B944A9B1ADF
:10542400DB084FF00001012262F302016FF3C501B2
:1054340063F38F119048FCF7C5FA00E064B10022D1
:105444000023874805F08AF904460028F6D0011D98
:10545400824808F03DFFF1E70022002301A97F48BC
:1054640004F06AFF80B1814B814A9B1ADB084FF03C
:105474000001012262F302016FF3C50163F38F118E
:105484007E48FCF79FFAB5E70199496004230B7441
:10549400734809F02EF87349734809F04BF8A9E7EB
:1054A400724B734A9B1ADB084FF00001012262F32E
:1054B40002016FF3C50163F38F116F48FCF782FAA1
:1054C40004E0011D654808F003FF44B100220023F5
:1054D400634805F043F904460028F2D1F5E70022B9
:1054E400002301A95D4804F027FF80B15F4B604AA7
:1054F4009B1ADB084FF00001012262F302016FF3F3
:10550400C50163F38F115D48FCF75CFA41E701992B
:10551400496004230B74524808F0EBFF5149524888
:1055240009F008F835E70022002301A94B4804F0EC
:1055340003FF20BB019E7660002E00F08C800123C7
:10554400337402233373B56005F10C01A07803F0C2
:10555400C9FC0146002855D1494BB3F88C32EA689E
:10556400934260D8464B0022A3F88C2231463C4833
:1055740008F0BFFF3B493C4808F0DCFF6BE03B4BC5
:105584003B4A9B1ADB084FF00001012262F302013F
:105594006FF3C50163F38F113748FCF713FA04E086
:1055A400011D2E4808F094FE46B1002200232C4829
:1055B40005F0D4F806460028F2D1F5E700220023CE
:1055C40001A9264804F0B8FE80B1284B284A9B1A4A
:1055D400DB084FF00001012262F302016FF3C50101
:1055E40063F38F112548FCF7EDF9A5E701994960AC
:1055F40004230B741A4808F07CFF1A491A4808F06F
:1056040099FF99E7194B1A4A9B1ADB084FF00002DD
:10561400012060F302026FF3C50263F38F1219488D
:10562400FCF75EF998E79B1A154AA2F88C3203F04E
:10563400D3FF9BE70D4A0E4BD21AD2084FF000035A
:10564400012060F302036FF3C50362F38F13324644
:105654000848FCF77BF902B070BD00BF5803002076
:10566400E8030020001900201007002064EF000068
:10567400FCEE000048FD000048FC000068FC00004F
:10568400D818002074FD000070B582B004468678F6
:105694003046FFF7BDFA054616F0800F22D1E178B7
:1056A400002900F0D880012940F05D810022002308
:1056B40001A9B64804F040FE002840F08980019C0E
:1056C4006460002C00F0608101236B7723742373E2
:1056D400A5602146AE4808F00CFFAE49AE4808F07C
:1056E40029FF51E1E178A1B1032900F04D81AB4AD2
:1056F400AB4BD21AD2084FF00003012060F302032F
:105704006FF3C50362F38F133246A648FCF71EF904
:105714003AE10022002301A99C4804F00DFEA0B93F
:10572400019C6460002C00F02F810023AB770123DF
:10573400237403232373A5602146954808F0D9FEFA
:105744009449954808F0F6FE1EE1944B944A9B1A3E
:10575400DB084FF00001012262F302016FF3C5017F
:1057640063F38F119048FCF72DF900E064B1002237
:105774000023874804F0F2FF04460028F6D0011DF8
:10578400824808F0A5FDF1E70022002301A97F4823
:1057940004F0D2FD80B1814B814A9B1ADB084FF0A3
:1057A4000001012262F302016FF3C50163F38F115B
:1057B4007E48FCF707F9B5E70199496004230B74A7
:1057C400734808F096FE7349734808F0B3FEA9E7DE
:1057D400724B734A9B1ADB084FF00001012262F3FB
:1057E40002016FF3C50163F38F116F48FCF7EAF808
:1057F40004E0011D654808F06BFD44B1002200235C
:10580400634804F0ABFF04460028F2D1F5E7002218
:10581400002301A95D4804F08FFD80B15F4B604A0D
:105824009B1ADB084FF00001012262F302016FF3BF
:10583400C50163F38F115D48FCF7C4F841E7019992
:10584400496004230B74524808F053FE51495248EE
:1058540008F070FE35E70022002301A94B4804F04C
:105864006BFDF0B9019E7660002E00F08D80A37868
:1058740094F90220002A57DB13F0080F67D04C4B31
:10588400D3F8A837EB600123337402233373B56074
:1058940031463F4808F02DFE3E493F4808F04AFE95
:1058A40072E03E4B3E4A9B1ADB084FF00001012296
:1058B40062F302016FF3C50163F38F113A48FCF7F9
:1058C40081F804E0011D314808F002FD46B10022D0
:1058D40000232F4804F042FF06460028F2D1F5E7E2
:1058E4000022002301A9294804F026FD80B12B4B96
:1058F4002B4A9B1ADB084FF00001012262F30201DC
:105904006FF3C50163F38F112848FCF75BF8ABE72D
:105914000199496004230B741D4808F0EAFD1D49F0
:105924001D4808F007FE9FE713F0080F03D0204B33
:10593400D3F8A836A6E703F00F0303EB83039B0019
:1059440003F1A04303F55833D3F808369AE703F07C
:105954000F0303EB83039B0003F1A04303F55833C8
:10596400D3F808378EE70D4A0D4BD21AD2084FF000
:105974000003012060F302036FF3C50362F38F1386
:1059840032460848FBF7E2FF02B070BD580300201E
:10599400E8030020001900201007002064EF000035
:1059A400FCEE000048FD000048FC000068FC00001C
:1059B4000060035010B588B000230393049305934B
:1059C400069307930378013B052B26D8DFE803F001
:1059D4003503272E533900238DF81C3003238DF80B
:1059E40014300022002301A9504804F0A5FC00282B
:1059F40059D1019C646084B19DF81C30237404F176
:105A040008030699059883E803002146484808F0EE
:105A140070FD4849484808F08DFD08B010BD0023CA
:105A24008DF81C3004238DF81430DAE700238DF848
:105A34001C3004238DF81430D3E702238DF81C3076
:105A4400CFE704468078FFF7E3F8837A012B0ED082
:105A540005D8002BE1D12046FFF77EFCDDE7023BB1
:105A6400DBB2012BD9D82046FFF70EFED5E720463E
:105A7400FFF70AFED1E701A803F082FD9DF8053087
:105A8400052B0AD00020FFF7C3F801238DF81C3042
:105A9400059000238DF81830A3E79DF8043013F027
:105AA400600FBAD0EEE7254B254A9B1ADB084FF06E
:105AB4000001012262F302016FF3C50163F38F1148
:105AC4002048FBF77FFF04E0011D184808F000FCA4
:105AD40044B100220023164804F040FE0446002886
