:10000000580F0020311A00005F570000E919000066
:10001000E9190000E9190000E9190000E9190000D8
:10002000000000000000000000000000F5160000C5
:10003000E91900000000000099160000E91900000D
:100040008117000081170000811700008117000050
:100050008117000081170000811700008117000040
:100060008117000081170000811700008117000030
:100070008117000081170000811700008117000020
:100080008117000081170000811700008117000010
:100090008117000081170000811700008117000000
:1000A00081170000811700008117000081170000F0
:1000B00081170000811700008117000081170000E0
:1000C00081170000811700008117000081170000D0
:1000D00081170000811700008117000081170000C0
:1000E00081170000811700008117000081170000B0
:1000F00081170000811700008117000081170000A0
:10010000811700008117000081170000811700008F
:10011000811700008117000081170000811700007F
:10012000811700008117000081170000811700006F
:10013000811700008117000081170000811700005F
:10014000811700008117000081170000811700004F
:040150008117000013
:1001540053B94AB9002908BF00281CBF4FF0FF312A
:100164004FF0FF3000F070B9ADF1080C6DE904CE2A
:1001740000F006F8DDF804E0DDE9022304B070477E
:100184002DE9F047089E0D4604468A46002B7FD190
:100194008A42174641D9B2FA82F24AB1C2F1200129
:1001A40005FA02F39740944020FA01F141EA030A68
:1001B4004FEA17484FEA144C1FFA87F9BAFBF8FEC6
:1001C40008FB1EA30EFB09F14CEA0343994206D92E
:1001D400FB1802D2994200F224810EF1FF3E591A13
:1001E400A3B2B1FBF8F008FB101100FB09F943EAD4
:1001F4000144A14505D93C1902D2A14500F20E8162
:100204000138A4EB090440EA0E4000211EB1D44099
:100214000023C6E90043BDE8F08702B9FFDEB2FA65
:1002240082F2002A4FD1CB1B4FEA174E1FFA87F8F0
:100234000121250CB3FBFEFC0EFB1C302B4608FBF6
:100244000CF945EA0045A9450AD97D192CBF0123BB
:100254000023A94502D9002B00F0D9800CF1FF3C02
:10026400A5EB0905A3B2B5FBFEF00EFB105508FB88
:1002740000F843EA0544A04505D93C1902D2A0453B
:1002840000F2C9800138A4EB080440EA0C40BDE741
:100294008B4208D9002E00F0B1800021C6E9000588
:1002A4000846BDE8F087B3FA83F1002946D1AB4292
:1002B400C0F0A780824240F2A4800846002EAAD053
:1002C400C6E9004AA7E7C2F12000974001FA02F309
:1002D4004FEA174EC14024FA00F51FFA87F89440FC
:1002E4001D43B1FBFEF02B0C0EFB101100FB08FCB0
:1002F40043EA01439C4509D9FB182CBF0121002185
:100304009C4502D9002900F095800138A3EB0C0329
:10031400ADB2B3FBFEF10EFB113301FB08FC45EA61
:100324000345AC4505D97D1902D2AC4500F289805C
:100334000139A5EB0C0341EA00417AE7C1F120043D
:100344008B4002FA01F705FA01FCE24020FA04F8B6
:10035400E54000FA01FE134348EA0C024FEA134851
:100364004FEA124C1FFA83F9B5FBF8FA08FB1A5549
:100374000AFB09F04CEA054C60450AD913EB0C0C56
:100384002CBF01250025604501D9002D55D00AF167
:10039400FF3AACEB000C92B2BCFBF8F008FB10CCBB
:1003A40000FB09F942EA0C4CE14505D913EB0C0CAE
:1003B40001D2E1453BD8013840EA0A40ACEB090CD4
:1003C400A0FB0789CC4545464A4602D306D1C6451B
:1003D40004D20138B8EB070569EB03022EB3BEEB78
:1003E40005036CEB020C23FA01F20CFA04F42CFA68
:1003F40001F300211443C6E900430CE731463046BB
:1004040009E7841A65EB030301209A4656E7ACF129
:10041400020C3D4424E702383C4434E702383C44AF
:10042400EFE6AEF1020E3B44D9E63146F3E602387C
:100434009C44C1E702383B4468E7AAF1020A9C44A1
:10044400A7E702393D4474E7704700BF70B52C48F4
:1004540003F096FC002851D00446816802691368B1
:1004640043F0805313600B6840F201621C219847EB
:100474000546A1682269136843F0005313600B68B2
:1004840040F201621D2120469847002D36DB0028EA
:1004940034DB01251BE02B4613B3A368DB684FF064
:1004A40080512046984785F0010523691B6813F0A5
:1004B400005F00D12E46D6B1A368DB684FF000512F
:1004C4002046984740F26760002104F06DFB2E46F9
:1004D40023691B6813F0805FDDD085F00103DBE73F
:1004E400A3681B694FF0805120469847DBE7A36857
:1004F4001B694FF0005120469847E3E770BD00BFE9
:100504009868000008B50B6801330B60014B1B6849
:10051400984708BD00000020014B1860704700BFD9
:100524000000002000B583B002460B460021019173
:1005340001A9034800F0C8F803B05DF804FB00BF4C
:100544000905000010B584B0044601900291002111
:10055400039101A9054800F0B7F8039B029A93425E
:1005640001DA0022E254039804B010BDC552000021
:100574002DE9F04383B0044608461546238B13F057
:10058400080F05D103F0070600230093019369E0E7
:10059400012909D043F02003238385F31188BFF395
:1005A4006F8F03B0BDE8F08343F010032383F4E7B7
:1005B400204604F0E0FE57E0D4F814904A46694619
:1005C400204604F0F1FE00275AE023691F68062143
:1005D400204604F0A9FE4FF0000951E023695F684A
:1005E4000421204604F0A0FE4FF0000948E02369EE
:1005F4009F680521204604F097FE4FF000093FE074
:10060400002246E0002244E043F00803238385F3FC
:100614001188BFF36F8F002944D1009B2BB14B4647
:1006240042466946204604F035FF17B12549204665
:10063400B8474FF02003EFF3118583F31288BFF31B
:100644006F8F238B23F008032383238B13F0100F66
:100654002ED023F0100323830120268B06F00706F7
:1006640000289AD00228A3D0002896D00128A3D02D
:100674000328AAD00428B1D00528B8D00027B94649
:10068400238B03F00708B045BAD0A268002AB9D07A
:1006940001221146002AB7D1009A002AB4D1002FB2
:1006A400B2D1D2E74A464146204604F045FEB4E7BB
:1006B40013F0200F04D023F0200323830220CCE77F
:1006C4000020CAE7C75400002DE9F04F93B0064656
:1006D4000D469246039300249AF80000002800F087
:1006E400D684252808D00AF1010A2946B0470028F3
:1006F400C0F2CE840134EFE70023069307930B93F3
:10070400089309930A930AF101089AF80130252BFA
:1007140001D001272CE00AF102088DF82330A8E16A
:100724009DF8203043F004038DF82030FFB108F128
:1007340001081CE09DF8203043F008038DF82030B8
:10074400F4E79DF8203043F010038DF82030EDE7F6
:100754009DF8203043F020038DF82030E6E79DF823
:10076400203043F040038DF82030DFE700274FB3FB
:1007740098F80030203B102BF8D801A252F823F04F
:1007840047070000710700007107000055070000CB
:100794007107000071070000710700007107000075
:1007A400710700007107000071070000390700009D
:1007B40071070000250700007107000071070000A1
:1007C400630700009DF8203003F04403442B6DD0F0
:1007D400CDF814809DF8203043F080038DF820304C
:1007E40098F800302A2B68D005A804F0FAFE059B7F
:1007F400984512D09DF8203043F080038DF82030C6
:100804000990C3F34003002860DB002213439DF8E2
:10081400202063F341028DF82020059B05931B786B
:100824002E2B14BF002301239DF8212063F34102E2
:100834008DF82120002B4BD0059B5A1C05925B7828
:100844002A2B48D005A804F0CCFE0A909DF820304D
:10085400C3F34003002847DB002213439DF8202004
:1008640063F341028DF82020DDF8148098F80030FD
:100874004C3B2E2B00F2DC80DFE803F0CADADADA34
:10088400DADADADADADADADADADADADADADADADAC4
:10089400DADADADADADADADA38DA6ADA51DADADA4F
:1008A400DADADADAC0DADADADADAB6009DF820303F
:1008B4006FF386138DF820308AE79DF8213043F0DA
:1008C40001038DF8213043460133A7E701229DE758
:1008D400DDF81480CAE79DF8213043F004038DF855
:1008E400213002F10108C1E70122B6E708F1010253
:1008F40098F80130682B08D09DF82130022161F36B
:10090400C6038DF8213090462BE09DF8213001225A
:1009140062F3C6038DF8213008F1020821E008F1E2
:10092400010298F801306C2B08D09DF82130032186
:1009340061F3C6038DF82130904612E09DF8213012
:10094400042262F3C6038DF8213008F1020808E09E
:100954009DF82130052262F3C6038DF8213008F199
:10096400010818F8013B8DF82330A3F14102372A1E
:1009740000F25081DFE812F026014E014E014E01D3
:100984002601260126014E014E014E014E014E0163
:100994004E014E014E014E014E014E014E014E01DB
:1009A4004E014E014E0113014E014E014E014E0106
:1009B4004E014E014E014E0126014E01130163000A
:1009C4002601260126014E0163004E014E014E010F
:1009D4004E012F0113013F014E014E013F014E0113
:1009E40013014E014E0113019DF82130062262F3DA
:1009F400C6038DF8213008F10108B2E79DF82130D3
:100A0400072262F3C6038DF8213008F10108A8E734
:100A14009DF82130082262F3C6038DF8213008F1D5
:100A240001089DF8203043F002038DF8203098E748
:100A34009DF821306FF3C6038DF8213091E79DF8BE
:100A44002220012161F302028DF822209DF8212049
:100A540002F07802402A00F0AA80632B00F0AE80F6
:100A64009DF82030C3F34002174367F341038DF828
:100A740020309DF8213013F0010F00F0DA80039B41
:100A84001A1D03921F68002FC0F2CB809DF82130FD
:100A940013F0040F00F0DF80039B1A1D0392D3F8B8
:100AA40000B0BBF1000FC0F2CD80002309930A937C
:100AB4009DF8223003F007039DF82110C1F3C30110
:100AC400012B00F0D180022B00F01681042B00F0E2
:100AD4006781032B00F07E819DF8209019F00303B9
:100AE400029340F07D819DF82330253B532B00F287
:100AF4003382DFE813F08101310231023102310225
:100B04003102310231023102310231023102310249
:100B14003102310231023102310231023102310239
:100B24003102310231023102310231023102310229
:100B34003102310231023102310231023102310219
:100B44003102310231023102310231023102310209
:100B5400310231023102310231023102C701310264
:100B640031023102310231023102310231023102E9
:100B74003102A101AB013102310231023102AB0178
:100B840031023102310231020802C701EA013102A5
:100B940031028F013102C70131023102C7019DF8D0
:100BA4002220022161F302028DF822204EE79DF8F3
:100BB400201041F001018DF820104EE7171E18BFD8
:100BC40001274DE79DF82230042262F302038DF8D9
:100BD4002230012744E79DF82230032262F3020306
:100BE4008DF822309DF8213003F07803402B7FF4F8
:100BF40037AF012734E79DF82230032262F3020362
:100C04008DF822309DF8213013F0780F3FF428AF8F
:100C1400012725E79DF8203043F001038DF82030AB
:100C24001EE79DF8203043F004038DF820307F4206
:100C34002CE79DF92030002B02DB4FF0FF3725E72E
:100C4400099F23E79DF821306FF341038DF821308C
:100C54004FF0FF3B29E713F0020F02D0DDF828B074
:100C640023E74FF0FF3B20E7CB1E042B04D8DFE83B
:100C740003F00B1D29353500039B1A1D03921A68D6
:100C8400D317CDE9062306E0039B1A1D03921A68C5
:100C9400D317CDE90623012928D002297FF41CAFFC
:100CA400BDF91820D317CDE9062315E7039B0733B5
:100CB40023F0070303F108020392D3E90023CDE9EB
:100CC4000623E8E7039B073323F0070303F1080235
:100CD4000392D3E90023CDE90623DCE7039B1A1D25
:100CE40003921A68D317CDE90623D4E79DF8183088
:100CF400069300230793EFE6CB1E042B04D8DFE80A
:100D040003F00B1F35414100039B1A1D03921B681E
:100D14000693002307931EE09DF82330632B07D02E
:100D2400039B1A1D03921B6806930023079312E08A
:100D3400039B1A1D03921B680693002307930AE082
:100D4400039B073323F0070303F108020392D3E95B
:100D54000023CDE9062301291CD002297FF4BCAE6F
:100D6400BDF81830069300230793B5E6039B0733B9
:100D740023F0070303F108020392D3E90023CDE92A
:100D84000623E8E7039B1A1D03921B6806930023BE
:100D94000793E0E79DF818300693002307939BE63A
:100DA40008290BD0039B073323F0070303F1080240
:100DB4000392D3E90023CDE906238DE6039B073391
:100DC40023F0070303F108020392D3E90023CDE9DA
:100DD400062381E6039B1A1D03921B6806937BE698
:100DE400434652462946304604F078FC0028C0F2B7
:100DF4004F810444C2466FE429462520B0470028A9
:100E0400C0F246810134DDF808900DF1460B4FF035
:100E1400000AA7E0DDF818A0BBF1000F08DB594673
:100E2400504604F039FD0AEB000BDDF8089099E018
:100E3400504604F029FDF6E7069B8DF83030DDF8C6
:100E440008900DF1310B0DF1300A8BE019F0080F09
:100E540005D119F0100904D04FF0200901E04FF03A
:100E64002B09DDE90623002A73F1000102DBCDE939
:100E7400062309E0524263EB4303CDE906234FF016
:100E84002D0901E0DDF808900DF1460300930CAB49
:100E940008AADDE9060104F0B7FB8246BBF1000FA6
:100EA400C0F290800DF14603A3EB0A039DF82020C5
:100EB4006FF386128DF820209B4540F28680ABEBC1
:100EC400030309930DF1460B4CE0069830B9DDF8A5
:100ED4000890DFF8C4B1ABF1050A43E00DF1460315
:100EE40000930CAB08AA002104F08EFB82469DF807
:100EF400223043F010038DF8223078238DF823300C
:100F0400DDF80890CAE7069A9DF82130C3F3C303BD
:100F1400072B06D8DFE803F0040C0E1012171C1E72
:100F24001460DDF808900DF1460B4FF0000A19E04B
:100F34001470F6E71480F4E71460F2E72046E11732
:100F4400C2E90001EDE72046E117C2E90001E8E744
:100F54001460E6E71460E4E7DDF808900DF1460B51
:100F64004FF0000ABAF1000F00F08E80ABEB0A02DA
:100F7400B9F1000F00D001329DF8221011F0100FCA
:100F840026D00232099B134411F0400F01D00A9A73
:100F94001344002F32DDFF1A9DF8203013F0040FA4
:100FA4002CD113F0400F18D0B9F1000F18D02946F6
:100FB4004846B04700286BDB0134DDF80890302345
:100FC40002930FE00DF1460BCCE70DF1460BC9E798
:100FD40011F0080FD6D00132D4E72023029301E0A8
:100FE400302302933B465F1E002B07DD29460298FF
:100FF400B04700284CDB01343B46F4E7B9F1000F5D
:1010040005D029464846B047002841DB01349DF805
:101014002230C3F30012C3F3C003134305D029469F
:101024003020B047002833DB01349DF8223013F020
:10103400100F06D029469DF82300B047002827DB6F
:101044000134099B03F1FF39002B07DD29463020C9
:10105400B04700281CDB01344B46F3E75B4652469D
:101064002946304604F03AFB002811DB0444002FE3
:1010740007DD29462020B047002809DB0134013F61
:10108400F5E7C246FFF728BBC246FFF725BB20465B
:1010940013B0BDE8F08F00BFA568000008B54FF09D
:1010A4002002EFF3118382F31288BFF36F8F00F0F5
:1010B400EDFC034804F01CF900F064FAFCE700BFFF
:1010C400A868000010B44FF02003EFF3118483F3F9
:1010D4001288BFF36F8F0121124BC3F80015124A17
:1010E4000223C2F8D0361148D0F8003223F0E0438E
:1010F40043F04053C0F80032D0F8043223F0E04308
:1011040043F04053C0F80432C2F80417C2F804197B
:10111400C2F8001B84F31188BFF36F8F002010BC4A
:10112400704700BF0010005000400050002584505C
:1011340070B108B50246074B1B680748A0FB0313B0
:101144009B0C03FB02F0054B43F00103984708BDD9
:10115400704700BF3C00002083DE1B439068000002
:1011640084B004AB03E907009DF80430062B01D0DA
:1011740004B07047034B0122C3F80025BFF34F8F1F
:1011840020BFFDE70040005070B584B02A4B1C7DA1
:1011940004F01F0301229A406109284B03EB8103E9
:1011A400D043D3E8EF1F01EA0005C3E8E65F002E51
:1011B400F7D10A423DD004EB44039A00204B134478
:1011C40093E8070004AB03E907001E4B63B104F086
:1011D400A0FA4FF02003EFF3118683F31288BFF3D4
:1011E4006F8F194B1D680AE0002383F31188BFF346
:1011F4006F8FEEE72B460DB12B686BB11D465DB1C9
:10120400AA68002AF6D00C4B1B7D03EB430399001C
:101214000B4B585C9047EDE786F31188BFF36F8F53
:10122400074804EB4404A2008118002383504B6058
:101234008B6004B070BD00BF440900201803002077
:101244001C0300201757000010030020F0B589B0DC
:1012540005464E4B1C7D04F01F0301229A40610990
:101264004B4B03EB8103D3E8EF1F41EA0200C3E8D1
:10127400E60F002EF7D10A4216D004EB4403454A88
:1012840012F82330002B7FD0B5F1FF3F1CD103F0BF
:1012940079F94FF02003EFF3118683F31288BFF33B
:1012A4006F8F3D4B1D682AE004EB4406394B03EB7A
:1012B40086066F462A462146384604F035FA97E8F2
:1012C400070086E80700D8E704EB440302EB830336
:1012D4009B68590CD803314E314A002380194FF0D2
:1012E400000646EB0101FEF733FF0121281A05F041
:1012F400F1F8CCE72B460DB12B686BB11D465DB1FF
:101304006A68002AF6D0214B1B7D03EB4303214975
:1013140011F823009047EDE786F31188BFF36F8F30
:1013240004F01F030121994063091E4A02EB830361
:10133400D3E8EF2F0A43C3E8E02F0028F8D104EBE9
:101344004403144A02EB830393E8070008AB03E960
:101354000700154B0BB1FFF703FFFFF715FF03F071
:101364000FFB012004F01F02012393406409084A83
:1013740002EB8404DB43D4E8EF2F1A40C4E8E12FE6
:101384000029F8D109B0F0BD0020EBE744090020A2
:10139400280300201C030020100300203F420F00FC
:1013A40040420F00180300206511000008B50248F0
:1013B40003F03EFE08BD00BFD468000008B308B5C2
:1013C4004368042B07D0082B12D0FBB1006802F04D
:1013D400C9FF002014E003680022D3E8EF1F0129AD
:1013E40003D1C3E8E02F0028F7D10DD1104607E060
:1013F40003681B7803F580730020054A42F8230034
:1014040008BD6FF4E04070470248F9E70248F7E787
:1014140000000350E98FFFFFEA8FFFFF70B308B5A8
:101424004368042B04D0082B0FD0C3B915480BE034
:1014340003680122D3E8EF1F002903D1C3E8E02F9A
:101444000028F7D116D1002008BD03681B7803F5E6
:1014540080730D4A52F8233073B90020F4E7006812
:101464004FF0FF324FF0FF3302F0F2FE0028EBD0D2
:101474000648E9E70548E7E70448E5E76FF4E04094
:10148400704700BFEA8FFFFF00000350E98FFFFFA2
:1014940010B5044688B16368042B0DD0082B0BD01B
:1014A40053B113F0020F0DD02146094804F05BFE3E
:1014B400002323600023636010BD064B5B6806486D
:1014C4009847E8E714220021206804F01DFAF1E7A8
:1014D4002C030020C8000020DC68000010B504467E
:1014E40078B16368042B0BD0082B09D00BB923689F
:1014F40063B1206804F0A0FE636843F001036360F5
:1015040010BD0F4B5B680F489847EAE74FF0FF3276
:101514004FF0FF3321460C4802F068FD08B92368F8
:101524001BB9074B5B6809489847142200212068BF
:1015340004F0EAF9636843F002036360D9E700BF8B
:10154400C8000020DC6800002C03002004690000AF
:1015540008B5402314220449044804F0F6FD044964
:10156400044803F0C3FD08BD480300202C030020F9
:101574004469000034690000014910220A60704780
:1015840010ED00E072B6404080F31188BFF36F8F16
:10159400BFF34F8F30BF62B6BFF36F8F704700BF8A
:1015A40072B6494081F3118820BF80F3118862B676
:1015B400704700BF43B2002B08DB00F01F005B093B
:1015C400012202FA00F0024A42F82300704700BFE9
:1015D40000E100E04209054B53F8222000F01F000F
:1015E400012303FA00F01040704700BF00E100E05F
:1015F400013143B2002B08DB4901C9B203F1604356
:1016040003F5614383F80013704700F00F004901AC
:10161400C9B2014B1954704714ED00E030BFFFF715
:10162400FDBF00BF08B50B4B0B4A22F07F029A6046
:10163400BFF34F8FBFF36F8FD3F8882022F470026B
:10164400C3F8882002F072FC03F008FB00F0D4F920
:1016540002F078FC00ED00E0000000000A4A936804
:10166400C3F8A80009490968C3F8AC1008494B68D5
:1016740043F080534B60002383F31188BFF36F8FD3
:101684009368D3F8AC00704744090020846A0000D2
:1016940000ED00E014498A684FF030001044EFF385
:1016A400098C80E8F01F202080F31288BFF36F8F2D
:1016B4000E4F4FF00066CA698A603E60D2F8A800F7
:1016C4000023C2F8A83080F3118802F1300090E8BA
:1016D400F01F8CF3098802F1000004B504F043F80C
:1016E400BDE80440704700004409002004ED00E018
:1016F4001EF0040F0CBFEFF30880EFF3098081693B
:1017040011F8021C0229FFD001B504F01AF801BD3A
:1017140010B4A2F120040D4921F0010142F8081C83
:1017240042F8203C019B42F81C3C029B42F8183CC6
:10173400039B42F8143C4FF0807342F8043C046568
:101744000023C0F8A83010BC704700BFD355000078
:10175400094B9860D0F8983083F30B88104681F3D6
:101764000988002163B681F31188BFF36F8F0022CB
:10177400002303F02CFF00BF4409002001B572B61A
:101784000B4A906900281EBF0021916104F038FDC6
:1017940062B6EFF30580A0F110004FEAC0000549DE
:1017A400014409C99847BDE80140034908470000BE
:1017B4004409002000660000C1170000044B99682A
:1017C400D869884203D003494FF080520A607047B9
:1017D4004409002004ED00E010B51446134B9A6A46
:1017E4009A6A9B6A13F0020F0BD0104B5A6B9B6AD8
:1017F40013F0800F05D021B10C4A936A23F08003C3
:1018040093620A4B9A6A9A6A9B6A13F0100F01D189
:10181400064B9B6A054A936A43F0FF0393620121D6
:1018240003F0A6FF2070002010BD00BF00ED00E013
:1018340010B51446124B9A6A9A6A9B6A13F4007F95
:101844000BD00F4B9A6B9B6A13F4004F05D021B158
:101854000B4A936A23F400439362094B9A6A9B6A86
:1018640013F4807F01D1064B9B6A054A936A43F4C3
:101874007F439362012103F07BFF2070002010BDA1
:1018840000ED00E00A4B9A6A9A6A986A10F4801094
:101894000BD1074B9A6A9A6A9A6A9A6A9A6A6FEAA9
:1018A40002426FEA12429A6270470220F1E700BFD7
:1018B40000ED00E010B5044600230B701B4BD86A02
:1018C40010F002002DD1DB6A002B2BDB174BDB6AF7
:1018D40013F0804327D0A36933F8022C4DF602732A
:1018E4009A4210D003F1604303F626631B7863B970
:1018F4000F4B1B787BB90F4B1B889BB293B12046CF
:10190400FFF7C0FF0EE020680CE00A4601212046E4
:10191400FFF762FF06E00A4601212046FFF788FF31
:1019240000E0002010BD1846FCE700BF00ED00E019
:1019340029ED00E02AED00E070B58AB00C46224B98
:101944005968C1F30801002383F31188BFF36F8F33
:1019540002F07F43B3F17F4F15D102F00C03082B43
:1019640014D012F0080F0BD000260DF127022046E8
:1019740003F003FF05469DF8273053B10AB070BD4C
:1019840004460126F1E700263446EEE700263446F5
:10199400EBE72022214601A803F092FF4EB1089BF9
:1019A400C3F308025AB96FEA53236FEA4323089337
:1019B40005E0089B23F4FF7323F00103089301A9B6
:1019C400284603F0BAFED9E700ED00E0044B5A695B
:1019D40042F010025A615A6942F480625A617047B7
:1019E40000ED00E0EFF30880EFF3098101B57246E2
:1019F400FFF7A2FF01BD00BF002206E002F00F01C5
:101A0400094B0B44202119760132442A0ADC53B2D3
:101A1400002BF3DB03F1604303F56143202183F8DA
:101A24000013F1E7704700BFFCEC00E0002080F3F6
:101A34001488BFF36F8F002080F30A8880F30B882B
:101A440004F07EFD00200E490860BFF34F8F0D485F
:101A540080F3088800F03CF8202080F311880A48BD
:101A64004FF40061401880F30988EFF314800221D9
:101A7400084380F31488BFF36F8FFFF7D3FD000092
:101A840094ED00E0580F002098100020BFF34F8F12
:101A94000549CA6802F4E062044B1343CB60BFF308
:101AA4004F8F00BFFDE700BF00ED00E00400FA0522
:101AB400064B1868C0F307200023834205DA034A63
:101AC4009360002111610133F7E7704790ED00E066
:101AD40010B572B6002484F31388FFF7E9FF234698
:101AE4000F2B09D803F120010D4A4FF0FF3042F8C3
:101AF40021000133DBB2F3E700230F2B09D803F1F4
:101B04006001074A4FF0FF3042F821000133DBB295
:101B1400F3E762B6BFF34F8FBFF36F8F10BD00BF03
:101B240000E100E008B5084B9B68834202D003F053
:101B34006DF808BDEFF30583002BF8D0034A536812
:101B440043F080535360F2E74409002000ED00E0C5
:101B540010B584B0094C2346094A0121094803F011
:101B640071FE00230393084B0193E41A02940121AC
:101B740001A803F06BFE04B010BD00BF00000720F5
:101B8400000000205869000088010020014B024A2F
:101B94001A63704790ED00E0AAFF440010B40B688C
:101BA40023F01F020C7A04F01F031A43CB6823F0BE
:101BB4001F03640943EA440343F0010302498860B4
:101BC400CA600B6110BC704790ED00E02DE9F04F46
:101BD40087B08146009101931446002734E06FF0EA
:101BE400150653E0D84569D12946F0B203F00FFE3B
:101BF40029E0584B9860D96801F01F0122F01F02B8
:101C04000A43DA602946E0B203F001FE044610F10B
:101C1400160F00F09780013415E0013B4D498860B0
:101C24000A6902F01F0223F01F0313430B612946C4
:101C3400E0B203F0ECFD044610F1160F00F08280D0
:101C4400013400E001340137009B9F427ADA07EB4C
:101C540047054FEA850A09EB8505D5F80480B8F1F4
:101C6400000FF0D0019B23B1284603F0B3FD0028F8
:101C740064D059F80AB0584603F0A2FD064608EBB2
:101C84000B00013803F09CFD8642A8D116F1160F13
:101C940057D0631EB34259DB30462E4B9E60D96841
:101CA40021F01F019E601B6943F01F0859F80A3098
:101CB4006A681A4402F1FF3B994293D0994298D042
:101CC400D845AAD0013B2349064688600A6902F038
:101CD4001F0223F01F0313430B612946E0B203F0F4
:101CE40096FD044610F1160F2CD00130194B9E605E
:101CF400D9689DF8102061F304028DF810201B6947
:101D0400C3F34203D2B263F347128DF8102059F89B
:101D14000A306A681344029323F01F03A8EB0B08EC
:101D24004344013B23F01F03059302A9C0B203F00F
:101D340063FD044610F1160F84D103E06FF015041F
:101D440000E03446204607B0BDE8F08F6FF015047C
:101D5400F8E700BF90ED00E010B5034C01232278B2
:101D6400FFF734FF207010BD980900202DE9F843D7
:101D740007468846002403E06FF0150517E0013498
:101D8400A0453CDD04EB44039A0007EB83035E6843
:101D9400002EF4D057F80290484603F011FD054692
:101DA40006EB0900013803F00BFD8542E4D104EB96
:101DB4008403164A42F8235015F1160F20D0144B11
:101DC4001B78AB421FDD04EB840302EB8303114A4F
:101DD40095609560D568187B65F3040018731069E5
:101DE400C0F342001D7B60F347151D73D16821F0D9
:101DF4001F015960126922F01F021A61BFE7002512
:101E04002846BDE8F8836FF01505F9E74808002077
:101E14009809002090ED00E0034B05225A60BFF3BF
:101E24004F8FBFF36F8F704790ED00E0BFF35F8F6C
:101E3400014B00225A60704790ED00E038B50E4B1C
:101E44001D68082D15D8FFF7F1FFFFF79FFE00244A
:101E5400A54208D9084B596801EB04112046FFF745
:101E64009DFE0134F4E7054B1D70FFF7D5FF0020FC
:101E740038BD4FF0FF30FBE774690000980900207B
:101E8400014B1860704700BF2400002000487047D1
:101E9400E4080020034BC01A8010034B03FB00F03E
:101EA400704700BF6C080020B76DDBB638B5054637
:101EB4000C46FFF7EFFF01464022034803F0BBFD49
:101EC40001462846A04738BDA065000030B583B060
:101ED40005460C46FFF7DEFF0146402300932346E8
:101EE400054A064803F0C1FD011E01DB03B030BD05
:101EF4002846A047FAE700BFB75A0000A0650000D3
:101F040008B5052815D8DFE800F0031A14141510D5
:101F140000210D4803F018FD836813F0070F08D162
:101F24000021094803F075FD03E00221064803F08F
:101F340070FD08BD0321044803F06BFDF9E701219E
:101F4400014803F066FDF4E7A065000010B54FF00A
:101F54002003EFF3118483F31288BFF36F8F134AC6
:101F6400136843F00203136013F0010F08D1002338
:101F740084F31188BFF36F8F9BB903F0A2FD10BDEA
:101F84004FF05023D3F80C24D3F80C3412F0010F83
:101F940001D10023ECE7FFF779FF03F027FD0123CC
:101FA400E6E70021024803F034FDE8E70C090020CD
:101FB400A065000008B5084BD3E8EF2F22F002011A
:101FC400C3E8E01F0028F7D112F0010F00D008BDCC
:101FD40003F08BFDFBE700BF0C09002000B585B0C2
:101FE400CDF800D0CDF804D000230293012303934D
:101FF4006B46074A03F055FD002805DB4FF4804289
:102004000023684602F016FA05B05DF804FB00BF31
:10201400175B000070B50646002201210520FFF77A
:10202400E7FA0520FFF7C6FA114800F0FFFF114B4D
:10203400984219D104F01DF80024032C12D821462B
:10204400304603F081FC05462146304603F087FC08
:10205400094903F044FA002805DB0123AB601C4462
:10206400E4B2EAE7002070BD6FF00400FBE700BFB4
:10207400051F00000000AD0BDC69000070B50546CB
:10208400012807D14FF05023D3F81C3403F0030385
:10209400022B3FD004F09FF820B9304B1B789BB142
:1020A400002300E001231C4683B14FF02003EFF32B
:1020B400118683F31288BFF36F8FA4B94FF05023B6
:1020C4000222C3F808230EE00123ECE70026F4E71C
:1020D4000CB33046FFF764FA4FF05023D3F81835A9
:1020E400DBB2012B1CD04FF05022D2F8183403F08D
:1020F4000303D2F8182412F4803F26D10022002AC8
:10210400E6D0022B01D0012DE2D104B386F311886D
:10211400BFF36F8F70BD2120002102F045FDDBE786
:102124000F4B1B68002BDED00D4B00221A601B687E
:102134004FF050230222C3F818250A4B2022C3F87B
:102144008021094B01221A60CDE70122D7E74FF025
:1021540050230222C3F80423DCE700BF99090020BE
:102164000451005000E100E00850005010B504464E
:102174000E4B0121D3E8EF2FC3E8E01F0028F9D16B
:102184001AB1631E012B0CD910BD094803F0E7FBFB
:10219400084900234B60CB6001238B6003F0BBF93B
:1021A400EFE72046FFF76AFFEEE700BF10090020C3
:1021B400A06500005C08002010B504460A2807D07A
:1021C400074B1868E1B283685B689847204610BDE6
:1021D400034B186883685B680D219847F0E700BFDC
:1021E4001409002010B5044C2046FFF749FE204690
:1021F400FEF792F910BD00BFBD21000008B50648E6
:10220400064B186003F063FF18B1FFF7EBFF0020E3
:1022140008BD6FF01200FBE7E86500001409002018
:102224001F4B03401F4A934232D016D8062B2BD0A3
:1022340006D9B3F5801F0DD101230B700020704720
:10224400FBB1022B03D104230B70002070476FF005
:10225400150070476FF015007047134A93421BD066
:10226400B3F5A00F03D103230B7000207047B3F51F
:10227400800F03D102230B70002070476FF015000C
:10228400704700200870704706230B7000207047C9
:1022940007230B700020704705230B700020704744
:1022A4000600F000060010000200400028B10128DA
:1022B40001D103487047002070470248704700BFAF
:1022C400B8650000D0650000F0B585B00E4619462B
:1022D40043681B7B06F01F0545EA4315B2F5005F12
:1022E40022D007461446002302930393104603F0BA
:1022F40041FC8DF808007B689968F14011F0010FEA
:1023040002D1B4F5A03F14D0002302AA19462846EE
:1023140001F03CFA1A4B98422FD10121284601F0D2
:1023240011FC002005B0F0BD284601F06DFC002032
:10233400F8E705F01F036A09012A12D0114A803315
:1023440052F8233013F0010FDED10DF107012846B6
:1023540001F09CFB0C4B984205D00DF1070303934D
:10236400D2E70A4AEBE70DF1070001F0E3FB044B67
:102374009842F2D06FF00B00D4E76FF00400D1E77D
:102384000000AD0B002584500400AD0B00288450E0
:1023940030B583B004460DF1070101F077FB054623
:1023A400204601F061FC0B4B98420FD19D4205D0B1
:1023B400084B984207D1002003B030BD9DF80700B8
:1023C40001F0B0FBF4E76FF00400F5E76FF00400F0
:1023D400F2E700BF0000AD0B2DE9F04387B0D0F861
:1023E400048098F80C3001F01F0545EA4315002AD3
:1023F40043D00C4617460026039604960DF11701A8
:10240400204601F043FB8146334603AA3146284661
:1024140001F0BCF92F4B984259D1994535D017F4A6
:10242400007F41D00DF103013846FFF7F9FE06465F
:1024340038BB9DF803308DF8043017F4807F0CBF4F
:10244400012300238DF80530384603F067FB8DF82F
:10245400060017F4006F1DD0D8F80430012101FAEA
:1024640004F49C60002201A9284601F047FA194BA4
:10247400984206D06FF0150603E02846FFF788FF60
:102484000646304607B0BDE8F0839DF8170001F01A
:1024940049FBC4E717F4806FE4D0D8F80420012383
:1024A40003FA04F4D460DDE7384603F037FB8DF813
:1024B400080000231A4602A9284601F067F9054BD3
:1024C400984201D10026DCE76FF01506D9E76FF0DA
:1024D4001506D6E70000AD0B08B501F019FB08B1ED
:1024E400002008BD01F0EAFA084B98420AD1002105
:1024F400074801F0C5FA002205210D20FFF778F8FE
:102504000020EEE76FF00400EBE700BF0000AD0B26
:10251400095C000010B44368002940F08780DA6841
:10252400B2F1FF3F18D002F01F015209012A6DD009
:10253400694801228A408260DA6802F01F01520968
:10254400012A65D06448803150F8212002F0E0422D
:1025540042F0030240F821201A69B2F1FF3F12D081
:10256400197F002956D0032402F01F015209012AC1
:1025740052D05948803150F8212002F0E04242EA1A
:10258400840240F821205A69B2F1FF3F18D002F0CA
:102594001F015209012A41D04F4801228A4082601A
:1025A4005A6902F01F015209012A39D04A48803180
:1025B40050F8212002F0E04242F0030240F82120CA
:1025C4009A69B2F1FF3F11D0597F59B3032402F045
:1025D4001F015209012A27D03F48803150F8212099
:1025E40002F0E04242EA840240F821201A68D868E6
:1025F4001969C2F80C05C2F814151A6859699B695F
:10260400C2F80815C2F8103510BC7047334890E77B
:10261400324898E70024A7E73048ABE72F48BCE7E7
:102624002E48C4E70024D2E72C48D6E7DA68B2F192
:10263400FF3F0ED002F01F015209012A43D0264861
:10264400803150F8212002F0E04242F0020240F8CA
:1026540021201A69B2F1FF3F0ED002F01F01520986
:10266400012A32D01C48803150F8212002F0E04287
:1026740042F0020240F821205A69B2F1FF3F0ED025
:1026840002F01F015209012A21D01348803150F869
:10269400212002F0E04242F0020240F821209A692F
:1026A400B2F1FF3FA2D002F01F015209012A10D05B
:1026B4000948803150F8212002F0E04242F0020241
:1026C40040F8212092E70548BAE70448CBE70348DD
:1026D400DCE70248EDE700BF002584500028845061
:1026E40043681A68B1F5164F6FD03AD8B1F5165F42
:1026F4006ED00AD9B1F5E14F75D024D947F612232B
:1027040099422BD14FF4000313E0B1F5966F61D0D9
:1027140007D9B1F5166F63D0B1F5965F10D13C4B74
:1027240007E0B1F5967F58D0B1F5167F05D14FF487
:102734001C33C2F82435002070476FF01500704731
:102744006FF015007047B1F5615F4ED0B1F5964F4B
:1027540001D1304BEDE76FF0150070476FF01500B5
:102764007047B1F5613F42D009D9B1F5612F46D028
:102774001FD9294B994248D14FF08053D9E7B1F57D
:10278400963F37D005D9B1F5E13F0FD14FF0EB7348
:10279400CFE74DF6C02399422ED0B1F5614F02D157
:1027A4004FF46B03C5E76FF0150070476FF0150029
:1027B40070471A4B994225D0B1F5E12F02D14FF061
:1027C400E863B6E76FF0150070474FF41D03B0E7F8
:1027D400134BAEE74FF49E23ABE74FF4A033A8E7C7
:1027E4004FF41D23A5E70F4BA3E70F4BA1E74FF0D1
:1027F4006C739EE70D4B9CE74FF4650399E74FF02C
:10280400706396E74FF0806393E76FF015007047AD
:1028140000B0130000A04E0040420F0090D003000F
:102824000050270000C0750000F03A0000903A0103
:102834002DE9F04105460F46D0F8108003F0CBFC9B
:1028440020B9164B1B78ABB1002300E001239BB1E8
:102854004FF02003EFF3118483F31288BFF36F8FDB
:102864002646284603F0A7FA50B984F31188BFF32B
:102874006F8FEDE70123EAE7284603F0EBFA0646FB
:10288400414601F8107F0122284603F0AEFA86F390
:102894001188BFF36F8FBDE8F08100BF9909002054
:1028A40038B505460C4601F1120000F067FD0A4BED
:1028B40098420ED1A37C43F00043C5F8A031C5F87B
:1028C4008C30A27C01239340044AC2F804350020D2
:1028D40038BD6FF00400FBE70000AD0B0070015041
:1028E40021F07F4100F5A870014B43F82010704798
:1028F4000050015000F5A870014B53F820007047B8
:10290400005001504FF480338340024AC2F84433EC
:10291400704700BF005001504FF480338340024A97
:10292400C2F84833704700BF00500150014BD3F840
:10293400040570470050015010B501238340DC4367
:102944000D4AD2E8EF1F01EA040CC2E8EECFBEF153
:10295400000FF6D14FF4803202FA00F002F1502257
:10296400C2F80803BFF35F8FBFF36F8F0B4214BF2E
:102974000120002010BD00BF3409002070B50446BA
:1029840003F0FCFA05464FF48033A340154AD2F80D
:102994000423134205D10026284603F0F8FA3046F2
:1029A40070BD0123A340DB430F4AD2E8EF1F01EAC5
:1029B4000300C2E8E60F002EF7D159B904F1500321
:1029C4009B009BB203F1502303F580331B6813B1C2
:1029D400012300E001231E46002BDDD0204603F036
:1029E400BEFAD9E7005001503009002001B9704700
:1029F400012383400E4AD2E8EF1F1943C2E8EC1FBB
:102A0400BCF1000FF7D14FF480338340094AC2F878
:102A14000433094BD3E8AF3F23FA00F010F0010F61
:102A2400E5D0064B4FF40012C3F80021DFE700BFE6
:102A340034090020005001503009002000E100E07A
:102A4400F8B5074614461E461046194603F093FA95
:102A54000546154B1A68A01A1C605E60A5F50013A4
:102A6400B3F5400F08D3002402F004FA3846FFF708
:102A740041FFA8420CD0F8BD0C4B19680B0A0A069A
:102A8400521943F100030A49C1E900230124EBE789
:102A94001CB13846FFF736FFEDE74FF40001384626
:102AA400FFF71EFFF5E700BFA00100203809002052
:102AB4008801002038B50D4B1B681D0A1C06BFF3A6
:102AC4005F8FFFF733FF0346201845F10001B3F58C
:102AD400801F0AD2064BD3E90023994208BF9042D3
:102AE40003D210F1807041F1000138BD3809002093
:102AF400880100202DE9F843064614461D46104679
:102B0400194603F038FA0746FFF7D4FFA94208BF75
:102B1400A0421ED2B4EB000865EB01094FF08072AD
:102B240000234B4508BF42452AD3174B03EB06133A
:102B3400D3E90223AB4208BFA24214D0394630463F
:102B440003F02AFA394603F006FA241845F1000581
:102B540009E00123B3400D4AD2E8EF1F1943C2E84C
:102B6400E01F0028F8D1084B320103EB0616C6E932
:102B7400024508999950099B73600020BDE8F883C9
:102B84006FF01500FAE700BF900100203009002023
:102B940030B583B000231E4AC2F80835002B25DD6A
:102BA4001B4C0225C4F804531A4B4FF40012C3F80B
:102BB4008021002201211520FEF71AFD1520FEF7C1
:102BC400F9FC0123144A13602360144A136000249F
:102BD4000194134B0093134A0023204603F017FA81
:102BE4002846FFF7C3FA204603B030BD0E4A02EB75
:102BF40003124FF0FF304FF0FF31C2E902014FF4EE
:102C040080329A400249C1F804230133C6E700BF69
:102C14000050015000E100E0085001503409002048
:102C2400452A0000FFFF7F00900100202DE9F047B6
:102C340082B00446FFF7A2FE10B902B0BDE8F087E7
:102C4400FFF738FF06460F4603F098F98246134B08
:102C540003EB0413D3E902894F4508BF46450BD261
:102C64000026504603F093F9002EE6D00095424624
:102C74004B462046B047E0E7084A230102EB041123
:102C8400D6584D680020D0504FF0FF324FF0FF333C
:102C9400C1E902232046FFF73FFEE2E7900100204E
:102CA40010B50D4BD3F8043313F0020F0AD00B4BBD
:102CB4001B683BB1094B00221A601B68084A136861
:102CC400013313600024002C00DD10BD2046FFF703
:102CD400ADFF0134F7E700BF00500150045101502B
:102CE4003809002010B582B0B0F1FF3F07D0441E70
:102CF400002C07DD114B9C4205DD114C03E000F56F
:102D04000000F4E70024FFF7D5FE0E4BD3E90023BF
:102D1400801AB0F5000F00D3002404440134B4F544
:102D2400000F00D3064C00200190074900911219AE
:102D340043F1000303F06BF902B010BDFEFF7F0006
:102D4400FFFF7F00A0010020452A000008B5FFF71F
:102D5400B1FE024B1B68C01A08BD00BFA0010020D1
:102D6400084B1A6804331B68072A01D000207047F7
:102D7400023B002B04D8DFE803F001000120704778
:102D8400002070473001FF000A4B1A6804331B68A7
:102D9400072A01D000207047042B07D008D8023B33
:102DA400012B01D801207047002070470020704794
:102DB400002070473001FF00084B1A6804331B6879
:102DC400072A01D000207047023B002B04D8DFE81B
:102DD40003F0010001207047002070473001FF001C
:102DE400044B1B68044A1268072B01D0002070476B
:102DF400012070473001FF003401FF00084B1A68BE
:102E040004331B68072A01D000207047023B002BC3
:102E140004D8DFE803F00100012070470020704768
:102E24003001FF00084B1A6804331B68072A01D0DD
:102E340000207047023B002B04D8DFE803F00100B8
:102E440001207047002070473001FF00084B1A68CA
:102E540004331B68072A01D000207047023B002B73
:102E640004D8DFE803F00100012070470020704718
:102E74003001FF004FF05023D3F8582502F003022D
:102E8400024BD340024A1360704700BF0020A107E1
:102E94003C00002008B5FFF7D9FF58B13B4B1B6835
:102EA40043B93A4B0D221A60A3F5827301221A60CA
:102EB40000221A6000221F2A15D802F160034FF481
:102EC4007F0151F83330B3F1FF3F0CD002F16003BE
:102ED4004FF47F0151F83310DB0003F57F035B6887
:102EE4000B600132E7E7FFF789FF28B1284B29225D
:102EF4001A60303303221A60FFF732FF38B1254BD2
:102F0400254A1A604FF050230122C3F85825FFF7D1
:102F14003BFF10B1214B00221A60FFF74DFF68B14F
:102F24004FF05023D3F8003413F0010F06D04FF0C4
:102F340050230022C3F81421C3F81821FFF750FFCF
:102F440060B14FF05023D3F8003413F0010F05D0D3
:102F54004FF050236FF00102C3F80024FFF762FF23
:102F640010B10B4B65221A600D4AD2F88C3043F431
:102F74004063C2F88C300B4A11680B4BC3F84415FC
:102F8400D269C3F84C25FFF775FF08BD204A0050ED
:102F94000C470050309503504400EFBE4C250350BD
:102FA40000ED00E00080FF000060005030B40468D1
:102FB400B4FA84F3D3F11F0311D401229A4024EA12
:102FC4000202D0E8EF5FA54204D1C0E8EC2FBCF1C7
:102FD400000FF6D1EBD10B70024830BC70470248A9
:102FE400FBE700BF0000AD0B0200AD0B10B403689B
:102FF4000C4623FA01F111F0010F10D102680123EC
:10300400A3401343D0E8EF1F914204D1C0E8EC3F42
:10301400BCF1000FF6D1F1D1024810BC7047024850
:10302400FBE700BF0000AD0B0400AD0B054B1B79A3
:103034002BB9044B186001221A71034870470348E6
:10304400704700BF3C0900200000AD0B0C00AD0B25
:1030540003284ED8DFE800F0022732404FF0502218
:10306400D2F8183403F00303D2F8182412F4803F82
:1030740011D14FF050230122C3F818251D4B002213
:103084001A601B684FF050230222C3F8042308334C
:1030940001221A607047022BEBD14FF05023022219
:1030A400C3F81825EAE7144B00221A601B684FF096
:1030B40050230122C3F804231A6070470F4B0022E7
:1030C4001A601B684FF050234FF40072C3F80423B6
:1030D400203301221A607047094B00221A601B68D2
:1030E4004FF050234FF48072C3F8042318330122A5
:1030F4001A60704704510050005100502451005090
:103104002051005070B50446032800F2CD80DFE85A
:1031140000F0021421304FF050230222C3F8082398
:1031240003F5827300221A601B68604B01221A6047
:10313400012C2DD042F21075A1E001234FF0502252
:10314400C2F8083302F58072002111601268584AEF
:103154001360EDE74FF050234FF40072C3F80823D7
:1031640003F5927300221A601B68524B01221A6005
:10317400DEE74FF050234FF48072C3F8082303F5C1
:10318400907300221A601B684B4B01221A60CFE730
:10319400264642F2107535E04FF05023D3F81864F8
:1031A40006F00306D3F8183413F4803F3AD1002311
:1031B4001FE04FF05023D3F80C6406F00106D3F857
:1031C4000C3413F4803F2FD1002312E04FF050232E
:1031D400D3F85C6406F00106D3F85C3413F4803F42
:1031E40024D1002305E04FF05023D3F85434C3F323
:1031F4000043002B58D0012E56D1012002F035FF98
:10320400013D51D0032C0BD801A353F824F000BF87
:103214009D310000B7310000D1310000EB310000D6
:103224000023E6E70123E4E70123E2E70123E0E7E3
:103234004FF05023D3F8183413F4803F2ED10023D9
:1032440017E04FF05023D3F80C3413F4803F27D108
:1032540000230EE04FF05023D3F85C3413F4803F86
:1032640020D1002305E04FF05023D3F85434C3F3A6
:103274000043CBB1012002F0F8FE013D14D0032C31
:103284000AD801A353F824F0353200004732000075
:10329400593200006B3200000023EAE70123E8E71B
:1032A4000123E6E70123E4E770BD00BF0C500050A2
:1032B40004500050245000501C50005008B52A4BB4
:1032C4001B685BB1284B002018601B684FF050232B
:1032D4000122C3F80823254B1B689847244B1B681D
:1032E400B3B1234B00221A601B684FF05022D2F86E
:1032F400183403F00303D2F81824012B2BD04FF019
:1033040050230222C3F80823184B1B680120984756
:10331400184B1B686BB1174B00221A601B684FF0E7
:1033240050234FF48072C3F80823104B1B68042009
:103334009847114B1B686BB10F4B00221A601B6836
:103344004FF050234FF40072C3F80823074B1B6857
:103354000520984708BD4FF050230222C3F81825D2
:10336400083301221A60D3E7005100503C090020C1
:1033740004510050205100502451005008B501461A
:103384000148FFF713FE08BD400000200830034B3E
:1033940033F8100000F00100704700BF4400002023
:1033A4000830034B33F81000C0F34010704700BFDF
:1033B400440000200830044B33F8100010F01C00C7
:1033C40018BF0120704700BF440000200830034BA1
:1033D40033F81000C0F34000704700BF44000020E1
:1033E4000830024B33F81000400B704744000020B3
:1033F400002204E04FF0FF3383420FD001322F2A22
:103404000AD802F10803064931F8133013F4807F17
:10341400F0D0C3F34323EFE7002070470120704747
:1034240044000020002313B14FF0FF307047074AD7
:1034340052F83320824201D00133F4E7034A02EB0D
:10344400C30252688A42F7D11846704744000020EC
:103454000830064B33F8100010F4807F04D0C0F31A
:10346400432003EBC0007047002070474400002055
:1034740070B504460D46FFF7EBFF20B106684268BD
:1034840029462046B047044B9B6823B1024AD268C0
:1034940029462046984770BD4400002070B5044674
:1034A4000D461646084602F00DFEC0B9022E3AD06B
:1034B400022004F01F026109012936D0214980321B
:1034C40051F8223023F4403343EA004341F82230D8
:1034D400032D2ED0022E2AD0032E2FD070BD2946C4
:1034E4002046FFF7C5FF04F01F036409012C18D020
:1034F400144903F1800251F82220C2F3014296429A
:10350400ECD1803351F8232022F4403241F82320B7
:1035140051F8232022F4403242EA064641F823605F
:10352400DCE70949E5E70320C3E70749C7E7012DBD
:10353400D2D129462046FFF79BFFCFE7022DCDD1FC
:10354400F7E700BF002584500028845010B483B0EE
:103554000446114B93E8030002AB03E90300204641
:10356400002309E002AA02EB830252F8082C116A34
:1035740040F8041B11620133012BF3D90023012B02
:1035840004D854F823202AB90133F8E7002003B003
:1035940010BC70470120FAE78068000000F10802BF
:1035A4000E4B33F8123013F4807F16D010B5C3F3EA
:1035B4004324104623F4F853084A22F810302046D6
:1035C400FFF716FF00B110BD0448002340F8343063
:1035D40021467430FFF70AFDF5E7704744000020E8
:1035E40010B50446FFF7DCFE50B12046FFF7F8FEA5
:1035F400084B00F5A270002243F8202043F8202055
:103604002046FFF7CBFF0834034B002223F8142095
:1036140010BD00BF00D000504400002070B582B03F
:1036240006460C461546FFF7B9FF24B32946204643
:10363400FFF7F8FE031E13DB104A42F8334002EB97
:10364400C3014D605B029BB206F1080032F8101012
:103654000B4343F4807322F81030094802B070BD64
:103664000DF107010748FFF7A1FC054B9842F5D17E
:103674009DF80730E0E70248F0E700BF440000206F
:103684000000AD0BB800002070B584B02A4A6B4628
:1036940092E8030083E80300002302A809E004AAD7
:1036A40002EB830252F8102C116A40F8041B1162D9
:1036B4000133012BF3D93BE0204E05F1800356F88A
:1036C4002320C2F30142FFF7E9FE0123AB4033623A
:1036D40004AB03EB840353F8080CF0B190FAA0F0A8
:1036E400B0FA80F000EB441000F10802144B33F8F8
:1036F4001210C1F38201C50800F0070202AE0123D3
:1037040003FA02F2735D23EA0203735500F01F0506
:103714004309012BD0D00B4ECFE70134012CD7D96C
:10372400094B00221A601B6802A8FFF70FFF08B1BB
:103734000024F3E704B070BD8068000000288450C2
:1037440044000020002584507CD1005038B5044644
:10375400CCB194FAA4F3B3FA83F301229A4024EA95
:103764000204094A03F5A27352F82350C5F3052550
:1037740052F82300C0F3014002F0A2FC014628469F
:10378400FFF776FEE4E738BD00D000502DE9F8439A
:10379400044615461E4651B30F4602F07BFC002832
:1037A40040F0978004F01F026309012B40D04D487C
:1037B40002F1800350F82330002F3BD00C2141F05C
:1037C400030123EA0103002F36D0397889000B4323
:1037D400803240F82230444A04F1080132F81130B2
:1037E40023F002039BB243F0010322F81130B5B178
:1037F40095F80080D5F804902046FFF7E7FDE8B17E
:10380400B9F1000F67D1384B04F1080233F8120004
:1038140020F01C0080B240EA880023F81200002E39
:103824005DD0726831682046FFF7F8FEBDE8F88382
:103834002E48BDE70021C2E70021C8E72A4B04F166
:10384400080233F8127027F02007FF04FF0C23F856
:103854001270B9F1000FD6D0B8F1030F3DD86B68E0
:103864001D78B8F1000F08D1214B05F5A27500228F
:1038740043F8252043F82520C5E7404602F021FC03
:103884001B4B05F5A27253F8221021F0030143F8F3
:10389400221053F8221021F44F3121F4407143F8DF
:1038A400221053F822C0210201F47C51000400F4D8
:1038B400403001434CEA010143F822106D03ADB2DC
:1038C40004F108032F4347F02007074A22F8137036
:1038D40099E70848AAE70748A8E70648A6E706487C
:1038E400A4E700BF00258450440000200028845031
:1038F40000D000500400AD0B0000AD0BF8B5044639
:103904001546002950D00E4602F0D3FB28B12046BC
:10391400FFF746FD002840F09D802046FFF74AFD52
:1039240018B17378012B00F0978006F1010CB71CD5
:1039340004F01F026309012B7CD04B4902F1800380
:1039440051F82300BCF1000F76D0022343F00103A9
:10395400002F73D04FF00C0E43EA0E03002E70D0EC
:103964004FF4706E43EA0E0320EA0300BCF1000F2B
:103974006AD073785B0043F00103002F66D0B778F8
:10398400BF003B43002E63D03678360233430343F3
:10399400803241F82230354A04F1080132F81130FE
:1039A40043F0030322F81130002D57D0204602F0D3
:1039B40080FB002854D12A782D4B02F5A27143F8DC
:1039C400210043F82100294904F1080031F810309E
:1039D40023F02003DB04DB0C21F810306978002984
:1039E40040D095F802C0224D02F5A27655F8260083
:1039F40020F4991020F4F85045F8260055F8267064
:103A0400200200F47C50090401F4403101434FEAE0
:103A14000C5000F480100143394345F8261052033A
:103A240092B208341A4342F02002104B23F81420B7
:103A3400104814E0104981E7002387E74FF0000E97
:103A44008AE74FF0000E8DE7002394E7002798E7FC
:103A540000269BE7094802E0084800E00548F8BD55
:103A64000648FCE70348FAE7002584504400002098
:103A740000D000500000AD0B002884500400AD0BB2
:103A8400014B9860D96070474400002038B5044663
:103A94000D46FFF785FC40B104F10800044B33F8F0
:103AA40010305B0B2B70034838BD0348FCE700BFA4
:103AB400440000200000AD0B0400AD0B0F4B93F845
:103AC40078300BB10E48704710B50C4C60220021C1
:103AD40004F1100001F018FF0D20FDF76BFD094BF8
:103AE40000221A601B68084B4FF00042C3F80423FD
:103AF400012384F878306367044810BD4400002033
:103B04000500AD0B7CD1005000D000500000AD0B7F
:103B1400034B93F87800003818BF0120704700BFAA
:103B24004400002008B501460148FFF75FFA08BDCC
:103B3400B400002008B501460148FFF737FA08BD74
:103B4400B400002038B504460D46FFF729FC08B33D
:103B5400204602F0AEFAE8B12046FFF741FC8300AC
:103B640003F580739BB203F1A04303F55043002295
:103B74001A601B68204A00F5A27152F8213043F004
:103B8400010342F821307DB3012303FA00F0C2F8A7
:103B9400040329E004F10803184A32F81330C3F38C
:103BA4008203042B10D0052B1FD004F01F026309DD
:103BB400012B07D0124B1B69D34013F0010F16D011
:103BC400032002E00F4BF6E7032004F01F02640910
:103BD400012C0ED00A49803251F8223023F44033AC
:103BE40043EA004341F8223038BD0220EDE70220C9
:103BF400EBE70449EFE700BF00D000504400002089
:103C0400002584500028845010B50446FFF7C8FBF3
:103C1400A0B1204602F04DFA80B12046FFF7E0FB48
:103C2400012282400D4BC3F8082300F5A27053F81B
:103C3400202022F0030243F820200CE004F01F03AC
:103C44006409012C08D00649803351F8232022F45A
:103C5400403241F8232010BD0249F5E700D000505E
:103C6400002584500028845010B50446FFF78EFBCD
:103C740008B90D4810BD2046FFF7C6FF2046FFF7E0
:103C8400AFFC04F01F026409012C0BD007498032F9
:103C940051F8223003F0E04343F0020341F82230AC
:103CA4000348E7E70349F2E70400AD0B002584501D
:103CB4000000AD0B0028845038B501204FF4807308
:103CC40000210D4603E0400004339BB20131072973
:103CD40014D803F1A04202F550421268002AF2D02F
:103CE4000B4AD2F804231042EDD003F1A04202F5AE
:103CF40050420024146012680543E4E7054B1B6836
:103D04001BB92846FFF722FD38BDFFF7BDFCF8E7D5
:103D140000D000507CD10050034B044A934201D29E
:103D24001833FAE7704700BFA06500000066000082
:103D340070B50646114B53F8204009E0404217E0A5
:103D4400EB681870EA68537843F001035370083441
:103D5400731C0A4A52F82330A3420DD965682368BC
:103D640028469847002DF2D00028EBD00028E5DB48
:103D7400FF28E5DDFF20E3E770BD00BF706A0000A7
:103D840038B5054628B303782BB3144C00E0183437
:103D9400134B9C4208D0204602F099F90028F6D033
:103DA4002368AB42F3D112E00C4C00E018340C4B06
:103DB4009C420BD0204602F08AF90028F6D02168F4
:103DC400284601F073FD0028F0D100E000242046CD
:103DD40038BD0446FBE70024F9E700BFA0650000F6
:103DE40000660000F0B589B00446154BB02505FB0C
:103DF400003500EB8003134E06EB831606AF034633
:103E0400114A0821384601F081FA04EB44040F48B2
:103E140000EBC4040597012304930F2303930023A9
:103E24000293019300940A4B4FF4A0723146284642
:103E340000F044F96B7B23F004036B7309B0F0BD0D
:103E4400A8010020580F0020886A000044090020BF
:103E54002542000070B586B000F006FE1A4D1B4BDB
:103E6400DD611B4B05930123049300240394029406
:103E740001940094174B4FF480621749284600F0D0
:103E84001DF906466B7B23F004036B73284602F08E
:103E94000CFA002C02DD304606B070BD2046FFF758
:103EA400A1FF0E4BB02202FB043204EB4401074B8A
:103EB40003EBC103DA601C75094A02EBC42202F564
:103EC40000625A600134E4E75802002044090020EB
:103ED400946A0000E93E0000580B0020A80100206D
:103EE4009810002008B50A4B01221A700220FFF72F
:103EF4001FFF01F041F80320FFF71AFF00F042F919
:103F0400FCF7A4FA034A137B23F00103137308BDDF
:103F1400990900205802002008B50146014A0248C8
:103F2400FDF716FCE93E00005802002008B50348DE
:103F3400034A121A002101F0E7FC08BD88010020A1
:103F4400580B002000B5ADB01C4B03F5006282F3A2
:103F5400088883F30A881A4CE02384F82230002569
:103F6400E57725766576A57684F82050636A43F470
:103F7400E023636284F82350FDF728FDFDF7FCFA83
:103F84004FF0FF33A362E362FDF758FFFDF7E0FD56
:103F940001248DF80D408DF80C4026952795094B8A
:103FA400C3F808D0FFF7B8FE2846FFF7C1FE204645
:103FB400FFF7BEFEFFF74EFFFFF7AEFF981000209D
:103FC40000ED00E04409002010B5064C0020064B2B
:103FD4009C4206D2204602F0A1F8002801DB1C34E2
:103FE400F5E710BD3801002038010020F0B583B09A
:103FF4000C461F464FF02003EFF3118183F3128820
:10400400BFF36F8F43696BB1236043691B684361DE
:10401400836901338361002081F31188BFF36F8FBB
:1040240003B0F0BD164600F1080556EA070304D1B3
:10403400002323606FF00B00EEE7CDE90067024632
:10404400284600F0E7FB0028EAD1024B9B685B6935
:104054002360E5E7440900204FF02003EFF31181CA
:1040640083F31288BFF36F8F0A4B9B6A834204D198
:104074001A6F084B9A6207E0134613B11A6F824213
:10408400FAD10BB1026F1A6781F31188BFF36F8FF6
:10409400704700BF4409002038B514461D4654EA51
:1040A400050302D102F09DF838BD2B4602491830B1
:1040B40000F036FEF8E700BFE76200002DE9F04F9C
:1040C40085B004460F4615461E46DDF838A0DDF8D7
:1040D4003C90DDF84080DDF84CB000F15803836576
:1040E400C365129B0422119902F07FF82A463946CF
:1040F400204602F064F80546CDF80880CDF8049017
:10410400CDF800A03346024639462046FDF700FBB1
:10411400002363652666C4F864A0C4F86890C4F8F4
:104124006C804FF02003EFF3118283F31288BFF306
:104134006F8F134B996A21679C6282F31188BFF3D6
:104144006F8FBBF1000F13D01F22594604F1740086
:1041540001F080FB002384F89330094B9B685BB12A
:10416400D3F8A430C4F8A430284605B0BDE8F08FD5
:10417400002384F87430F0E7C4F8A430F4E700BFF7
:10418400440900202DE9704386B0234C234B9C4204
:1041940015D2E36A0593236A0493E3690393A3693D
:1041A40002936369019323690093E368A2686168D9
:1041B4002068FFF783FF23685C653034E6E700F08E
:1041C400E1F9154C1BE0266823EAE3734FEAE3792F
:1041D4004FEAC93141EA5341D80340F2E7354FF47D
:1041E4007A72002340194FF0000545EB0101FBF7FB
:1041F400AFFF02460B463046FFF74EFF3034074B05
:104204009C4204D2636AB3F1FF3FF7D0DBE700F0CE
:10421400B7FB06B0BDE870833801002038010020E8
:1042240008B501E0FDF7AEF94FF02002EFF311837A
:1042340082F31288BFF36F8F02F036F9034B986153
:10424400FDF704F80028EFD1ECE700BF4409002093
:104254002DE9F04383B004461D464FF02003EFF3ED
:10426400118783F31288BFF36F8FC16899B900294E
:104274004FD13A4B9B6893F90E3023610131E160D1
:10428400364B9B68A36087F31188BFF36F8F0020C0
:1042940003B0BDE8F08316468268304B9B689A42AF
:1042A400E5D055EA06010CBF4FF001084FF00008B5
:1042B40031D092F90E90494693F90E0001F0A6FF11
:1042C40081452FDC4FF000090096019522463946BE
:1042D400234800F09FFA0028DAD04FF02003EFF3D0
:1042E400118583F31288BFF36F8F23689C421FD01C
:1042F400F3B1216993F90E0001F088FF01462046CD
:1043040001F08FFFB0B9B9F1000F15D04FF00108DB
:1043140012E02369B1E787F31188BFF36F8F6FF061
:104324000F00B5E70146204601F07BFF8146CBE74D
:104334002169E4E74FF00108B8F1000F06D185F3D5
:104344001188BFF36F8F6FF00A00A1E72946044874
:1043540000F0FCF86FF00A009AE700BF440900205F
:10436400700900208268002A35D038B504461D4BF8
:104374009B689A4232D1DA7B013ADA73C368012B23
:1043840005D9013BC36000F0FBFA002038BD4FF0B3
:104394002003EFF3118583F31288BFF36F8F016954
:1043A40001F03FFF204602F01BF8A06060B190F9D5
:1043B4000E3023610023C0F8AC3001F076FF2946AB
:1043C400094800F0C3F8DEE70023E36085F31188B1
:1043D400BFF36F8FD7E76FF0150070474FF0FF30D2
:1043E400D4E700BF440900207009002038B5044612
:1043F4004FF02003EFF3118583F31288BFF36F8F1F
:1044040001F0EEFF48B10022C0F8AC2001F04DFFEE
:104414002946074800F09AF838BDA368E268934239
:1044240003D001221344A360F2E70022FAE700BF9D
:104434007009002030B583B01D464FF02003EFF320
:10444400118183F31288BFF36F8F836843B1013BFB
:10445400836081F31188BFF36F8F002003B030BDF8
:10446400144654EA050306D0CDE900450246054842
:1044740000F0D0F9F2E781F31188BFF36F8F6FF08A
:104484000F00EBE77009002038B5B3F1FF3F08BF18
:10449400B2F1FF3F00D138BD0249183000F040FCB2
:1044A400F9E700BFE762000008B5084B1B6803B9D1
:1044B40008BDFEF74BFC0346044A10680344044A53
:1044C4001361002102F006F8F2E700BF780900202A
:1044D400440900202DE9F0410646884600234FF0A8
:1044E4002002EFF3118782F31288BFF36F8F09E084
:1044F400134BC3F80080FFF7D7FF87F31188BFF38E
:104504006F8F0123CBB900230E4A1361750CF4039A
:1045140040F2E7304FF47A72002320184FF0000184
:1045240045EB0101FBF714FE074B1860002EDFDD9D
:104534000228B8BF02201860DAE7BDE8F08100BFA6
:1045440074090020440900207809002008B50846B1
:1045540021B9EFF3058313B9012100E0002111F023
:10456400010F07D0064BDA699B689A4202D0FDF727
:1045740075F803E080F31188BFF36F8F08BD00BFA7
:104584004409002000234FF02002EFF3118182F34D
:104594001288BFF36F8F53B9054B9A68D37B013BE5
:1045A400D37381F31188BFF36F8F0123F3E770474F
:1045B4004409002038B504460F4801F06FFE054653
:1045C40070B184B90D4B9B685A7B12F01F0F0AD14E
:1045D400AA6942B9DA897F2A05D9084AD3610AE06F
:1045E400064BDD68EDE7054B9B68AB4201D0FFF756
:1045F4005BFF024BDD6138BD6409002044090020E3
:1046040038B50546427B90F90D30002B28DB6B7BD7
:1046140063F07F036B731A4B53F8204F9C422DD0E9
:104624006CB12146284601F012FE002820DC34B18A
:10463400134B5B6A9C4202D02468002CF0D1104BCF
:104644005A6A03F1200129606A6015605D620C4BAF
:104654009868A84214BF00200120FFF7ABFF38BDC3
:1046640002F07F0242730146064801F00FFECEE7D6
:1046740063686B602C601D606560E8E70024CFE729
:10468400440900206409002010B54FF02003EFF323
:10469400118483F31288BFF36F8F1C4B9B681C4AF1
:1046A400126893421DD01A4A00211160194A1268F7
:1046B40022B3DA897F2A21D85A7B12F01F0F1DD129
:1046C40093F90E10144A1268914217DB134A93426D
:1046D40014D00E4A126982420ADD101A0B4B18617B
:1046E4000FE0FFF7E1FE84F31188BFF36F8F0CE056
:1046F4001846FFF785FFFFF7D7FE02E0034B0022C1
:104704001A6184F31188BFF36F8F10BD4409002030
:10471400700900207809002074090020A8010020F5
:1047240038B5437B90F90D20002A2DDB044613F0A5
:104734001F0F05D182690AB1002202E0012200E0C4
:1047440000220AB363F07F036373144B53F8205FB2
:104754009D4220D06DB12946204601F078FD002805
:1047640013DC35B10D4B5B6A9D4202D02D68002DE0
:10477400F0D10A4B5A6A03F120012160626014608F
:104784005C620020FFF716FF38BD6B68636025602C
:104794001C606C60F5E70025DCE700BF44090020DD
:1047A40010B54FF02003EFF3118483F31288BFF3A5
:1047B4006F8F437B13F0040F04D184F31188BFF38C
:1047C4006F8F10BD23F004034373FFF7A9FF214645
:1047D4000148FFF7BBFEF4E77409002010B5044656
:1047E400427B90F90D30002B08DB084B9868A042FF
:1047F40014BF00200120FFF7DDFE10BD02F07F0290
:1048040042730146024801F041FDEEE744090020ED
:104814006409002010B50C461146064B9868064BF7
:104824001860DDE9022301F0BAFD2046FCF716FF0B
:1048340010BD00BF44090020700900202DE9F84391
:1048440004460F4600234FF02002EFF3118682F353
:104854001288BFF36F8F984608E012F0010811D157
:10486400A77386F31188BFF36F8F01231A46002BB9
:104874003DD1637B13F01F0FEFD1A1690029ECD167
:104884000122EAE703F07F036373DFF86C902146AB
:10489400484601F0FBFCA773637B63F07F036373FB
:1048A400D9F800504D4520D06DB12946204601F07D
:1048B400CEFC002813DC35B10E4B5B6A9D4202D05E
:1048C4002D68002DF0D10B4B5A6A03F120012160B1
:1048D400626014605C620120FFF76CFEC1E76B68E4
:1048E400636025601C606C60F5E70025DCE74046EA
:1048F400BDE8F883440900206409002038B5044663
:10490400183001F0B3FD00234FF02002EFF31185BE
:1049140082F31288BFF36F8F10E0637B43F01003C0
:104924006373154B9868A04214BF00200120FFF761
:1049340041FE85F31188BFF36F8F012363B9627B56
:1049440094F90D30002BE8DA02F07F0262732146FD
:104954000A4801F09BFCE0E7074B9B68A34200D0A8
:1049640038BD4FF02003EFF3118083F31288BFF3B7
:104974006F8F01F076FCF3E74409002064090020FE
:1049840010B500234FF02002EFF3118482F3128854
:10499400BFF36F8F6BB90C4B9A68D37B0133D3731E
:1049A4000020FFF707FE84F31188BFF36F8F012304
:1049B400F0E74FF02003EFF3118083F31288BFF385
:1049C4006F8F01F04EFC10BD44090020F8B5437B05
:1049D40013F0080F45D1054643F0080303F0DF0345
:1049E400437313F0800F14D1AB685BB1284601F018
:1049F4002CFC294601F04AFC6B7B23F002036B7309
:104A04000023AB6005F1180001F030FD05F15807F3
:104A14001CE003F07F0343730146124801F036FCA7
:104A2400E2E7204601F011FC214601F02FFC637BF4
:104A340023F0020363730026A66004F1180001F05A
:104A440015FDC4F8AC602046FFF76AFE3C68BC4222
:104A540001D0002CE5D10120FFF7ACFD2846FFF77B
:104A6400FBFAF8BD6409002008B5044801F0E3FC32
:104A740000210846FFF72EFD08BD00BF6009002095
:104A8400F8B54FF02003EFF3118683F31288BFF3D8
:104A94006F8F1C4CA1684B7B03F07F034B7304F1B5
:104AA4002007384601F0F2FBA5686B7B63F07F03B7
:104AB4006B73246ABC4223D06CB12146284601F0B2
:104AC400C6FB002816DC34B10E4B5B6A9C4202D054
:104AD4002468002CF0D10B4B5A6A03F120012960A1
:104AE4006A6015605D620120FFF764FD3046FCF7E3
:104AF400B5FDF8BD63686B602C601D606560F2E70E
:104B04000024D9E7440900202DE9F04104460D466C
:104B140054EA050137D06FF001010A1A4FF0FF3152
:104B240061EB0503012A73F1000330DB6FF001062A
:104B3400361A4FF02003EFF3118883F31288BFF382
:104B44006F8F164FB868164B1860FFF747FEB868AA
:104B540022462B461349183000F0E2F8BA68537B1A
:104B640043F0100353734046FCF778FD002501F031
:104B7400DCFC341A65F10005012C75F100030ADA36
:104B84000020BDE8F081FFF77BFF0020F9E701F08A
:104B9400CCFC0619CDE72046F3E700BF440900200A
:104BA40070090020E762000038B5B1F1FF3F08BF8B
:104BB400B0F1FF3F1AD0FFF7A7FF0446C5176901FC
:104BC400430141EAD062181A62EB05039A0042EAF3
:104BD400907281001346081945EB0303DA0042EA98
:104BE4005072C100C80B40EA424038BD034B98687C
:104BF400FFF784FE4FF0FF30F7E700BF44090020C1
:104C0400014B9868704700BF4409002038B54FF045
:104C14002003EFF3118583F31288BFF36F8F437B77
:104C240013F0080F04D085F31188BFF36F8F38BDDC
:104C34000446FFF7CBFE084B9B68A34204D085F3E0
:104C44001188BFF36F8FF2E7EFF30583002BF6D1E2
:104C54002846FCF703FDF2E74409002008B506489E
:104C6400064A121A064900F02BFE064A064907486E
:104C740000F026FE08BD00BF0000002088010020CF
:104C8400606B000000000000606B0000000000206A
:104C9400034B1868984200D070470020FCE700BF1F
:104CA400C000002030B1044A5268904201D000682C
:104CB40070470020704700BFC000002008B5044BB7
:104CC4001B680BB1002008BDFEF740F8FBE700BFEE
:104CD4007C09002010B5FFF7DBFF0446FFF7EEFF69
:104CE4008CB1D4E90423121A63EBE073012A73F143
:104CF400000111DB1046B2F1004F73F1000304DB35
:104D04006FF0004001E06FF00040044B1B6913B1E9
:104D1400834200DA184610BD0020F6E7440900205B
:104D24002DE9F04F83B0B3F1FF3F08BFB2F1FF3F6D
:104D340000F09680824614461D46816000234FF0A1
:104D44002002EFF3118B82F31288BFF36F8F2EE0F2
:104D5400012200234BE0FFF7B1FF221845EBE0737B
:104D6400013243F10003CAF81020CAF8143042E0BB
:104D7400009BC21A019B61EB0303CCF81020CCF812
:104D84001430DCF80430CAF80430CAF800C0C3F8A0
:104D940000A0CCF804A0BCF1000F49D0FFF778FFC5
:104DA400824550D08BF31188BFF36F8F0123002B02
:104DB40056D16FF00103B3EB04084FF0FF3060EB02
:104DC4000509B8F1000F79F10003C4DB264A136822
:104DD4005268E31845EB02026FF00101CE1A60EB52
:104DE400020732463B46012E77F10001B0DBCAF8D8
:104DF4001020CAF81430FFF74BFF8446BCF1000FB3
:104E0400C9D0DCE90401DAE90423CDE900238242B4
:104E14008B41ADDB009B1A1A019B63EB0103CAF8BB
:104E24001020CAF814306046FFF73CFF8446E5E7DB
:104E34000E4B5A68CAF80030CAF80420C2F800A021
:104E4400C3F804A0AAE7FFF745FF034618B1084AD0
:104E540012698242A6D000211846FDF743FFA1E75C
:104E640003B0BDE8F08F00BF08030020C00000209D
:104E740044090020F8B50446FFF706FC4FF0200370
:104E8400EFF3118583F31288BFF36F8F284B1C60F7
:104E9400FFF7FEFE044650B3D0E90467244B1B68B9
:104EA400D917B34271EB070221DB224AD2E9000190
:104EB400801941EBE671C2E900019B1B1C4A136097
:104EC40000220023C4E90423204601F0B8FA85F344
:104ED4001188BFF36F8FA368204698474FF02003D3
:104EE400EFF3118583F31288BFF36F8FD0E744B1DA
:104EF4000F4B1968D4E90423521A63EBE173C4E934
:104F040004230C480A490C68D0E90023121943EB26
:104F1400E473C0E9002300240C60FFF7DBFE2146A4
:104F2400FDF7E0FE85F31188BFF36F8FF8BD00BF76
:104F34007C0900200803002010B500214FF0200355
:104F4400EFF3118483F31288BFF36F8F00220023E1
:104F540069B9FDF7FBFE074BD3E90023121843F1AF
:104F6400000384F31188BFF36F8F0121F0E710462B
:104F7400194610BD0803002008B5034A0349044834
:104F840000F0B6F908BD00BFD06800009C6A0000BC
:104F9400AC6A000010B50A4C23681BB10123002041
:104FA400236010BD00F0D4F80028F7D0013807289A
:104FB40003D8044B53F8200010BD034810BD00BFB4
:104FC40080090020D46A0000FE8FFFFFBFF34F8FDB
:104FD4000549064BCA6802F4E0621343CB60BFF391
:104FE4004F8F00BFFDE700BF00ED00E00400FA05AD
:104FF4004FF0FE33002130B4084A094C094D2360B8
:105004002B601360E360EB60D360A361064A074C36
:10501400AB616368C2F8001530BC1847085484506B
:10502400005484500454845000408450C80000202C
:10503400024BD0E90012C3E900127047C8000020F7
:1050440010B5044630B16368DB0602D50023236043
:10505400636010BD024B03485B689847F3E700BFE9
:10506400C8000020F46A000068B143683BB1DB0665
:1050740007D5BFF35F8F00230360184670470348CA
:105084007047034870476FF4E0407047EA8FFFFFB2
:10509400E98FFFFF10B5044620B1002211232260DE
:1050A400636010BD0148FFF7A3FFF6E71C6B000027
:1050B400A0B1436883B1DB060CD50122D0E8EF3FF1
:1050C400C0E8E12F0029F9D1012BF7D0BFF35F8F9E
:1050D4000020704703487047034870476FF4E0406E
:1050E400704700BFE98FFFFFEA8FFFFF2DE9F04112
:1050F400144C0268C368D0E90156C4E90263C4E9E8
:105104000025114B0E684868104DC3E90060D1E9D1
:1051140002760869D5F81411C3E902761861CB0642
:105124000DD5002305F58870C5E94433C5E96D3311
:105134009047236805F5DA70BDE8F0411847BDE8EB
:10514400F08100BFD8000020E80000209C09002066
:1051540008B500F00FF828B900F00EF830B9044A89
:10516400106008BD00F036F8032008BD042008BD17
:105174000C5A84500020704710B5114800F048F8CC
:1051840000B110BD0F4800F043F80028F9D10E4CCF
:10519400204600F03DF80028F3D10C4B0C481C606D
:1051A40000F036F801460028EBD100F02DF8044653
:1051B40008B1204610BD00F03FF82046FAE700BFD2
:1051C40020010020140100201C01002024010020E3
:1051D4001801002008B5084800F024F8074800F03A
:1051E40021F8074800F01EF8064800F01BF8BDE857
:1051F400084000F00BB800BF20010020140100207B
:105204001C0100201801002000207047704700BFD7
:1052140008B5034B02681B6810689847002008BD56
:10522400D800002008B5034B02685B6810689847F3
:10523400002008BDD800002070B5094C094D206934
:10524400AB68984718B1084B08485B689847002139
:10525400074AEB6811602069BDE87040184700BF39
:10526400E8000020D8000020C8000020406B0000A7
:1052740094090020024658B1436803F00303012B4C
:1052840003D0032B07D1036843B10020906070471B
:105294006FF0150070476FF0150070476FF0150040
:1052A40070470346426802F003028160032A03D177
:1052B400006800225A6070470020FAE70020704717
:1052C40010B40C6854B18A684B689A4206DA013B00
:1052D4009A4208D0531C8B60A05402E08B680133BF
:1052E4008B6010BC7047531C8B600023A354F8E7F9
:1052F4000FB400B583B004A951F8040B0191FBF776
:1053040011F903B05DF804EB04B070470CB400B5B8
:1053140083B004AB53F8042B0193FBF713F903B0E8
:105324005DF804EB02B0704701F00703018B21F034
:1053340007011943018370472DE9F04106460F46E2
:105344009046816819B10C4631B10C6804E00C46F2
:1053540002E0234621461C4659B14D6843463A466D
:105364003046A847002CF4D02346002CF2D0236802
:10537400F0E7BDE8F081038B13F0070303D1026863
:105384000AB103207047022B03D0012B06D0002062
:105394007047428B002AF8D10420704703680BB190
:1053A400052070470020704738B504460D46038B2E
:1053B400002A07DB03F007035A1F012A0ED9042B26
:1053C40032D038BDD0E9000185E803000023236012
:1053D400636001212046FFF7A7FFF2E7D0E900014F
:1053E40085E80300002222606260062B17D12B6837
:1053F4003BB1628B01326283002BF9D01B68002B16
:10540400F6D102212046FFF78FFF2046FFF7B3FFB6
:105414000028D6D0238B43F020032383D1E7002137
:105424002046FFF781FFF0E70021FFF77DFF2046CC
:10543400FFF7A1FF0028C4D0238B43F0200323836C
:10544400BFE758B110B50C4659B1081DFFF712FF5C
:1054540018B9A36833F0030306D110BD6FF015002B
:1054640070476FF01500F8E76FF01500F5E72DE9C8
:10547400F04107460C4616461D461946201DFFF707
:1054840010FF28B180462B46324621463846C04795
:10549400BDE8F0812DE9F84381460C4690461F464D
:1054A40005E065603B4642464846FFF7E0FF216859
:1054B40029B10D68256066688E42F3D1F1E7BDE835
:1054C400F88310B54FF02004EFF3118284F31288AF
:1054D400BFF36F8F41610121FBF74AF810BD03460A
:1054E40068B179B10A6882B14A688AB1002018604B
:1054F40058609860D86058619861196170476FF07E
:10550400150070476FF0150070476FF01500704775
:105514006FF015007047F8B504460F46FFF791FF8A
:10552400061E37DB4FF02003EFF3118283F312885A
:10553400BFF36F8F258B05F00705638B4FF6FF7163
:105544008B422FD02E46022D0CD08DB1042D0FD0BE
:10555400062D0DD0052D1FD06FF0040600210B463B
:1055640008460AE00133638301210023184604E05E
:10557400B5FA85F35B090021012028B100203860C9
:105584006068A8B107606760ABB982F31188BFF3A4
:105594006F8FA9B93046F8BD6FF0850600210B4620
:1055A4000846EAE76FF00A0600210B460846E4E7DE
:1055B40067602760E8E702212046FAF7D9FFE9E7A8
:1055C40000232A4639462046FFF751FFE2E708B593
:1055D4000446084611461A46A047FFF711FBFCF79C
:1055E400A1FA10B40446026800201378A3F1300134
:1055F400092906D800EB8000013203EB4000303863
:10560400F3E7226010BC70472DE9F04F83B00446E5
:105614000D4601929A46DDF83080D378A3F1410B10
:105624006F2B0FD006D9702B0FD0782B10D14FF0E1
:10563400100926E0582B02D04FF00A0921E04FF060
:1056440010091EE04FF008091BE04FF0100918E0A4
:105654004FF00A0915E0BBF1190F20D8D2B2373246
:10566400D2B208F8012D32463B4620462946FAF7C5
:105674006FFDBD4208BFB44215D3D04513D90446CB
:105684000D464E4600274A463B4620462946FAF731
:105694005FFD092ADFD8D2B23032D2B2E1E7D2B20A
:1056A4005732D2B2DDE7019B1B7813F0200F05D0EF
:1056B400B9F1080F06D0B9F1100F09D0404603B074
:1056C400BDE8F08F019A937843F008039370F5E7EF
:1056D400019A937843F010039370EFE72DE9F041BA
:1056E40007460E4614469846002506E0314614F84F
:1056F400010BB847002809DB01354445F6D3B8F15E
:10570400000F02D12378002BF0D12846BDE8F081A8
:10571400704784B004AB03E90700002383F31188C6
:10572400BFF36F8F04B07047002202604260826052
:10573400704708B50020FBF7B1FC08B500F0D4FCB5
:1057440008BD08B501460068FFF7F7FF08BD08B5B6
:1057540000210120FFF7F1FF08BD08B5FBF75EFF4C
:10576400FCF72CF808BDD0F8983083F30B88704709
:105774000020704700230B70704708B50023137096
:10578400CB1E092B1AD8DFE803F005090D111919EE
:10579400191919141146FCF78DF810E00021FCF7D3
:1057A4001BF80CE00021FCF743F808E0FCF76AF86A
:1057B40005E01146FFF7DEFF002000E0002008BDF1
:1057C40040E800F010F4803F01D0C0B270476FF0A1
:1057D4001500704743681F2B0AD913F01F0F01D01F
:1057E40000207047036813F01F0F03D00020704798
:1057F4000020704701207047072805D810B50446DB
:10580400FCF7CCF9204610BD6FF01500704730B599
:1058140085B00B6800934C680D899DF8082065F3EA
:105824000402897A61F347128DF8082023F01F03DC
:105834002344013B23F01F0303936946FFF7DCFF76
:1058440005B030BD08B5FCF787FA08BD08B5FCF70C
:105854008DFA08BD0346A2B110B40C782CB103F83C
:10586400014B0131013A002AF7D122B1002103F89A
:10587400011B013AF9E710BC7047002103F8011B32
:10588400013A002AF9D17047034600201A7812B170
:1058940001330130FAE77047034600201A7822B139
:1058A400884202D201330130F8E7704703780A785E
:1058B400934203D113B101300131F7E7981A7047CD
:1058C40010B480EA010313F0030F01D0034617E07C
:1058D400034613F0030F0BD0A2B111F8014B03F8E8
:1058E400014B013AF5E751F8044B43F8044B043AF1
:1058F400032AF8D804E011F8014B03F8014B013AEC
:10590400002AF8D110BC704710B4CCB2034613F08F
:10591400030F04D09AB103F8014B013AF7E7C9B277
:1059240041EA012141EA0141032A06D943F8041B53
:10593400043AF9E703F8014B013A002AFAD110BC02
:1059440070474FF0FF307047006901EB4101890057
:10595400703108447047406800EBC100704700692B
:10596400C1EBC10100EB8100704708B5C9B2FFF774
:10597400EBFF806800F0070008BD4FF02003EFF351
:10598400118283F31288BFF36F8F036813F0C0038F
:1059940001D08B4207D101230360002082F31188D8
:1059A400BFF36F8F70474FF0FF30F7E710B44FF03D
:1059B4002003EFF3118283F31288BFF36F8F036820
:1059C40003F0C00403F00703012B09D08C420AD072
:1059D4004FF0FF3082F31188BFF36F8F10BC704714
:1059E40001600020F6E76FF07700F3E74FF0200343
:1059F400EFF3118283F31288BFF36F8F036803F010
:105A0400C00343F00203036082F31188BFF36F8F76
:105A14007047F8B506460C46FFF796FF05684768D9
:105A2400002340F8083BFFF7E1FF1DB13A46214649
:105A34003046A847F8BD70B506461546CCB2214697
:105A4400FFF782FF29460830FFF797FF002806DB9F
:105A540021463046FFF77FFF43689847002070BD1A
:105A640008B58022FFF7E7FF08BD2DE9F04106469F
:105A740090461F46CDB22946FFF766FF04460699B5
:105A84000830FFF793FF002809DBC4F80080676043
:105A940029463046FFF75FFF036898470020BDE8BA
:105AA400F08110B582B080240094FFF7DEFF02B0CD
:105AB40010BD10B51446C9B2FFF751FF0021A0472D
:105AC40010BD08B50120FDF7C3FA08BD08B50320D1
:105AD400FDF7BEFA08BD08B50220FDF7B9FA08BD06
