:10000000E02800208D2C0000B5A90000452C000040
:10001000452C0000452C0000452C0000452C00001C
:100020000000000000000000000000005129000056
:10003000452C000000000000F5280000452C0000C1
:10004000DD290000DD290000DD290000DD29000098
:10005000DD290000DD290000DD290000DD29000088
:10006000DD290000DD290000DD290000DD29000078
:10007000DD290000DD290000DD290000DD29000068
:10008000DD290000DD290000DD290000DD29000058
:10009000DD290000DD290000DD290000DD29000048
:1000A000DD290000DD290000DD290000DD29000038
:1000B000DD290000DD290000DD290000DD29000028
:1000C000DD290000DD290000DD290000DD29000018
:1000D000DD290000DD290000DD290000DD29000008
:1000E000DD290000DD290000DD290000DD290000F8
:1000F000DD290000DD290000DD290000DD290000E8
:10010000DD290000DD290000DD290000DD290000D7
:10011000DD290000DD290000DD290000DD290000C7
:10012000DD290000DD290000DD290000DD290000B7
:10013000DD290000DD290000DD290000DD290000A7
:10014000DD290000DD290000DD290000DD29000097
:04015000DD290000A5
:1001540053B94AB9002908BF00281CBF4FF0FF312A
:100164004FF0FF3000F070B9ADF1080C6DE904CE2A
:1001740000F006F8DDF804E0DDE9022304B070477E
:100184002DE9F047089E0D4604468A46002B7FD190
:100194008A42174641D9B2FA82F24AB1C2F1200129
:1001A40005FA02F39740944020FA01F141EA030A68
:1001B4004FEA17484FEA144C1FFA87F9BAFBF8FEC6
:1001C40008FB1EA30EFB09F14CEA0343994206D92E
:1001D400FB1802D2994200F224810EF1FF3E591A13
:1001E400A3B2B1FBF8F008FB101100FB09F943EAD4
:1001F4000144A14505D93C1902D2A14500F20E8162
:100204000138A4EB090440EA0E4000211EB1D44099
:100214000023C6E90043BDE8F08702B9FFDEB2FA65
:1002240082F2002A4FD1CB1B4FEA174E1FFA87F8F0
:100234000121250CB3FBFEFC0EFB1C302B4608FBF6
:100244000CF945EA0045A9450AD97D192CBF0123BB
:100254000023A94502D9002B00F0D9800CF1FF3C02
:10026400A5EB0905A3B2B5FBFEF00EFB105508FB88
:1002740000F843EA0544A04505D93C1902D2A0453B
:1002840000F2C9800138A4EB080440EA0C40BDE741
:100294008B4208D9002E00F0B1800021C6E9000588
:1002A4000846BDE8F087B3FA83F1002946D1AB4292
:1002B400C0F0A780824240F2A4800846002EAAD053
:1002C400C6E9004AA7E7C2F12000974001FA02F309
:1002D4004FEA174EC14024FA00F51FFA87F89440FC
:1002E4001D43B1FBFEF02B0C0EFB101100FB08FCB0
:1002F40043EA01439C4509D9FB182CBF0121002185
:100304009C4502D9002900F095800138A3EB0C0329
:10031400ADB2B3FBFEF10EFB113301FB08FC45EA61
:100324000345AC4505D97D1902D2AC4500F289805C
:100334000139A5EB0C0341EA00417AE7C1F120043D
:100344008B4002FA01F705FA01FCE24020FA04F8B6
:10035400E54000FA01FE134348EA0C024FEA134851
:100364004FEA124C1FFA83F9B5FBF8FA08FB1A5549
:100374000AFB09F04CEA054C60450AD913EB0C0C56
:100384002CBF01250025604501D9002D55D00AF167
:10039400FF3AACEB000C92B2BCFBF8F008FB10CCBB
:1003A40000FB09F942EA0C4CE14505D913EB0C0CAE
:1003B40001D2E1453BD8013840EA0A40ACEB090CD4
:1003C400A0FB0789CC4545464A4602D306D1C6451B
:1003D40004D20138B8EB070569EB03022EB3BEEB78
:1003E40005036CEB020C23FA01F20CFA04F42CFA68
:1003F40001F300211443C6E900430CE731463046BB
:1004040009E7841A65EB030301209A4656E7ACF129
:10041400020C3D4424E702383C4434E702383C44AF
:10042400EFE6AEF1020E3B44D9E63146F3E602387C
:100434009C44C1E702383B4468E7AAF1020A9C44A1
:10044400A7E702393D4474E7704700BF00B583B0A5
:100454000020019001F09EFA38B103B05DF804FB6E
:1004640040F6CD40002108F0FFFC019B4BB90A4B3C
:100474009B681B6D002BF3D001AA04210648984702
:10048400EEE70649064809F0F5F84FF4004000216C
:1004940008F0EAFCF5E700BF54C1000028C40000DE
:1004A4002CC4000008B50B6801330B60014B1B68BA
:1004B400984708BD00000020014B1860704700BF3A
:1004C4000000002000B583B002460B4600210191D4
:1004D40001A9034800F0C8F803B05DF804FB00BFAD
:1004E400A904000010B584B00446019002910021D3
:1004F400039101A9054800F0B7F8039B029A9342BF
:1005040001DA0022E254039804B010BD49960000B9
:100514002DE9F04383B0044608461546238B13F0B7
:10052400080F05D103F0070600230093019369E047
:10053400012909D043F02003238385F31188BFF3F5
:100544006F8F03B0BDE8F08343F010032383F4E717
:10055400204609F0D2F857E0D4F814904A46694688
:10056400204609F0E3F800275AE023691F680621B2
:10057400204609F09BF84FF0000951E023695F68B9
:100584000421204609F092F84FF0000948E023695D
:100594009F680521204609F089F84FF000093FE0E3
:1005A400002246E0002244E043F00803238385F35D
:1005B4001188BFF36F8F002944D1009B2BB14B46A8
:1005C40042466946204609F027F917B125492046D5
:1005D400B8474FF02003EFF3118583F31288BFF37C
:1005E4006F8F238B23F008032383238B13F0100FC7
:1005F4002ED023F0100323830120268B06F0070658
:1006040000289AD00228A3D0002896D00128A3D08D
:100614000328AAD00428B1D00528B8D00027B946A9
:10062400238B03F00708B045BAD0A268002AB9D0DA
:1006340001221146002AB7D1009A002AB4D1002F12
:10064400B2D1D2E74A464146204609F037F8B4E72A
:1006540013F0200F04D023F0200323830220CCE7DF
:100664000020CAE74B9800002DE9F04F93B00646EE
:100674000D469246039300249AF80000002800F0E7
:10068400D684252808D00AF1010A2946B047002853
:10069400C0F2CE840134EFE70023069307930B9353
:1006A400089309930A930AF101089AF80130252B5B
:1006B40001D001272CE00AF102088DF82330A8E1CB
:1006C4009DF8203043F004038DF82030FFB108F189
:1006D40001081CE09DF8203043F008038DF8203019
:1006E400F4E79DF8203043F010038DF82030EDE757
:1006F4009DF8203043F020038DF82030E6E79DF884
:10070400203043F040038DF82030DFE700274FB35B
:1007140098F80030203B102BF8D801A252F823F0AF
:10072400E70600001107000011070000F5060000AD
:100734001107000011070000110700001107000055
:10074400110700001107000011070000D90600007E
:1007540011070000C5060000110700001107000082
:10076400030700009DF8203003F04403442B6DD0B0
:10077400CDF814809DF8203043F080038DF82030AC
:1007840098F800302A2B68D005A809F0B9FC059B1D
:10079400984512D09DF8203043F080038DF8203026
:1007A4000990C3F34003002860DB002213439DF843
:1007B400202063F341028DF82020059B05931B78CC
:1007C4002E2B14BF002301239DF8212063F3410243
:1007D4008DF82120002B4BD0059B5A1C05925B7889
:1007E4002A2B48D005A809F08BFC0A909DF82030EC
:1007F400C3F34003002847DB002213439DF8202065
:1008040063F341028DF82020DDF8148098F800305D
:100814004C3B2E2B00F2DC80DFE803F0CADADADA94
:10082400DADADADADADADADADADADADADADADADA24
:10083400DADADADADADADADA38DA6ADA51DADADAAF
:10084400DADADADAC0DADADADADAB6009DF820309F
:100854006FF386138DF820308AE79DF8213043F03A
:1008640001038DF8213043460133A7E701229DE7B8
:10087400DDF81480CAE79DF8213043F004038DF8B5
:10088400213002F10108C1E70122B6E708F10102B3
:1008940098F80130682B08D09DF82130022161F3CB
:1008A400C6038DF8213090462BE09DF821300122BB
:1008B40062F3C6038DF8213008F1020821E008F143
:1008C400010298F801306C2B08D09DF821300321E7
:1008D40061F3C6038DF82130904612E09DF8213073
:1008E400042262F3C6038DF8213008F1020808E0FF
:1008F4009DF82130052262F3C6038DF8213008F1FA
:10090400010818F8013B8DF82330A3F14102372A7E
:1009140000F25081DFE812F026014E014E014E0133
:100924002601260126014E014E014E014E014E01C3
:100934004E014E014E014E014E014E014E014E013B
:100944004E014E014E0113014E014E014E014E0166
:100954004E014E014E014E0126014E01130163006A
:100964002601260126014E0163004E014E014E016F
:100974004E012F0113013F014E014E013F014E0173
:1009840013014E014E0113019DF82130062262F33A
:10099400C6038DF8213008F10108B2E79DF8213033
:1009A400072262F3C6038DF8213008F10108A8E795
:1009B4009DF82130082262F3C6038DF8213008F136
:1009C40001089DF8203043F002038DF8203098E7A9
:1009D4009DF821306FF3C6038DF8213091E79DF81F
:1009E4002220012161F302028DF822209DF82120AA
:1009F40002F07802402A00F0AA80632B00F0AE8057
:100A04009DF82030C3F34002174367F341038DF888
:100A140020309DF8213013F0010F00F0DA80039BA1
:100A24001A1D03921F68002FC0F2CB809DF821305D
:100A340013F0040F00F0DF80039B1A1D0392D3F818
:100A440000B0BBF1000FC0F2CD80002309930A93DC
:100A54009DF8223003F007039DF82110C1F3C30170
:100A6400012B00F0D180022B00F01681042B00F042
:100A74006781032B00F07E819DF8209019F0030319
:100A8400029340F07D819DF82330253B532B00F2E7
:100A94003382DFE813F08101310231023102310285
:100AA40031023102310231023102310231023102AA
:100AB400310231023102310231023102310231029A
:100AC400310231023102310231023102310231028A
:100AD400310231023102310231023102310231027A
:100AE400310231023102310231023102310231026A
:100AF400310231023102310231023102C7013102C5
:100B04003102310231023102310231023102310249
:100B14003102A101AB013102310231023102AB01D8
:100B240031023102310231020802C701EA01310205
:100B340031028F013102C70131023102C7019DF830
:100B44002220022161F302028DF822204EE79DF853
:100B5400201041F001018DF820104EE7171E18BF38
:100B640001274DE79DF82230042262F302038DF839
:100B74002230012744E79DF82230032262F3020366
:100B84008DF822309DF8213003F07803402B7FF458
:100B940037AF012734E79DF82230032262F30203C2
:100BA4008DF822309DF8213013F0780F3FF428AFF0
:100BB400012725E79DF8203043F001038DF820300C
:100BC4001EE79DF8203043F004038DF820307F4267
:100BD4002CE79DF92030002B02DB4FF0FF3725E78F
:100BE400099F23E79DF821306FF341038DF82130ED
:100BF4004FF0FF3B29E713F0020F02D0DDF828B0D5
:100C040023E74FF0FF3B20E7CB1E042B04D8DFE89B
:100C140003F00B1D29353500039B1A1D03921A6836
:100C2400D317CDE9062306E0039B1A1D03921A6825
:100C3400D317CDE90623012928D002297FF41CAF5C
:100C4400BDF91820D317CDE9062315E7039B073315
:100C540023F0070303F108020392D3E90023CDE94B
:100C64000623E8E7039B073323F0070303F1080295
:100C74000392D3E90023CDE90623DCE7039B1A1D85
:100C840003921A68D317CDE90623D4E79DF81830E8
:100C9400069300230793EFE6CB1E042B04D8DFE86A
:100CA40003F00B1F35414100039B1A1D03921B687F
:100CB4000693002307931EE09DF82330632B07D08F
:100CC400039B1A1D03921B6806930023079312E0EB
:100CD400039B1A1D03921B680693002307930AE0E3
:100CE400039B073323F0070303F108020392D3E9BC
:100CF4000023CDE9062301291CD002297FF4BCAED0
:100D0400BDF81830069300230793B5E6039B073319
:100D140023F0070303F108020392D3E90023CDE98A
:100D24000623E8E7039B1A1D03921B68069300231E
:100D34000793E0E79DF818300693002307939BE69A
:100D440008290BD0039B073323F0070303F10802A0
:100D54000392D3E90023CDE906238DE6039B0733F1
:100D640023F0070303F108020392D3E90023CDE93A
:100D7400062381E6039B1A1D03921B6806937BE6F8
:100D8400434652462946304609F037FA0028C0F255
:100D94004F810444C2466FE429462520B047002809
:100DA400C0F246810134DDF808900DF1460B4FF096
:100DB400000AA7E0DDF818A0BBF1000F08DB5946D4
:100DC400504609F094FE0AEB000BDDF8089099E018
:100DD400504609F084FEF6E7069B8DF83030DDF8C6
:100DE40008900DF1310B0DF1300A8BE019F0080F6A
:100DF40005D119F0100904D04FF0200901E04FF09B
:100E04002B09DDE90623002A73F1000102DBCDE999
:100E1400062309E0524263EB4303CDE906234FF076
:100E24002D0901E0DDF808900DF1460300930CABA9
:100E340008AADDE9060109F076F98246BBF1000F44
:100E4400C0F290800DF14603A3EB0A039DF8202025
:100E54006FF386128DF820209B4540F28680ABEB21
:100E6400030309930DF1460B4CE0069830B9DDF805
:100E74000890DFF8C4B1ABF1050A43E00DF1460375
:100E840000930CAB08AA002109F04DF982469DF8A5
:100E9400223043F010038DF8223078238DF823306C
:100EA400DDF80890CAE7069A9DF82130C3F3C3031E
:100EB400072B06D8DFE803F0040C0E1012171C1ED3
:100EC4001460DDF808900DF1460B4FF0000A19E0AC
:100ED4001470F6E71480F4E71460F2E72046E11793
:100EE400C2E90001EDE72046E117C2E90001E8E7A5
:100EF4001460E6E71460E4E7DDF808900DF1460BB2
:100F04004FF0000ABAF1000F00F08E80ABEB0A023A
:100F1400B9F1000F00D001329DF8221011F0100F2A
:100F240026D00232099B134411F0400F01D00A9AD3
:100F34001344002F32DDFF1A9DF8203013F0040F04
:100F44002CD113F0400F18D0B9F1000F18D0294656
:100F54004846B04700286BDB0134DDF808903023A5
:100F640002930FE00DF1460BCCE70DF1460BC9E7F8
:100F740011F0080FD6D00132D4E72023029301E008
:100F8400302302933B465F1E002B07DD294602985F
:100F9400B04700284CDB01343B46F4E7B9F1000FBD
:100FA40005D029464846B047002841DB01349DF866
:100FB4002230C3F30012C3F3C003134305D0294600
:100FC4003020B047002833DB01349DF8223013F081
:100FD400100F06D029469DF82300B047002827DBD0
:100FE4000134099B03F1FF39002B07DD294630202A
:100FF400B04700281CDB01344B46F3E75B465246FE
:101004002946304609F0F9F8002811DB0444002F82
:1010140007DD29462020B047002809DB0134013FC1
:10102400F5E7C246FFF728BBC246FFF725BB2046BB
:1010340013B0BDE8F08F00BF45C4000008B54FF001
:101044002002EFF3118382F31288BFF36F8F01F054
:101054004BFE034808F00EFB01F0AEFBFCE700BFBB
:1010640048C4000010B44FF02003EFF3118483F35D
:101074001288BFF36F8F0121124BC3F80015124A77
:101084000223C2F8D0361148D0F8003223F0E043EE
:1010940043F04053C0F80032D0F8043223F0E04368
:1010A40043F04053C0F80432C2F80417C2F80419DC
:1010B400C2F8001B84F31188BFF36F8F002010BCAB
:1010C400704700BF001000500040005000258450BD
:1010D40070B108B50246074B1B680748A0FB031311
:1010E4009B0C03FB02F0054B43F00103984708BD3A
:1010F400704700BF2C01002083DE1B4320C4000086
:1011040084B004AB03E907009DF80430062B01D03A
:1011140004B07047034B0122C3F80025BFF34F8F7F
:1011240020BFFDE700400050072801D90020704788
:10113400024B184480F8BB1001207047A807002018
:10114400072801D900207047024B184490F8BB00CF
:10115400704700BFA807002010B50378C3F34113FC
:101164000A33064C54F8233023B19847002803DB94
:10117400012010BD0020FCE70020FAE7A8070020AA
:101184000A30024B43F82010704700BFA807002024
:10119400014B5862704700BFA80700201368002263
:1011A4005A7001221A70074A92F8C3203AB10222F7
:1011B40042F001021A7002230B60012070470022E2
:1011C400F6E700BFA8070020F0B447883D0A2B1FAC
:1011D400DBB2012B1ED9FFB2072D1ED8104B5B6A60
:1011E400002600E00344187838B15C78AC42F9D1A9
:1011F400B74201D00136F5E7012060B11360022D3A
:1012040002D01B780B6006E09A78DB7842EA03236D
:101214000B6000E00020F0BC70470020FBE700BF3B
:10122400A8070020F8B584460E460C4B5B6A176885
:1012340000E013441A7872B15C78042CF9D19878E0
:1012440085B2BCF80440A542F3D1FFF779FF3870AA
:101254000120306000E00020F8BD00BFA807002096
:10126400034B93F8BA00003818BF0120704700BF41
:10127400A8070020074B5B6A00E013441A783AB1D0
:1012840059780229F9D119798142F6D90120704798
:1012940000207047A807002030F0800318D01049C0
:1012A400104B994219D210B403E024310D4B9942EA
:1012B4000CD20C6A00230A7F9A42F6D904EBC302CB
:1012C4001279824206D00133DBB2F4E7002002E057
:1012D40001207047012010BC70470020704700BFF8
:1012E40088030020AC030020014B9861704700BFC5
:1012F400A8070020014BD861704700BFA807002051
:10130400F8B506460A4D0B4B9D420ED22F6A0024B7
:101314002B7FA34207D907EBC400B047002805DBA5
:101324000134E4B2F4E72435EDE70020F8BD00BF52
:1013340088030020AC03002070B50B4B00E024337D
:101344000A4CA3420DD25C68094D6D6AAC42F6D3D7
:101354001D69002DF3D0A6780479A642EFD1A847E1
:1013640001E06FF0850070BD88030020AC0300200D
:10137400A80700202DE9F04106460F469046114C7F
:1013840005E0424639463046A84719E024340E4B5E
:101394009C4213D263680D4D6D6AAB42F6D3A569C6
:1013A400002DF3D0997832799142EAD05B79012B00
:1013B400ECD1424639463046A847E7E76FF085004E
:1013C400BDE8F08188030020AC030020A8070020BA
:1013D400F8B507460E4615460A4C00E024340A4B7D
:1013E4009C420AD26369002BF8D02A46314638461B
:1013F400984703460028F1D101E06FF085031846B1
:10140400F8BD00BF88030020AC03002070B582B093
:101414000D4604798DF807402046FFF73DFF064648
:1014240030B134F0800306D0FFF71AFF18B906462E
:10143400304602B070BD5DB1204602F0E1FB0A4BBC
:10144400DB69002BF4D00DF1070108209847EFE782
:10145400204602F005FC044BDB69002BE8D00DF1BB
:10146400070109209847E3E7A807002000B583B0E7
:1014740083788DF800308388ADF80230C37803F0A8
:1014840003038DF80430684602F092FB10F1780FE4
:1014940000D070B99DF8000002F02CFC10F1780F18
:1014A40000D040B90120054B83F8B90003B05DF8C2
:1014B40004FB0020FAE70020F8E700BFA80700209B
:1014C40008B508220021024809F03FFB08BD00BF0F
:1014D400630800202DE9F0410546234B5C6A4388EC
:1014E4001BB10027FF26B04610E0FFF7E9FF6A882A
:1014F4001D4B83F8BA20DB6913B11C4903209847BC
:10150400012720E094F8038023781C442378CBB18E
:101514006378042BF6D0052B08D0022BF4D166791E
:10152400B2B26B889A42EFD10127EDE7B3B26A8871
:101534009342E9D1B8F1000FE6D12046FFF796FFB8
:101544000746E1E717B93846BDE8F081FFF7B8FF71
:101554006A88054B83F8BA20DB69002BF3D0034972
:1015640003209847EFE700BFA80700206208002087
:1015740010B5146890F90030002B0ADB4378013B66
:10158400082B3AD8DFE803F024392F391A393939CE
:1015940021004378062B07D0082B08D00BB100207C
:1015A40010BDFFF7FBFDFBE7FFF70EFEF8E7144B5A
:1015B40093F8BA30237001200860F1E7807802F0D4
:1015C400E5FAB0FA80F04009EAE7FFF783FFE7E7BE
:1015D4004388012B01D00020E2E7094B002283F865
:1015E400C3200120DCE74388012B01D00020D7E78A
:1015F4000120034B83F8C300D2E70020D0E700BFEB
:10160400A80700202DE9F84306461B4B5C6A002717
:10161400FF25A846B94608E094F80380A578ABB244
:10162400B088834213D023781C442378DBB16378D9
:10163400042BF1D0052BF6D1ABB2B2889342F2D190
:10164400B2784146204608F000FF0746EBE71FFA50
:1016540088F371888B42E6D1C9B2C0B2FFF764FD4A
:101664000746A146DFE7044BDB6913B1494607206F
:1016740098473846BDE8F883A807002070B50446AB
:101684000D461646184B9B690BB1984748B1237811
:1016940003F01F03012B0DD0022B13D013B16FF0F5
:1016A400150070BD324629462046FFF761FF88B118
:1016B4000020F6E732462946204608F0CFFE60B106
:1016C4000020EEE732462946204608F014FF38B1E0
:1016D4000020E6E76FF01500E3E76FF01500E0E7A0
:1016E4006FF01500DDE700BFA807002070B50D4EB0
:1016F4000D4B9E4211D2356A0024337F9C420AD29C
:1017040005EBC40355F83410187902F0B3FC30B972
:101714000134E4B2F1E72436EAE7002001E04FF0B7
:10172400FF3070BD88030020AC03002070B505466F
:101734000E46042805D02B1FDBB2012B04D9144C10
:1017440014E0FFF7BDFEF6E7124B93F8B930002B17
:10175400F5D000F0D9FB042DF1D10F48FFF7D0FDEF
:101764000C4B002283F8B920E9E724340B4B9C424C
:1017740007D2E368002BF8D0324629462046984722
:10178400F3E7044B1B6A13B131462846984770BDF2
:1017940088030020A8070020BBA40000AC0300209D
:1017A40010B582B0134B1B7DCBB9124CE268019289
:1017B40001ABA168802008F0C1FE0199A2680A4427
:1017C400A260E3685B1AE3608BB9E28823699A42FA
:1017D4000DDD13F03F0F0AD10122227507E000212D
:1017E400044B19750B460A46802002F0DBFA02B05E
:1017F40010BD00BFA807002010B584B000230393D8
:10180400044600B931B3002C40F08480484BDA68B8
:10181400002A67DD03AB46498968002009F064FAB1
:1018240000286CDB0398424A916801449160D368B4
:101834001B1AD360002B6FD1104602F1380342F813
:10184400083F00F11001FFF787FC00285ED0FFF786
:10185400A7FF61E0082201A909F046FA00282EDB5F
:101864009DF80400324B18709DF805205A70BDF89D
:1018740006205A80BDF808209A80BDF80A10D98045
:1018840003F138029A6000221A751A61DA6010F0C6
:10189400800F02D1802916D8E1B9254800F1080249
:1018A40000F11001FFF758FCC0B1214BDA88196927
:1018B4008A42A8BF0A46DA60FFF772FF2CE0802054
:1018C40002F09EF928E0802002F09AF9002002F04C
:1018D40097F921E0164B1961D9601DE0802002F0D0
:1018E4008FF919E003AB002211498968104609F009
:1018F400FBF9002810DA802002F082F90CE0802045
:1019040002F07EF9002002F07BF905E0802002F06D
:1019140077F901E0802C01D004B010BD044BDB68E2
:101924001BB9034B1B7D002BF6D0FFF739FFF3E700
:10193400A807002008B5FFF72BFC08490020FFF793
:101944001FFC07490120FFF71BFC06490220FFF793
:1019540017FC0548FFF7C8FC002008BD81160000ED
:101964003D130000D51300007913000008B5084B9F
:1019740093F8B8300BB1002008BD00F049F918B154
:10198400FFF7D8FF0020F7E74FF0FF30F4E700BF80
:10199400A807002030B583B005464FF0FF324FF062
:1019A400FF332D4806F01AFC2C4B93F8B830002B6B
:1019B4004AD1012008F035FD041E46DB274B1D6289
:1019C400274C2046FFF796FC204602F067FB02F006
:1019D40095F8041E39DB00F0C3FA041E35DB4023FE
:1019E400ADF8023000238DF804308DF800306846DD
:1019F40002F0DEF8041E28DB80238DF800306846F0
:101A040002F0D6F8041E20DB1649002002F032FB57
:101A1400041E1ADB1349802002F02CFB041E14DB85
:101A2400FFF764FE041E10DB002002F063F9041EBD
:101A34000BDB802002F05EF9041E06DB074B01225B
:101A440083F8B820002400E00024034806F050FC8A
:101A5400204603B030BD00BF9C020020A807002030
:101A640031170000FD17000002460548054B984257
:101A740004D24368934202D02430F7E70020704731
:101A840088030020AC03002030B58BB001AC1B4DA3
:101A94000FCD0FC42B6823701022002106A809F073
:101AA40054F812220021164809F04FF8102106A814
:101AB40009F0ABFA00281DDD083820EAE0740022A2
:101AC40016E0A3180AA90B4413F8103C51000AA805
:101AD40000EB131010F8245C094800F8125003F0CE
:101AE4000F0301310AAD2B4413F8243C4354013253
:101AF400072AE6DD02480BB030BD00BF74C4000005
:101B04006C08002070B50446FFF7BEFF20B10546FF
:101B140008F0E5FF064600B970BD054808F0DFFF90
:101B24008642F9D132462946A01C08F0EAFFF3E7C1
:101B340074C400002DE9F04182B004464FF0011353
:101B4400019300252F46A8462E462CE0E37843BB9C
:101B5400A37853B92046FFF787FF804600284CD06E
:101B6400836813B13946204698470137FFB218E01D
:101B7400B8F1000F44D001AA4146204608F011FDF7
:101B840078B14FF0FF3032E0032D21D025BB002E79
:101B940039D0A31BB370C3F30723F3703771013536
:101BA400EDB223781C442378E3B16378052BF8D88D
:101BB40001A252F823F000BF8D1B0000A71B0000F8
:101BC400E51B00008D1B0000511B0000751B00006D
:101BD4002046FFF797FFD9E7204608F0CEFCDEE762
:101BE4002646DEE7A01C094B984203D1002002B030
:101BF400BDE8F081FFF79EFFF9E74FF0FF30F6E70D
:101C04004FF0FF30F3E74FF0FF30F0E78703002099
:101C140008B50448FFF78EFF08B9024808BD002044
:101C2400FCE700BFC0020020002300E00133032BC7
:101C34000CDC9A0106498A5C8242F7D101EB8312DB
:101C44005268002AF2D001EB8310704700207047DD
:101C5400800800202DE9F04182B0044610F82C5C85
:101C640050F8283C13F1100F0CD1036913F0020F44
:101C74004FD050F8202C7ABB13F0040F25D000234A
:101C840044F8283C54F8283C13F1100F1AD054F8A7
:101C9400186CBEB154F81C7C54F8148C09F02AFE5C
:101CA40000286AD1002344F8183CA4F1100006F07F
:101CB4009FFB54F8283C13F18C0F03D0424639465D
:101CC4002846B04702B0BDE8F08100231A46194601
:101CD400284608F033FCD2E701AB50F8241C284610
:101CE40008F02CFC80B954F8243C019A134444F8BD
:101CF400243C54F8203C9B1A44F8203C54F81C3CE7
:101D0400134444F81C3CBDE76FF0150344F8283C29
:101D1400B8E701AB50F8202C50F8241C284602F0F8
:101D2400C5F8A0B954F8243C019E334444F8243C3B
:101D340054F8203C9B1B44F8203C54F81C3C33448E
:101D440044F81C3C46B9002344F8283C9AE76FF059
:101D5400150344F8283C95E7284602F0A5F9B6FB9C
:101D6400F0F300FB13600028EDD154F8203C002B65
:101D7400E9D0284602F0F8F884E72146014809F042
:101D8400B1FE9FE7B003002070B582B006460C4652
:101D9400FFF74AFF631EDBB2012B0AD8054650B198
:101DA40009F0A8FD08B1012C12D105F12C00FFF7B0
:101DB40051FF02B070BD012CFBD101AB01220DF12A
:101DC4000301304602F072F8019B002BF5D1F0E7D5
:101DD40005F12C01014809F085FEEAE7B003002073
:101DE4002DE9F0470546884617461E4608F083FC51
:101DF400002861D14FF02003EFF3118983F3128897
:101E0400BFF36F8F0024032C10DCA00100F1180332
:101E14002B48184404300022002306F00DFB08B1BF
:101E24000134F0E7264800EB841400E00024002C81
:101E34003FD0D4F804A01AF1100F22D02570C4F8B2
:101E44000880E76000232361089B6361E663099BC4
:101E5400A3616FF00F036360284602F025F9A8B967
:101E640016F0020F20D004F12C01164809F03AFEB6
:101E74004FF0000A89F31188BFF36F8F5046BDE815
:101E8400F08704F11C0006F0B3FAF3E7284602F0E9
:101E94000BF9B7FBF0F300FB13700028E0D0E36B01
:101EA40043F00403E363DBE7284602F05DF882466F
:101EB400E0E76FF00B0ADDE76FF00F0ADEE700BF23
:101EC40080080020B003002010B54FF02003EFF38A
:101ED400118483F31288BFF36F8FFFF7A5FE20B13F
:101EE4000146436813F1100F04D084F31188BFF343
:101EF4006F8F10BD6FF08B0343602C31014809F0E4
:101F0400F1FDF2E7B003002038B5002411E0124BD4
:101F1400A10103EB84126FF08B0050602831194447
:101F240004310E4809F0DEFD85F31188BFF36F8F8D
:101F34000134032C0FDC4FF02003EFF3118583F3FE
:101F44001288BFF36F8F044B03EB84135B6813F1A8
:101F5400100FE9D1DBE738BD80080020B003002072
:101F640070B5002611E00B4CB50105F128002044A2
:101F74000949043009F0B0FD05F11800204404308B
:101F84000122114609F099FD0136032EEBDD0020F4
:101F940070BD00BF80080020591C000070B50446C5
:101FA4000E4615460179164808F071FB08B394F9FA
:101FB4000020002A13DB6278202A04D0222A09D0C8
:101FC4006FF0850014E0072229680C3808F099FDA9
:101FD40000200DE0A27800F8052C002008E06278CB
:101FE400212A09D1A0F10C032B60072333600020C0
:101FF40070BD6FF01200FBE76FF08500F8E700BFDB
:102004008009002008B50146034808F054FB10B1CC
:10201400012200F8032C08BD8009002008B50169DD
:10202400012381F82B300B6813B191F8293003B9DF
:1020340008BD0831014809F055FDF9E7B003002057
:1020440008B50169012381F82A300B6813B191F8AE
:10205400283003B908BD0831014809F043FDF9E708
:10206400B003002010B50346002480F87E4080F8B9
:102074007F4080F8294080F828400A4A92E803000B
:102084005867A3F87810090C83F87A1083F87C4019
:1020940083F87B404022214603F12C0008F055FDD3
:1020A40010BD00BF10C4000038B5046994F87E3038
:1020B4008BB194F87F300BB100200DE084F8283008
:1020C400206F08F015F9054604F11801034809F0DA
:1020D40009FD284600E0002038BD00BFB003002001
:1020E40030B583B0054614460A1E0CDD04F12C01FC
:1020F400E06E08F0FDF8012384F82930236813B159
:1021040094F82B305BB90194084B009301234022CF
:1021140004F12C012846FFF763FE03B030BD04F13F
:102124000801034809F0DEFCEDE700BFE5200000EC
:10213400B003002010B50446D0F880305B68013944
:10214400052906D8DFE801F0030506272A2EFFF744
:1021540089FF10BD90F87E209AB194F82830002BA6
:10216400F7D1012384F828302368002BF1D094F8A8
:102174002A30002BEDD004F10801134809F0B2FC19
:10218400E7E71B6A02460021187BFFF7A9FF01233A
:1021940084F87E30E1E7FFF765FFDAE7012380F892
:1021A4007F30D6E790F87F20002AD2D0002280F832
:1021B4007F2090F87E20002ACBD01B6A02460021A3
:1021C400187BFFF78DFFC4E7B003002038B50C4639
:1021D40015460146044808F048FA20B12A4621462B
:1021E4008038FFF7A7FF38BD8009002030B585B0DF
:1021F40005694368A1228DF8042020228DF805206A
:102204000024ADF80640ADF808400222ADF80A20DB
:10221400ADF80C1085F87D40186A23460A2201A9FE
:10222400007908F08BF995F87D304BB9012009F05D
:102234005AFE0134044B9C42F5D96FF0040000E0CF
:10224400002005B030BD00BFA086010010B582B0EB
:102254008DF80710046994F87E3013B194F87F3038
:102264000BB102B010BD84F8283001220DF1070132
:10227400206F08F03DF870B901220021206F08F0AA
:10228400A1F80028EDD001220DF10701206F08F01C
:102294002FF80028E5D004F11801024809F022FCC7
:1022A400DFE700BFB003002010B51446012382F815
:1022B4002830136813B192F82A3023B9206F07F03D
:1022C400C9FF30B110BD02F10801054809F00AFC4C
:1022D400F4E704F11801024809F004FCF2E700BF36
:1022E400B003002010B50469C4F8800004F184032D
:1022F4000022C4F884200B4A526872B11360094A60
:102304005360094904F1080009F0E6FB074904F1A8
:10231400180009F0E1FB002010BD024A536013606D
:10232400EFE700BF800900202BA700003523000041
:10233400F0B585B00446A0F11807836E5B681B6A8C
:102344001D7D284608F0D7F908B105B0F0BD4FF45B
:10235400806203A9A06D07F0EBFF06460028F4D0C5
:1023640010F03F0F00D1461E0197064B0093022345
:10237400324603992846FFF733FD3146A06D08F035
:1023840003F8E2E7AD22000030B583B0084D002425
:1023940000944FF0FF334FF480620649284606F05C
:1023A40095F90549284605F02BFE204603B030BDBB
:1023B400B0030020E01C0020E8C4000070B584B025
:1023C4002A4B1C7D04F01F0301229A406109284B0B
:1023D40003EB8103D043D3E8EF1F01EA0005C3E810
:1023E400E65F002EF7D10A423DD004EB44039A0085
:1023F400204B134493E8070004AB03E907001E4B8A
:1024040063B108F003F84FF02003EFF3118683F370
:102414001288BFF36F8F194B1D680AE0002383F302
:102424001188BFF36F8FEEE72B460DB12B686BB1AC
:102434001D465DB1AA68002AF6D00C4B1B7D03EB48
:10244400430399000B4B585C9047EDE786F31188E2
:10245400BFF36F8F074804EB4404A20081180023E4
:1024640083504B608B6004B070BD00BFBC1A002069
:10247400900900209409002011A40000880900207C
:10248400F0B589B005464E4B1C7D04F01F030122B4
:102494009A4061094B4B03EB8103D3E8EF1F41EAF8
:1024A4000200C3E8E60F002EF7D10A4216D004EB6F
:1024B4004403454A12F82330002B7FD0B5F1FF3F87
:1024C4001CD106F0BFF94FF02003EFF3118683F31C
:1024D4001288BFF36F8F3D4B1D682AE004EB44065E
:1024E400394B03EB86066F462A462146384608F0E8
:1024F40046FA97E8070086E80700D8E704EB4403A8
:1025040002EB83039B68590CD803314E314A0023F4
:1025140080194FF0000646EB0101FDF719FE012179
:10252400281A09F0B1FCCCE72B460DB12B686BB12E
:102534001D465DB16A68002AF6D0214B1B7D03EB72
:102544004303214911F823009047EDE786F31188EE
:10255400BFF36F8F04F01F030121994063091E4AE2
:1025640002EB8303D3E8EF2F0A43C3E8E02F0028EC
:10257400F8D104EB4403144A02EB830393E8070005
:1025840008AB03E90700154B0BB1FEF7B9FDFFF7E4
:1025940015FF06F055FB012004F01F0201239340B0
:1025A4006409084A02EB8404DB43D4E8EF2F1A40A1
:1025B400C4E8E12F0029F8D109B0F0BD0020EBE711
:1025C400BC1A0020A00900209409002088090020DA
:1025D4003F420F0040420F00900900200511000007
:1025E40008B5024806F0E6FE08BD00BFF4C40000CA
:1025F40008B308B54368042B07D0082B12D0FBB1ED
:10260400006805F075FE002014E003680022D3E89A
:10261400EF1F012903D1C3E8E02F0028F7D10DD122
:10262400104607E003681B7803F580730020054A11
:1026340042F8230008BD6FF4E04070470248F9E710
:102644000248F7E700000350E98FFFFFEA8FFFFF1E
:1026540070B308B54368042B04D0082B0FD0C3B95A
:1026640015480BE003680122D3E8EF1F002903D1CA
:10267400C3E8E02F0028F7D116D1002008BD036875
:102684001B7803F580730D4A52F8233073B9002088
:10269400F4E700684FF0FF324FF0FF3305F09EFD82
:1026A4000028EBD00648E9E70548E7E70448E5E7F2
:1026B4006FF4E040704700BFEA8FFFFF0000035053
:1026C400E98FFFFF10B5044688B16368042B0DD071
:1026D400082B0BD053B113F0020F0DD0214609483B
:1026E40009F0D0F8002323600023636010BD064B7B
:1026F4005B6806489847E8E714220021206808F040
:1027040024FAF1E7A4090020B8010020FCC4000069
:1027140010B5044678B16368042B0BD0082B09D09C
:102724000BB9236863B1206809F037F9636843F093
:102734000103636010BD0F4B5B680F489847EAE7DD
:102744004FF0FF324FF0FF3321460C4805F002FCF6
:1027540008B923681BB9074B5B68094898471422DA
:102764000021206808F0F1F9636843F00203636014
:10277400D9E700BFB8010020FCC40000A409002070
:1027840024C5000008B5402314220449044809F074
:102794006BF80449044806F06BFE08BDC00900202C
:1027A400A409002064C5000054C50000014910229A
:1027B4000A60704710ED00E072B6404080F3118863
:1027C400BFF36F8FBFF34F8F30BF62B6BFF36F8F0E
:1027D400704700BF72B6494081F3118820BF80F36F
:1027E400118862B6704700BF43B2002B08DB00F0CB
:1027F4001F005B09012202FA00F0024A42F823009A
:10280400704700BF00E100E043B2002B0DDB00F095
:102814001F005B09012202FA00F02033034A42F848
:102824002300BFF34F8FBFF36F8F704700E100E0C9
:102834004209054B53F8222000F01F00012303FA3C
:1028440000F01040704700BF00E100E0013143B2E6
:10285400002B08DB4901C9B203F1604303F561436E
:1028640083F80013704700F00F004901C9B2014B0F
:102874001954704714ED00E030BFFFF7FDBF00BFEF
:1028840008B50B4B0B4A22F07F029A60BFF34F8FBF
:10289400BFF36F8FD3F8882022F47002C3F8882026
:1028A40005F0F8FA06F05CFB00F0D4F905F0FEFA46
:1028B40000ED00E0000000000A4A9368C3F8A80095
:1028C40009490968C3F8AC1008494B6843F08053C0
:1028D4004B60002383F31188BFF36F8F9368D3F8A1
:1028E400AC007047BC1A00209CC7000000ED00E05B
:1028F40014498A684FF030001044EFF3098C80E8E3
:10290400F01F202080F31288BFF36F8F0E4F4FF01B
:102914000066CA698A603E60D2F8A8000023C2F843
:10292400A83080F3118802F1300090E8F01F8CF396
:10293400098802F1000004B508F040F8BDE804403D
:1029440070470000BC1A002004ED00E01EF0040FE4
:102954000CBFEFF30880EFF30980816911F8021CC2
:102964000229FFD001B508F017F801BD10B4A2F197
:1029740020040D4921F0010142F8081C42F8203CD2
:10298400019B42F81C3C029B42F8183C039B42F812
:10299400143C4FF0807342F8043C04650023C0F8F3
:1029A400A83010BC704700BF179A0000094B98600C
:1029B400D0F8983083F30B88104681F309880021FE
:1029C40063B681F31188BFF36F8F0022002307F0F1
:1029D40020F800BFBC1A002001B572B60B4A9069FA
:1029E40000281EBF0021916108F0BBFF62B6EFF31F
:1029F4000580A0F110004FEAC0000549014409C94F
:102A04009847BDE80140034908470000BC1A00206C
:102A140084C100001D2A0000044B9968D8698842CB
:102A240003D003494FF080520A607047BC1A00205B
:102A340004ED00E010B51446134B9A6A9A6A9B6A37
:102A440013F0020F0BD0104B5A6B9B6A13F0800FDC
:102A540005D021B10C4A936A23F0800393620A4B98
:102A64009A6A9A6A9B6A13F0100F01D1064B9B6A0B
:102A7400054A936A43F0FF039362012107F0A3FF21
:102A84002070002010BD00BF00ED00E010B514461A
:102A9400124B9A6A9A6A9B6A13F4007F0BD00F4B0D
:102AA4009A6B9B6A13F4004F05D021B10B4A936AC9
:102AB40023F400439362094B9A6A9B6A13F4807F60
:102AC40001D1064B9B6A054A936A43F47F439362A0
:102AD400012107F078FF2070002010BD00ED00E018
:102AE4000A4B9A6A9A6A986A10F480100BD1074BC1
:102AF4009A6A9A6A9A6A9A6A9A6A6FEA02426FEAC8
:102B040012429A6270470220F1E700BF00ED00E034
:102B140010B5044600230B701B4BD86A10F002005A
:102B24002DD1DB6A002B2BDB174BDB6A13F08043C0
:102B340027D0A36933F8022C4DF602739A4210D0C1
:102B440003F1604303F626631B7863B90F4B1B78CC
:102B54007BB90F4B1B889BB293B12046FFF7C0FF94
:102B64000EE020680CE00A4601212046FFF762FFD0
:102B740006E00A4601212046FFF788FF00E0002016
:102B840010BD1846FCE700BF00ED00E029ED00E0B1
:102B94002AED00E070B58AB00C46224B5968C1F3A7
:102BA4000801002383F31188BFF36F8F02F07F4382
:102BB400B3F17F4F15D102F00C03082B14D012F09F
:102BC400080F0BD000260DF12702204607F000FF66
:102BD40005469DF8273053B10AB070BD044601265E
:102BE400F1E700263446EEE700263446EBE72022E0
:102BF400214601A807F085FF4EB1089BC3F30802E4
:102C04005AB96FEA53236FEA4323089305E0089BFC
:102C140023F4FF7323F00103089301A9284607F066
:102C2400B7FED9E700ED00E0044B5A6942F0100208
:102C34005A615A6942F480625A61704700ED00E0BB
:102C4400EFF30880EFF3098101B57246FFF7A2FFA5
:102C540001BD00BF002206E002F00F01094B0B4446
:102C6400202119760132442A0ADC53B2002BF3DB0B
:102C740003F1604303F56143202183F80013F1E776
:102C8400704700BFFCEC00E0002080F31488BFF321
:102C94006F8F002080F30A8880F30B8809F0EEF927
:102CA40000200E490860BFF34F8F0D4880F3088859
:102CB40000F03CF8202080F311880A484FF40061AA
:102CC400401880F30988EFF314800221084380F34D
:102CD4001488BFF36F8FFFF7D3FD000094ED00E07D
:102CE400E0280020202A0020BFF34F8F0549CA683E
:102CF40002F4E062044B1343CB60BFF34F8F00BF79
:102D0400FDE700BF00ED00E00400FA05064B18687B
:102D1400C0F307200023834205DA034A93600021AD
:102D240011610133F7E7704790ED00E010B572B61A
:102D3400002484F31388FFF7E9FF23460F2B09D8F7
:102D440003F120010D4A4FF0FF3042F82100013316
:102D5400DBB2F3E700230F2B09D803F16001074A24
:102D64004FF0FF3042F821000133DBB2F3E762B6E3
:102D7400BFF34F8FBFF36F8F10BD00BF00E100E0C2
:102D840008B5084B9B68834202D006F0AFF808BD33
:102D9400EFF30583002BF8D0034A536843F08053C4
:102DA4005360F2E7BC1A002000ED00E010B584B0D7
:102DB400094C2346094A0121094807F06EFE002305
:102DC4000393084B0193E41A0294012101A807F02C
:102DD40068FE04B010BD00BF000007200000002002
:102DE40078C50000B0030020014B024A1A63704703
:102DF40090ED00E0AAFF440010B40B6823F01F021A
:102E04000C7A04F01F031A43CB6823F01F036409F0
:102E140043EA440343F0010302498860CA600B613A
:102E240010BC704790ED00E02DE9F04F87B081466B
:102E3400009101931446002734E06FF0150653E027
:102E4400D84569D12946F0B207F00CFE29E0584B69
:102E54009860D96801F01F0122F01F020A43DA606A
:102E64002946E0B207F0FEFD044610F1160F00F00B
:102E74009780013415E0013B4D4988600A6902F0EE
:102E84001F0223F01F0313430B612946E0B207F02E
:102E9400E9FD044610F1160F00F08280013400E0D1
:102EA40001340137009B9F427ADA07EB47054FEA6A
:102EB400850A09EB8505D5F80480B8F1000FF0D038
:102EC400019B23B1284607F0B0FD002864D059F8CF
:102ED4000AB0584607F09FFD064608EB0B00013880
:102EE40007F099FD8642A8D116F1160F57D0631E3C
:102EF400B34259DB30462E4B9E60D96821F01F0146
:102F04009E601B6943F01F0859F80A306A681A4426
:102F140002F1FF3B994293D0994298D0D845AAD068
:102F2400013B2349064688600A6902F01F0223F028
:102F34001F0313430B612946E0B207F093FD0446D7
:102F440010F1160F2CD00130194B9E60D9689DF8F2
:102F5400102061F304028DF810201B69C3F34203AF
:102F6400D2B263F347128DF8102059F80A306A6818
:102F74001344029323F01F03A8EB0B084344013BC3
:102F840023F01F03059302A9C0B207F060FD0446B5
:102F940010F1160F84D103E06FF0150400E03446FD
:102FA400204607B0BDE8F08F6FF01504F8E700BFC6
:102FB40090ED00E010B5034C01232278FFF734FFB5
:102FC400207010BD181B00202DE9F84307468846E1
:102FD400002403E06FF0150517E00134A0453CDD43
:102FE40004EB44039A0007EB83035E68002EF4D0DD
:102FF40057F80290484607F00EFD054606EB090017
:10300400013807F008FD8542E4D104EB8403164A35
:1030140042F8235015F1160F20D0144B1B78AB4205
:103024001FDD04EB840302EB8303114A9560956072
:10303400D568187B65F3040018731069C0F3420067
:103044001D7B60F347151D73D16821F01F01596082
:10305400126922F01F021A61BFE700252846BDE865
:10306400F8836FF01505F9E7C00E0020181B002047
:1030740090ED00E0034B05225A60BFF34F8FBFF37E
:103084006F8F704790ED00E0BFF35F8F014B00221C
:103094005A60704790ED00E038B50E4B1D68082D5E
:1030A40015D8FFF7F1FFFFF79FFE0024A54208D9CA
:1030B400084B596801EB04112046FFF79DFE0134CB
:1030C400F4E7054B1D70FFF7D5FF002038BD4FF026
:1030D400FF30FBE794C50000181B0020014B18606B
:1030E400704700BFFC00002000F07F0342B2002ABA
:1030F40012DB082B02D010F0780F1DD100F00F0363
:10310400002A10DB10F0080F1AD109335B01483391
:103114000C480344181D7047082BEFD010F0780FAB
:10312400ECD00020704710F0080F07D15B01483342
:1031340004480344181D7047002070470248704734
:1031440002487047D41400202016002040170020A5
:1031540010B5002405E0E0B207F017FD07F01FFDED
:103164000134072CF7D9002406E0104B03EB841339
:10317400036107F014FD0134072C06D8E0B207F010
:103184000AFD0369002BF4D1EFE7882007F0FDFC6A
:1031940007F005FD082007F0FEFC03691BB107F0EA
:1031A400FEFC002010BD024B0361F8E7D41200209E
:1031B400D40E002010B582B0002201213720FFF781
:1031C40045FB3720FFF710FB0B4802F0F7FE0B48D6
:1031D40004F04AFD002400944FF0FF334FF4806262
:1031E4000749084805F072FA0749084808F074FCD2
:1031F400204602B010BD00BFBCC50000C0C5000021
:10320400E0200020800400204D330000FC14002046
:1032140030B583B005460022002301A91D4804F0FF
:1032240099FEA0B9019C646054B1002323742572F3
:103234002146194808F035FC184B93F824301BBB81
:1032440003B030BD011D134808F01CFB44B100223B
:103254000023114805F090F804460028F2D1F5E760
:103264000022002301A90B4804F074FE0028DBD1DE
:103274000199496004230B74074808F012FC0849BB
:10328400084808F02FFCCFE70549064808F02AFC57
:10329400D6E700BF30020020B0020020D414002082
:1032A400FC1400208004002030B583B00820FFF710
:1032B4001BFF10B10546037A0BB903B030BD0123DF
:1032C400437703770022002301A91B4804F042FE40
:1032D400A8B9019C6460002CEFD0012323742373EC
:1032E400A5602146154808F0DCFB1549154808F08F
:1032F400F9FBE2E7011D104808F0C4FA44B10022CA
:1033040000230E4805F038F804460028F2D1F5E70A
:103314000022002301A9084804F01CFE0028DAD189
:103324000199496004230B74044808F0BAFB04496A
:10333400044808F0D7FBCEE730020020B00200209A
:10334400FC140020800400202DE9F04184B00646DE
:103354001BE1211D9E4808F095FA16E1A568237B20
:10336400032B00F20E81DFE803F00245666B6F6900
:1033740008220021384607F0E8FB964BD3F8802456
:103384003A70D3F884247A70D3F8882492B2D3F8AC
:103394008C14090289B20A437A80D3F8902492B239
:1033A400D3F89414090289B20A43BA80D3F8982452
:1033B40092B2D3F89C341B029BB21343FB800822C5
:1033C400EA603946844807F09CFB2B680021687A40
:1033D400984797F90030002B01DBFB8823B97F4B1A
:1033E4000022A3F88C22CCE07C4AA2F88C3203F0B1
:1033F4009FFFC6E06B7F002B00F0C3802B7F002B68
:1034040000F0BF8000276F772F77DFF8D4814FF06B
:10341400FF324FF0FF33404604F0E0FE6B69019346
:103424006B680293039701A9687A03F071FB404625
:1034340004F05EFFA5E02B680121687A9847A0E0BC
:10344400AB7A0BB9EB7F23B12B680221687A9847DA
:1034540097E0634F4FF0FF324FF0FF33384604F0EC
:10346400BDFE03F0AFFF384604F042FFECE7237AD9
:10347400042B00F28680DFE803F01E030D2E3D00CE
:1034840003F0D4FA00287CD103F01AFA534807F069
:10349400E9FB76E0514D284607F0B2FB012003F02A
:1034A400A9FA012385F825302B68002B69D0002167
:1034B4000220984765E0494D002385F8253004F043
:1034C4001FFA284607F07FFB2B68002B59D00021F8
:1034D4000420984755E0414B93F82530002B50D0F9
:1034E40004F030FA3D4B1B68002B4AD00021052024
:1034F400984746E0394B1B68002B42D0374A92F874
:103504002520002A3DD000210620984739E006F105
:1035140010054FF0FF324FF0FF33284604F05EFEF3
:10352400FFF716FE284604F0E3FE56F8283C43B3A2
:1035340000210120984724E0FFF7B6FE56F8283C06
:10354400FBB100210A2098471BE004F079FB04F04A
:10355400D7F903F0ABF904E0011D1D4808F092F916
:1035640045B1002200231F4804F006FF0546002849
:10357400F2D1F5E7FFF7ECFD04F05AFB1A4803F02B
:103584006FFA211D124808F07DF900220023154826
:1035940004F0F2FE0446B8B1104B93F825301BB981
:1035A400237C002B7FF4D5AE237C042BE9D801A225
:1035B40052F823F073340000613300001335000027
:1035C4003D3500004F35000004B0BDE8F08100BF78
:1035D4003002002000600350D8140020D4140020CE
:1035E4000C150020B0020020B939000070B582B07B
:1035F400044685782846FFF777FD064615F0800FC8
:103604001DD1E378002B7DD0012B1AD10022002399
:1036140001A96F4804F09EFC002856D1019C646007
:103624007CB10123737723742373A6602146694810
:1036340008F037FA6849694808F054FA01E0E37879
:103644000BB102B070BD0022002301A9604804F050
:1036540081FCA0B9019C6460002CF2D00023B377F4
:103664000123237403232373A6602146594808F0D9
:1036740018FA5949594808F035FAE2E764B10022CA
:103684000023544804F078FE04460028F6D0011DB7
:103694004F4808F0F7F8F1E70022002301A94C484D
:1036A40004F058FC0028D7D10199496004230B7415
:1036B400484808F0F6F94849484808F013FACBE7B7
:1036C400011D434808F0DEF844B1002200234148BC
:1036D40004F052FE04460028F2D1F5E7002200234C
:1036E40001A93B4804F036FC002899D101994960AE
:1036F40004230B74374808F0D4F93749374808F0E5
:10370400F1F98DE70022002301A9314804F022FCDD
:1037140010BB019D6D60002D93D0A37894F9022015
:10372400002A36DB13F0080F46D02D4BD3F8A83708
:10373400F36001232B7402232B73AE6029462548C2
:1037440008F0AFF92449254808F0CCF979E7011DC0
:103754001F4808F097F845B1002200231D4804F0E3
:103764000BFE05460028F2D1F5E70022002301A94B
:10377400174804F0EFFB0028CDD1019949600423D8
:103784000B74144808F08DF91349144808F0AAF989
:10379400C1E713F0080F03D0114BD3F8A836C7E7DD
:1037A40003F00F0303EB83039B0003F1A04303F532
:1037B4005833D3F80836BBE703F00F0303EB830356
:1037C4009B0003F1A04303F55833D3F80837AFE760
:1037D40030020020B0020020FC14002080040020ED
:1037E4000060035070B582B0044685782846FFF720
:1037F4007BFC064615F0800F1DD1E378002B7DD0AD
:10380400012B1AD10022002301A9654804F0A2FB70
:10381400002856D1019C64607CB101237377237422
:103824002373A66021465F4808F03BF95E495F4870
:1038340008F058F901E0E3780BB102B070BD002242
:10384400002301A9564804F085FBA0B9019C6460DB
:10385400002CF2D00023B3770123237403232373B2
:10386400A66021464F4808F01CF94F494F4808F01C
:1038740039F9E2E764B1002200234A4804F07CFDF0
:1038840004460028F6D0011D454807F0FBFFF1E788
:103894000022002301A9424804F05CFB0028D7D190
:1038A4000199496004230B743E4808F0FAF83E4934
:1038B4003E4808F017F9CBE7011D394807F0E2FF4D
:1038C40044B100220023374804F056FD0446002882
:1038D400F2D1F5E70022002301A9314804F03AFBB4
:1038E400002899D10199496004230B742D4808F0EC
:1038F400D8F82D492D4808F0F5F88DE7002200236B
:1039040001A9274804F026FB28BB019D6D60002D0A
:1039140093D001232B7402232B73AE6006F10C01A8
:10392400A07803F08BF9224BB3F88C32F2689342FF
:103934002ED81F4B0022A3F88C222946194808F0E0
:10394400B0F81949194808F0CDF876E7011D144874
:1039540007F098FF45B100220023124804F00CFD43
:1039640005460028F2D1F5E70022002301A90C48FE
:1039740004F0F0FA0028CAD10199496004230B74B9
:10398400084808F08EF80849084808F0ABF8BEE784
:103994009B1A074AA2F88C3203F0CAFCCDE700BF99
:1039A40030020020B0020020FC140020800400201B
:1039B400D414002010B588B0002303930493059316
:1039C400069307930378013B052B26D8DFE803F021
:1039D4003503272E533900238DF81C3003238DF82B
:1039E40014300022002301A9404804F0B3FA00284F
:1039F4005ED1019C646084B19DF81C30237404F191
:103A040008030699059883E803002146384808F01E
:103A140048F83849384808F065F808B010BD002364
:103A24008DF81C3004238DF81430DAE700238DF868
:103A34001C3004238DF81430D3E702238DF81C3096
:103A4400CFE704468078FFF74FFB837A012B0ED033
:103A540005D8002BE1D12046FFF7C4FEDDE7023B89
:103A6400DBB2012BD9D82046FFF7C0FDD5E72046AD
:103A7400FFF7BCFDD1E701A803F02EFC9DF805304B
:103A8400052B0AD00020FFF72FFB01238DF81C30F3
:103A9400059000238DF81830A3E79DF8043013F047
:103AA400600FBAD0EEE7011D104807F0EBFE44B1F9
:103AB400002200230E4804F05FFC04460028F2D1E3
:103AC400F5E70022002301A9084804F043FA00287E
:103AD40091D10199496004230B74054807F0E1FF73
:103AE4000449054807F0FEFF85E700BF30020020C7
:103AF400B0020020FC1400208004002010B51C4BF0
:103B040093F8243013B10024204610BD184C04F15E
:103B1400380007F042FF022000F048FCE061002278
:103B240001213620FEF792FE124802F099FF124B53
:103B340098421AD104F07CF8FFF70AFB044618B93E
:103B44000B4B012283F824200C4B1B681BB10C493E
:103B54000C4807F0C7FF0C4BD3F8003413F0010FE7
:103B6400D2D0002007F099F8CEE76FF00404CBE739
:103B7400D4140020B93900000000AD0BB0020020BD
:103B8400FC1400208004002000700350074B93F8BD
:103B940024302BB1054B93F8253023B10020704716
:103BA4006FF0120070476FF012007047D4140020B9
:103BB40038B5124B93F82430BBB104460578284637
:103BC400FFF792FAA0B1457222798272628842604C
:103BD400207810F0080F03D163885A1E13420AD1CB
:103BE400618802F02DFF002038BD6FF01200FBE762
:103BF4006FF01500F8E76FF01500F5E7D414002016
:103C040038B5164B93F82430E3B10446134B93F8BC
:103C14002530D3B1FFF768FA0546C8B1837A012B82
:103C240019D007D80BB903F0D5FB0020E8606B6905
:103C3400AB6138BD023BDBB2012BF6D8204603F062
:103C440017FBF2E76FF01200F3E76FF01200F0E7F2
:103C54006FF01500EDE76FF01500EAE7D4140020CB
:103C6400114B93F824309BB110B504460E4B93F8D6
:103C7400253083B1FFF738FA80B114F0080F10D162
:103C8400204603F01DFB204603F04EFD002010BD2E
:103C94006FF0120070476FF01200F8E76FF0150034
:103CA400F5E76FF01500F2E7D414002038B5104B97
:103CB40093F824307BB104460D460D4B93F8253020
:103CC40063B1FFF711FA60B175B1204603F0D8FA79
:103CD4002870002038BD6FF01200FBE76FF012006F
:103CE400F8E76FF01500F5E76FF01500F2E700BF95
:103CF400D414002038B5154B93F82430EBB10446A6
:103D0400FFF7F2F90546D8B114F0080F09D02B7A61
:103D1400CBB901232B720D4B93F8253043B9002006
:103D240038BD204603F0CCFA204603F0FDFCEEE754
:103D3400204603F09FFC0020F2E76FF01200EFE74B
:103D44006FF01500ECE76FF07700E9E7D41400207A
:103D540038B5134B93F82430ABB10446104B93F8A9
:103D640025309BB1FFF7C0F9054690B1037A9BB1AA
:103D7400204603F0A7FE0024AC77284606F00FFF88
:103D84002C72204638BD6FF01200FBE76FF0120072
:103D9400F8E76FF01500F5E76FF07700F2E700BF82
:103DA400D41400202DE9F04184B01F463C4B93F815
:103DB4002430002B65D0044688461646384B93F8C9
:103DC4002530002B60D010F0800F60D0FFF78CF905
:103DD400054600285ED0037A002B5ED04FF0FF32F8
:103DE4004FF0FF332F4804F0F9F9AB7F9BBB1EB9AA
:103DF400EB7F0BB10023EB77AB7A63B95EB1284A52
:103E04005289B24207D96968B6FBF1F201FB12622A
:103E14000AB90122EA771BB903F0E4FAA04220D1DF
:103E24000123AB77CDF8048002960023039301A904
:103E3400204602F06DFE1C4B984219D00023AB774C
:103E4400D7B13B606FF00404164804F051FA2046E1
:103E540004B0BDE8F081134804F04AFA6FF00A0494
:103E6400F5E703F0AFFA0F4804F042FA0024EEE756
:103E74002FB13E600024E7E76FF00404E4E7002478
:103E8400E2E76FF01204E2E76FF01204DFE76FF08D
:103E94001504DCE76FF01504D9E76FF01504D6E7D5
:103EA400D41400200C1500200000AD0B2DE9F041C6
:103EB4001F462B4B93F82430002B42D00D46164658
:103EC400274B93F82530002B3ED010F0800F3ED1C5
:103ED40049B3FFF709F9044600283BD0037A002BC5
:103EE4003BD04FF0FF324FF0FF331E4804F076F919
:103EF400E368B0469E4228BF9846CDB14246A169C8
:103F0400284606F0FEFDA3694344A361E368A3EBDE
:103F14000803E3600FB1C7F80080124804F0E8F921
:103F24000020BDE8F081002AD3D06FF01500F8E737
:103F3400002EE3D107B13B600A4804F0D9F9002010
:103F4400EFE76FF01200ECE76FF01200E9E76FF0B3
:103F54001500E6E76FF01500E3E76FF01500E0E702
:103F6400D41400200C1500203C4B93F82430002B73
:103F740065D03A4B93F82530002B63D010F0800FB6
:103F840063D130B583B0FFF7AFF8044600285FD0A3
:103F9400037A002B5FD04FF0FF324FF0FF333048ED
:103FA40004F01CF9E3682BB96369A3610123237747
:103FB400637F2BB92A4804F09BF9002003B030BD7D
:103FC4000022002301A9274803F0C4FFA0B9019DE2
:103FD4006D6075B301232B74AC602B7329462248A2
:103FE40007F05FFD2149224807F07CFDE2E7011D4F
:103FF4001C4807F047FC45B1002200231A4804F08E
:10400400BBF905460028F2D1F5E70022002301A9F7
:10401400144803F09FFF0028DBD101994960042371
:104024000B74114807F03DFD1049114807F05AFD83
:10403400CFE70B4804F05CF96FF00B00BEE76FF0BC
:10404400120070476FF0120070476FF01500704750
:104054006FF01500B2E76FF01500AFE7D41400203D
:104064000C15002030020020B0020020FC140020B7
:1040740080040020084B93F824303BB110B50C4663
:10408400FFF732F828B10460002010BD6FF0120071
:1040940070476FF01500F8E7D4140020014B186046
:1040A400704700BFD414002008B5074B93F82430A0
:1040B40023B1FFF719F820B1406808BD6FF0120072
:1040C400FBE76FF01500F8E7D414002000487047B0
:1040D400EC170020034BC01A8010034B03FB00F0C5
:1040E400704700BF74170020B76DDBB638B50546BE
:1040F4000C46FFF7EFFF01464022034806F07AFE24
:1041040001462846A04738BD0CC1000030B583B035
:1041140005460C46FFF7DEFF014640230093234685
:10412400054A064806F080FE011E01DB03B030BDDF
:104134002846A047FAE700BF75AE00000CC1000096
:1041440008B5052815D8DFE800F0031A1414151073
:1041540000210D4806F0D7FD836813F0070F08D13E
:104164000021094806F034FE03E00221064806F067
:104174002FFE08BD0321044806F02AFEF9E70121B9
:10418400014806F025FEF4E70CC1000010B54FF01D
:104194002003EFF3118483F31288BFF36F8F134A64
:1041A400136843F00203136013F0010F08D10023D6
:1041B40084F31188BFF36F8F9BB906F061FE10BDC5
:1041C4004FF05023D3F80C24D3F80C3412F0010F21
:1041D40001D10023ECE7FFF779FF06F0E6FD0123A8
:1041E400E6E70021024806F0F3FDE8E71418002092
:1041F4000CC1000008B5084BD3E8EF2F22F00201F0
:10420400C3E8E01F0028F7D112F0010F00D008BD69
:1042140006F04AFEFBE700BF1418002000B585B085
:10422400CDF800D0CDF804D00023029301230393EA
:104234006B46074A06F014FE002805DB4FF4804263
:104244000023684604F0F8F805B05DF804FB00BFED
:10425400D5AE000070B50646002201210520FEF708
:10426400F5FA0520FEF7C0FA114801F007F8114BE2
:10427400984219D101F014F80024032C12D82146D5
:10428400304606F040FD05462146304606F046FD20
:10429400094905F0E6FA002805DB0123AB601C445C
:1042A400E4B2EAE7002070BD6FF00400FBE700BF52
:1042B400454100000000AD0B08C6000070B505467E
:1042C400012807D14FF05023D3F81C3403F0030323
:1042D400022B3FD007F00EFB20B9304B1B789BB16B
:1042E400002300E001231C4683B14FF02003EFF3C9
:1042F400118683F31288BFF36F8FA4B94FF0502354
:104304000222C3F808230EE00123ECE70026F4E7B9
:104314000CB33046FEF75EFA4FF05023D3F818354D
:10432400DBB2012B1CD04FF05022D2F8183403F02A
:104334000303D2F8182412F4803F26D10022002A65
:10434400E6D0022B01D0012DE2D104B386F311880B
:10435400BFF36F8F70BD2120002104F085FDDBE7E2
:104364000F4B1B68002BDED00D4B00221A601B681C
:104374004FF050230222C3F818250A4B2022C3F819
:104384008021094B01221A60CDE70122D7E74FF0C3
:1043940050230222C3F80423DCE700BF1F1B0020C4
:1043A4000451005000E100E00850005008B5C1B2CB
:1043B400014806F0B3FC08BD0CC1000010B504466A
:1043C4000E4B0121D3E8EF2FC3E8E01F0028F9D1F9
:1043D4001AB1631E012B0CD910BD094806F09EFCCE
:1043E400084900234B60CB6001238B6005F055FA2C
:1043F400EFE72046FFF762FFEEE700BF1818002042
:104404000CC100006417002010B504460A2807D028
:10441400074B1868E1B283685B689847204610BD73
:10442400034B186883685B680D219847F0E700BF69
:104434001C18002010B5044C2046FEF74FFE204601
:10444400FCF73AF810BD00BF0D44000008B506485B
:10445400064B186007F0CAF918B1FFF7EBFF00200C
:1044640008BD6FF01200FBE754C100001C180020C7
:104474001F4B03401F4A934232D016D8062B2BD031
:1044840006D9B3F5801F0DD101230B7000207047AE
:10449400FBB1022B03D104230B70002070476FF093
:1044A400150070476FF015007047134A93421BD0F4
:1044B400B3F5A00F03D103230B7000207047B3F5AD
:1044C400800F03D102230B70002070476FF015009A
:1044D400704700200870704706230B700020704757
:1044E40007230B700020704705230B7000207047D2
:1044F4000600F000060010000200400028B1012868
:1045040001D103487047002070470248704700BF3C
:1045140024C100003CC10000F0B585B00E46194628
:1045240043681B7B06F01F0545EA4315B2F5005F9F
:1045340022D007461446002302930393104606F044
:10454400F8FC8DF808007B689968F14011F0010FC0
:1045540002D1B4F5A03F14D0002302AA194628467C
:1045640001F052FA1A4B98422FD10121284601F04A
:1045740027FC002005B0F0BD284601F083FC002094
:10458400F8E705F01F036A09012A12D0114A8033A3
:1045940052F8233013F0010FDED10DF10701284644
:1045A40001F0B2FB0C4B984205D00DF107030393C5
:1045B400D2E70A4AEBE70DF1070001F0F9FB044BDF
:1045C4009842F2D06FF00B00D4E76FF00400D1E70B
:1045D4000000AD0B002584500400AD0B002884506E
:1045E40030B583B004460DF1070101F08DFB05469B
:1045F400204601F077FC0B4B98420FD19D4205D029
:10460400084B984207D1002003B030BD9DF8070045
:1046140001F0C6FBF4E76FF00400F5E76FF0040067
:10462400F2E700BF0000AD0B2DE9F04387B0D0F8EE
:10463400048098F80C3001F01F0545EA4315002A60
:1046440043D00C4617460026039604960DF1170135
:10465400204601F059FB8146334603AA31462846D9
:1046640001F0D2F92F4B984259D1994535D017F41E
:10467400007F41D00DF103013846FFF7F9FE0646ED
:1046840038BB9DF803308DF8043017F4807F0CBFDD
:10469400012300238DF80530384606F01EFC8DF802
:1046A400060017F4006F1DD0D8F80430012101FA78
:1046B40004F49C60002201A9284601F05DFA194B1C
:1046C400984206D06FF0150603E02846FFF788FFEE
:1046D4000646304607B0BDE8F0839DF8170001F0A8
:1046E4005FFBC4E717F4806FE4D0D8F804200123FB
:1046F40003FA04F4D460DDE7384606F0EEFB8DF8E7
:10470400080000231A4602A9284601F07DF9054B4A
:10471400984201D10026DCE76FF01506D9E76FF067
:104724001506D6E70000AD0B08B501F02FFB08B164
:10473400002008BD01F000FB084B98420AD100217B
:10474400074801F0DBFA002205210D20FEF77EF870
:104754000020EEE76FF00400EBE700BF0000AD0BB4
:10476400C7AF000010B44368002940F08780DA68BE
:10477400B2F1FF3F18D002F01F015209012A6DD097
:10478400694801228A408260DA6802F01F015209F6
:10479400012A65D06448803150F8212002F0E042BB
:1047A40042F0030240F821201A69B2F1FF3F12D00F
:1047B400197F002956D0032402F01F015209012A4F
:1047C40052D05948803150F8212002F0E04242EAA8
:1047D400840240F821205A69B2F1FF3F18D002F058
:1047E4001F015209012A41D04F4801228A408260A8
:1047F4005A6902F01F015209012A39D04A4880310E
:1048040050F8212002F0E04242F0030240F8212057
:104814009A69B2F1FF3F11D0597F59B3032402F0D2
:104824001F015209012A27D03F48803150F8212026
:1048340002F0E04242EA840240F821201A68D86873
:104844001969C2F80C05C2F814151A6859699B69EC
:10485400C2F80815C2F8103510BC7047334890E709
:10486400324898E70024A7E73048ABE72F48BCE775
:104874002E48C4E70024D2E72C48D6E7DA68B2F120
:10488400FF3F0ED002F01F015209012A43D02648EF
:10489400803150F8212002F0E04242F0020240F858
:1048A40021201A69B2F1FF3F0ED002F01F01520914
:1048B400012A32D01C48803150F8212002F0E04215
:1048C40042F0020240F821205A69B2F1FF3F0ED0B3
:1048D40002F01F015209012A21D01348803150F8F7
:1048E400212002F0E04242F0020240F821209A69BD
:1048F400B2F1FF3FA2D002F01F015209012A10D0E9
:104904000948803150F8212002F0E04242F00202CE
:1049140040F8212092E70548BAE70448CBE703486A
:10492400DCE70248EDE700BF0025845000288450EE
:1049340043681A68B1F5164F6FD03AD8B1F5165FCF
:104944006ED00AD9B1F5E14F75D024D947F61223B8
:1049540099422BD14FF4000313E0B1F5966F61D067
:1049640007D9B1F5166F63D0B1F5965F10D13C4B02
:1049740007E0B1F5967F58D0B1F5167F05D14FF415
:104984001C33C2F82435002070476FF015007047BF
:104994006FF015007047B1F5615F4ED0B1F5964FD9
:1049A40001D1304BEDE76FF0150070476FF0150043
:1049B4007047B1F5613F42D009D9B1F5612F46D0B6
:1049C4001FD9294B994248D14FF08053D9E7B1F50B
:1049D400963F37D005D9B1F5E13F0FD14FF0EB73D6
:1049E400CFE74DF6C02399422ED0B1F5614F02D1E5
:1049F4004FF46B03C5E76FF0150070476FF01500B7
:104A040070471A4B994225D0B1F5E12F02D14FF0EE
:104A1400E863B6E76FF0150070474FF41D03B0E785
:104A2400134BAEE74FF49E23ABE74FF4A033A8E754
:104A34004FF41D23A5E70F4BA3E70F4BA1E74FF05E
:104A44006C739EE70D4B9CE74FF4650399E74FF0B9
:104A5400706396E74FF0806393E76FF0150070473B
:104A640000B0130000A04E0040420F0090D003009D
:104A74000050270000C0750000F03A0000903A0191
:104A84002DE9F04105460F46D0F8108006F032FFBC
:104A940020B9164B1B78ABB1002300E001239BB176
:104AA4004FF02003EFF3118483F31288BFF36F8F69
:104AB4002646284606F0B9FB50B984F31188BFF3A3
:104AC4006F8FEDE70123EAE7284606F0CBFC0646A4
:104AD400414601F8147F0122284606F0C0FB86F304
:104AE4001188BFF36F8FBDE8F08100BF1F1B00204A
:104AF40038B505460C4601F1160000F07DFD0A4B61
:104B040098420ED1A37D43F00043C5F8A031C5F807
:104B14008C30A27D01239340044AC2F8043500205E
:104B240038BD6FF00400FBE70000AD0B00700150CE
:104B340021F07F4100F5A870014B43F82010704725
:104B44000050015000F5A870014B53F82000704745
:104B5400005001504FF480338340024AC2F844337A
:104B6400704700BF005001504FF480338340024A25
:104B7400C2F84833704700BF00500150014BD3F8CE
:104B8400040570470050015010B501238340DC43F5
:104B94000D4AD2E8EF1F01EA040CC2E8EECFBEF1E1
:104BA400000FF6D14FF4803202FA00F002F15022E5
:104BB400C2F80803BFF35F8FBFF36F8F0B4214BFBC
:104BC4000120002010BD00BF5C18002070B5044611
:104BD40006F0DCFC05464FF48033A340154AD2F8B6
:104BE4000423134205D10026284606F0D8FC30469B
:104BF40070BD0123A340DB430F4AD2E8EF1F01EA53
:104C04000300C2E8E60F002EF7D159B904F15003AE
:104C14009B009BB203F1502303F580331B6813B14F
:104C2400012300E001231E46002BDDD0204606F0C0
:104C34009EFCD9E7005001505818002001B9704774
:104C4400012383400E4AD2E8EF1F1943C2E8EC1F48
:104C5400BCF1000FF7D14FF480338340094AC2F806
:104C64000433094BD3E8AF3F23FA00F010F0010FEF
:104C7400E5D0064B4FF40012C3F80021DFE700BF74
:104C84005C180020005001505818002000E100E09A
:104C9400F8B5074614461E461046194606F073FC3E
:104CA4000546154B1A68A01A1C605E60A5F5001332
:104CB400B3F5400F08D3002404F05EFA3846FFF73A
:104CC40041FFA8420CD0F8BD0C4B19680B0A0A0628
:104CD400521943F100030A49C1E900230124EBE717
:104CE4001CB13846FFF736FFEDE74FF400013846B4
:104CF400FFF71EFFF5E700BF6805002060180020DD
:104D04005005002038B50D4B1B681D0A1C06BFF367
:104D14005F8FFFF733FF0346201845F10001B3F519
:104D2400801F0AD2064BD3E90023994208BF904260
:104D340003D210F1807041F1000138BD60180020E9
:104D4400500500202DE9F843064614461D4610463A
:104D5400194606F018FC0746FFF7D4FFA94208BF1E
:104D6400A0421ED2B4EB000865EB01094FF080723B
:104D740000234B4508BF42452AD3174B03EB0613C8
:104D8400D3E90223AB4208BFA24214D039463046CD
:104D940006F00AFC394606F0E6FB241845F1000546
:104DA40009E00123B3400D4AD2E8EF1F1943C2E8DA
:104DB400E01F0028F8D1084B320103EB0616C6E9C0
:104DC400024508999950099B73600020BDE8F88357
:104DD4006FF01500FAE700BF5805002058180020AE
:104DE40030B583B000231E4AC2F80835002B25DDF8
:104DF4001B4C0225C4F804531A4B4FF40012C3F899
:104E04008021002201211520FDF720FD1520FDF74A
:104E1400EBFC0123144A13602360144A136000243A
:104E24000194134B0093134A0023204606F0F7FB2A
:104E34002846FFF7C3FA204603B030BD0E4A02EB02
:104E440003124FF0FF304FF0FF31C2E902014FF47B
:104E540080329A400249C1F804230133C6E700BFF7
:104E64000050015000E100E0085001505C1800209F
:104E7400954C0000FFFF7F00580500202DE9F04706
:104E840082B00446FFF7A2FE10B902B0BDE8F08775
:104E9400FFF738FF06460F4606F078FB8246134BB1
:104EA40003EB0413D3E902894F4508BF46450BD2EF
:104EB4000026504606F073FB002EE6D000954246CD
:104EC4004B462046B047E0E7084A230102EB0411B1
:104ED400D6584D680020D0504FF0FF324FF0FF33CA
:104EE400C1E902232046FFF73FFEE2E75805002010
:104EF40010B50D4BD3F8043313F0020F0AD00B4B4B
:104F04001B683BB1094B00221A601B68084A1368EE
:104F1400013313600024002C00DD10BD2046FFF790
:104F2400ADFF0134F7E700BF0050015004510150B8
:104F34006018002010B582B0B0F1FF3F07D0441EC6
:104F4400002C07DD114B9C4205DD114C03E000F5FC
:104F54000000F4E70024FFF7D5FE0E4BD3E900234D
:104F6400801AB0F5000F00D3002404440134B4F5D2
:104F7400000F00D3064C002001900749009112193C
:104F840043F1000306F04BFB02B010BDFEFF7F00AF
:104F9400FFFF7F0068050020954C000008B5FFF76F
:104FA400B1FE024B1B68C01A08BD00BF6805002093
:104FB400084B1A6804331B68072A01D00020704785
:104FC400023B002B04D8DFE803F001000120704706
:104FD400002070473001FF000A4B1A6804331B6835
:104FE400072A01D000207047042B07D008D8023BC1
:104FF400012B01D801207047002070470020704722
:10500400002070473001FF00084B1A6804331B6806
:10501400072A01D000207047023B002B04D8DFE8A8
:1050240003F0010001207047002070473001FF00A9
:10503400044B1B68044A1268072B01D000207047F8
:10504400012070473001FF003401FF00084B1A684B
:1050540004331B68072A01D000207047023B002B51
:1050640004D8DFE803F001000120704700207047F6
:105074003001FF00084B1A6804331B68072A01D06B
:1050840000207047023B002B04D8DFE803F0010046
:1050940001207047002070473001FF00084B1A6858
:1050A40004331B68072A01D000207047023B002B01
:1050B40004D8DFE803F001000120704700207047A6
:1050C4003001FF004FF05023D3F8582502F00302BB
:1050D400024BD340024A1360704700BF0020A1076F
:1050E4002C01002008B5FFF7D9FF58B13B4B1B68D2
:1050F40043B93A4B0D221A60A3F5827301221A6058
:1051040000221A6000221F2A15D802F160034FF40E
:105114007F0151F83330B3F1FF3F0CD002F160034B
:105124004FF47F0151F83310DB0003F57F035B6814
:105134000B600132E7E7FFF789FF28B1284B2922EA
:105144001A60303303221A60FFF732FF38B1254B5F
:10515400254A1A604FF050230122C3F85825FFF75F
:105164003BFF10B1214B00221A60FFF74DFF68B1DD
:105174004FF05023D3F8003413F0010F06D04FF052
:1051840050230022C3F81421C3F81821FFF750FF5D
:1051940060B14FF05023D3F8003413F0010F05D061
:1051A4004FF050236FF00102C3F80024FFF762FFB1
:1051B40010B10B4B65221A600D4AD2F88C3043F4BF
:1051C4004063C2F88C300B4A11680B4BC3F844158A
:1051D400D269C3F84C25FFF775FF08BD204A00507B
:1051E4000C470050309503504400EFBE4C2503504B
:1051F40000ED00E00080FF000060005030B404685F
:10520400B4FA84F3D3F11F0311D401229A4024EA9F
:105214000202D0E8EF5FA54204D1C0E8EC2FBCF154
:10522400000FF6D1EBD10B70024830BC7047024836
:10523400FBE700BF0000AD0B0200AD0B10B4036828
:105244000C4623FA01F111F0010F10D10268012379
:10525400A3401343D0E8EF1F914204D1C0E8EC3FD0
:10526400BCF1000FF6D1F1D1024810BC70470248DE
:10527400FBE700BF0000AD0B0400AD0B054B1B7931
:105284002BB9044B186001221A7103487047034874
:10529400704700BF641800200000AD0B0C00AD0B7C
:1052A40008B50520FDF7C4FA48B14FF05022012398
:1052B400C2F81435C2F88035034A137008BD0520BE
:1052C400FDF792FAF1E700BF191B002003284ED81E
:1052D400DFE800F0022732404FF05022D2F81834B1
:1052E40003F00303D2F8182412F4803F11D14FF0D5
:1052F40050230122C3F818251D4B00221A601B6895
:105304004FF050230222C3F80423083301221A6009
:105314007047022BEBD14FF050230222C3F818251B
:10532400EAE7144B00221A601B684FF05023012255
:10533400C3F804231A6070470F4B00221A601B68DD
:105344004FF050234FF40072C3F80423203301229A
:105354001A607047094B00221A601B684FF05023F3
:105364004FF48072C3F80423183301221A60704783
:10537400045100500051005024510050205100505D
:1053840070B50446032800F2CD80DFE800F0021473
:1053940021304FF050230222C3F8082303F582730F
:1053A40000221A601B68604B01221A60012C2DD068
:1053B40042F21075A1E001234FF05022C2F80833E5
:1053C40002F58072002111601268584A1360EDE7FB
:1053D4004FF050234FF40072C3F8082303F592737F
:1053E40000221A601B68524B01221A60DEE74FF05C
:1053F40050234FF48072C3F8082303F590730022FE
:105404001A601B684B4B01221A60CFE7264642F212
:10541400107535E04FF05023D3F8186406F00306F6
:10542400D3F8183413F4803F3AD100231FE04FF02F
:105434005023D3F80C6406F00106D3F80C3413F4AB
:10544400803F2FD1002312E04FF05023D3F85C6447
:1054540006F00106D3F85C3413F4803F24D1002312
:1054640005E04FF05023D3F85434C3F30043002B2A
:1054740058D0012E56D1012006F0FFF8013D51D03D
:10548400032C0BD801A353F824F000BF19540000D7
:10549400335400004D540000675400000023E6E735
:1054A4000123E4E70123E2E70123E0E74FF050237F
:1054B400D3F8183413F4803F2ED1002317E04FF0B3
:1054C4005023D3F80C3413F4803F27D100230EE08B
:1054D4004FF05023D3F85C3413F4803F20D10023E1
:1054E40005E04FF05023D3F85434C3F30043CBB159
:1054F400012006F0C2F8013D14D0032C0AD801A300
:1055040053F824F0B1540000C3540000D5540000F3
:10551400E75400000023EAE70123E8E70123E6E774
:105524000123E4E770BD00BF0C500050045000504C
:10553400245000501C50005008B52A4B1B685BB126
:10554400284B002018601B684FF050230122C3F839
:105554000823254B1B689847244B1B68B3B1234B86
:1055640000221A601B684FF05022D2F8183403F05E
:105574000303D2F81824012B2BD04FF0502302221E
:10558400C3F80823184B1B6801209847184B1B6865
:105594006BB1174B00221A601B684FF050234FF475
:1055A4008072C3F80823104B1B6804209847114BE2
:1055B4001B686BB10F4B00221A601B684FF050231D
:1055C4004FF40072C3F80823074B1B680520984763
:1055D40008BD4FF050230222C3F8182508330122D6
:1055E4001A60D3E7005100506418002004510050A1
:1055F400205100502451005008B501460148FFF7DE
:10560400FDFD08BD300100200830034B33F81000C5
:1056140000F00100704700BF340100200830034B44
:1056240033F81000C0F34010704700BF340100206D
:105634000830044B33F8100010F01C0018BF012090
:10564400704700BF340100200830034B33F81000CA
:10565400C0F34000704700BF340100200830024B03
:1056640033F81000400B704734010020002204E09E
:105674004FF0FF3383420FD001322F2A0AD802F1B0
:105684000803064931F8133013F4807FF0D0C3F3D4
:105694004323EFE7002070470120704734010020C6
:1056A400002313B14FF0FF307047074A52F83320FC
:1056B400824201D00133F4E7034A02EBC302526889
:1056C4008A42F7D118467047340100200830064B4F
:1056D40033F8100010F4807F04D0C0F3432003EBB0
:1056E400C0007047002070473401002070B50446A4
:1056F4000D46FFF7EBFF20B10668426829462046B5
:10570400B047044B9B6823B1024AD268294620461D
:10571400984770BD3401002070B504460D46164606
:10572400084605F0C6FFC0B9022E3AD0022004F0A4
:105734001F026109012936D02149803251F82230F3
:1057440023F4403343EA004341F82230032D2ED0A2
:10575400022E2AD0032E2FD070BD29462046FFF7F3
:10576400C5FF04F01F036409012C18D0144903F188
:10577400800251F82220C2F301429642ECD18033D8
:1057840051F8232022F4403241F8232051F82320F9
:1057940022F4403242EA064641F82360DCE7094934
:1057A400E5E70320C3E70749C7E7012DD2D129461E
:1057B4002046FFF79BFFCFE7022DCDD1F7E700BFCF
:1057C400002584500028845010B483B00446114B43
:1057D40093E8030002AB03E903002046002309E039
:1057E40002AA02EB830252F8082C116A40F8041B47
:1057F40011620133012BF3D90023012B04D854F88F
:1058040023202AB90133F8E7002003B010BC704705
:105814000120FAE718C4000000F108020E4B33F827
:10582400123013F4807F16D010B5C3F3432410460E
:1058340023F4F853084A22F810302046FFF716FFE5
:1058440000B110BD0448002340F8343021467430C0
:10585400FFF7F4FCF5E770473401002010B5044667
:10586400FFF7DCFE50B12046FFF7F8FE084B00F5C9
:10587400A270002243F8202043F820202046FFF79E
:10588400CBFF0834034B002223F8142010BD00BFC3
:1058940000D000503401002070B582B006460C469A
:1058A4001546FFF7B9FF24B329462046FFF7F8FE53
:1058B400031E13DB104A42F8334002EBC3014D6070
:1058C4005B029BB206F1080032F810100B4343F45C
:1058D400807322F81030094802B070BD0DF1070141
:1058E4000748FFF78BFC054B9842F5D19DF807302C
:1058F400E0E70248F0E700BF340100200000AD0BF0
:10590400A801002070B584B02A4A6B4692E80300CF
:1059140083E80300002302A809E004AA02EB83023F
:1059240052F8102C116A40F8041B11620133012B48
:10593400F3D93BE0204E05F1800356F82320C2F34F
:105944000142FFF7E9FE0123AB40336204AB03EBF2
:10595400840353F8080CF0B190FAA0F0B0FA80F088
:1059640000EB441000F10802144B33F81210C1F399
:105974008201C50800F0070202AE012303FA02F215
:10598400735D23EA0203735500F01F054309012BDD
:10599400D0D00B4ECFE70134012CD7D9094B0022CC
:1059A4001A601B6802A8FFF70FFF08B10024F3E791
:1059B40004B070BD18C400000028845034010020D5
:1059C400002584507CD1005038B50446CCB194FAFB
:1059D400A4F3B3FA83F301229A4024EA0204094AA5
:1059E40003F5A27352F82350C5F3052552F823009A
:1059F400C0F3014005F05BFE01462846FFF776FE42
:105A0400E4E738BD00D000502DE9F84304461546BC
:105A14001E4651B30F4605F034FE002840F097802F
:105A240004F01F026309012B40D04D4802F18003AA
:105A340050F82330002F3BD00C2141F0030123EA1E
:105A44000103002F36D0397889000B43803240F8A7
:105A54002230444A04F1080132F8113023F00203E1
:105A64009BB243F0010322F81130B5B195F80080E0
:105A7400D5F804902046FFF7E7FDE8B1B9F1000F2F
:105A840067D1384B04F1080233F8120020F01C00EF
:105A940080B240EA880023F81200002E5DD07268BC
:105AA40031682046FFF7F8FEBDE8F8832E48BDE7CD
:105AB4000021C2E70021C8E72A4B04F1080233F8A9
:105AC400127027F02007FF04FF0C23F81270B9F1BD
:105AD400000FD6D0B8F1030F3DD86B681D78B8F12C
